{
  "contractName": "devent",
  "abi": [
    {
      "constant": true,
      "inputs": [
        {
          "internalType": "uint256",
          "name": "",
          "type": "uint256"
        }
      ],
      "name": "ListeUser",
      "outputs": [
        {
          "internalType": "uint256",
          "name": "ID_User",
          "type": "uint256"
        },
        {
          "internalType": "string",
          "name": "Username",
          "type": "string"
        },
        {
          "internalType": "string",
          "name": "email",
          "type": "string"
        },
        {
          "internalType": "string",
          "name": "country",
          "type": "string"
        },
        {
          "internalType": "uint256",
          "name": "posta_Code",
          "type": "uint256"
        },
        {
          "internalType": "string",
          "name": "privateKey",
          "type": "string"
        },
        {
          "internalType": "address",
          "name": "userWallet",
          "type": "address"
        }
      ],
      "payable": false,
      "stateMutability": "view",
      "type": "function"
    },
    {
      "constant": true,
      "inputs": [
        {
          "internalType": "uint256",
          "name": "",
          "type": "uint256"
        }
      ],
      "name": "NumberTickettUser",
      "outputs": [
        {
          "internalType": "uint256",
          "name": "",
          "type": "uint256"
        }
      ],
      "payable": false,
      "stateMutability": "view",
      "type": "function"
    },
    {
      "constant": true,
      "inputs": [],
      "name": "rulesIndice",
      "outputs": [
        {
          "internalType": "uint256",
          "name": "",
          "type": "uint256"
        }
      ],
      "payable": false,
      "stateMutability": "view",
      "type": "function"
    },
    {
      "constant": true,
      "inputs": [
        {
          "internalType": "uint256",
          "name": "",
          "type": "uint256"
        },
        {
          "internalType": "uint256",
          "name": "",
          "type": "uint256"
        }
      ],
      "name": "ListeProjectUser",
      "outputs": [
        {
          "internalType": "uint256",
          "name": "id_project",
          "type": "uint256"
        },
        {
          "internalType": "string",
          "name": "project_name",
          "type": "string"
        },
        {
          "internalType": "string",
          "name": "project_type",
          "type": "string"
        },
        {
          "internalType": "string",
          "name": "localization",
          "type": "string"
        },
        {
          "internalType": "uint256",
          "name": "start_date",
          "type": "uint256"
        },
        {
          "internalType": "uint256",
          "name": "end_date",
          "type": "uint256"
        },
        {
          "internalType": "bool",
          "name": "ongoing_project",
          "type": "bool"
        },
        {
          "internalType": "string",
          "name": "project_description",
          "type": "string"
        },
        {
          "internalType": "string",
          "name": "project_contact_information",
          "type": "string"
        },
        {
          "internalType": "uint256",
          "name": "tickets_total_supply",
          "type": "uint256"
        }
      ],
      "payable": false,
      "stateMutability": "view",
      "type": "function"
    },
    {
      "constant": true,
      "inputs": [],
      "name": "ProjectIndice",
      "outputs": [
        {
          "internalType": "uint256",
          "name": "",
          "type": "uint256"
        }
      ],
      "payable": false,
      "stateMutability": "view",
      "type": "function"
    },
    {
      "constant": true,
      "inputs": [
        {
          "internalType": "uint256",
          "name": "",
          "type": "uint256"
        }
      ],
      "name": "ListIDRules",
      "outputs": [
        {
          "internalType": "uint256",
          "name": "",
          "type": "uint256"
        }
      ],
      "payable": false,
      "stateMutability": "view",
      "type": "function"
    },
    {
      "constant": true,
      "inputs": [
        {
          "internalType": "uint256",
          "name": "",
          "type": "uint256"
        }
      ],
      "name": "ListIDProUser",
      "outputs": [
        {
          "internalType": "uint256",
          "name": "",
          "type": "uint256"
        }
      ],
      "payable": false,
      "stateMutability": "view",
      "type": "function"
    },
    {
      "constant": true,
      "inputs": [],
      "name": "ID_ProUser",
      "outputs": [
        {
          "internalType": "uint256",
          "name": "",
          "type": "uint256"
        }
      ],
      "payable": false,
      "stateMutability": "view",
      "type": "function"
    },
    {
      "constant": true,
      "inputs": [],
      "name": "ID_UserIndice",
      "outputs": [
        {
          "internalType": "uint256",
          "name": "",
          "type": "uint256"
        }
      ],
      "payable": false,
      "stateMutability": "view",
      "type": "function"
    },
    {
      "constant": true,
      "inputs": [
        {
          "internalType": "uint256",
          "name": "",
          "type": "uint256"
        }
      ],
      "name": "NumberTicketsProjects",
      "outputs": [
        {
          "internalType": "uint256",
          "name": "",
          "type": "uint256"
        }
      ],
      "payable": false,
      "stateMutability": "view",
      "type": "function"
    },
    {
      "constant": true,
      "inputs": [
        {
          "internalType": "uint256",
          "name": "",
          "type": "uint256"
        },
        {
          "internalType": "uint256",
          "name": "",
          "type": "uint256"
        }
      ],
      "name": "ListeUserTicket",
      "outputs": [
        {
          "internalType": "uint256",
          "name": "ID_Ticket",
          "type": "uint256"
        },
        {
          "internalType": "string",
          "name": "TicketName",
          "type": "string"
        },
        {
          "internalType": "uint256",
          "name": "TicketPrice",
          "type": "uint256"
        },
        {
          "internalType": "string",
          "name": "TicketDescription",
          "type": "string"
        },
        {
          "internalType": "uint256",
          "name": "validity",
          "type": "uint256"
        },
        {
          "internalType": "string",
          "name": "ticketCreator",
          "type": "string"
        },
        {
          "internalType": "string",
          "name": "ticketOwner",
          "type": "string"
        },
        {
          "internalType": "string",
          "name": "options",
          "type": "string"
        }
      ],
      "payable": false,
      "stateMutability": "view",
      "type": "function"
    },
    {
      "constant": true,
      "inputs": [],
      "name": "ID_Ticket",
      "outputs": [
        {
          "internalType": "uint256",
          "name": "",
          "type": "uint256"
        }
      ],
      "payable": false,
      "stateMutability": "view",
      "type": "function"
    },
    {
      "constant": true,
      "inputs": [
        {
          "internalType": "uint256",
          "name": "",
          "type": "uint256"
        }
      ],
      "name": "ListProUser",
      "outputs": [
        {
          "internalType": "uint256",
          "name": "ID_ProUser",
          "type": "uint256"
        },
        {
          "internalType": "string",
          "name": "Companyname",
          "type": "string"
        },
        {
          "internalType": "string",
          "name": "Companyemail",
          "type": "string"
        },
        {
          "internalType": "uint256",
          "name": "Identification",
          "type": "uint256"
        },
        {
          "internalType": "string",
          "name": "CompanyAddress",
          "type": "string"
        },
        {
          "internalType": "string",
          "name": "CompanyArea",
          "type": "string"
        },
        {
          "internalType": "string",
          "name": "CompanyBankAccount",
          "type": "string"
        },
        {
          "internalType": "address",
          "name": "ProWallet",
          "type": "address"
        }
      ],
      "payable": false,
      "stateMutability": "view",
      "type": "function"
    },
    {
      "constant": true,
      "inputs": [
        {
          "internalType": "uint256",
          "name": "",
          "type": "uint256"
        }
      ],
      "name": "ListeRules",
      "outputs": [
        {
          "internalType": "uint256",
          "name": "id_rules",
          "type": "uint256"
        },
        {
          "internalType": "uint256",
          "name": "organizer",
          "type": "uint256"
        },
        {
          "internalType": "uint256",
          "name": "tickets_sale_rev",
          "type": "uint256"
        },
        {
          "internalType": "uint256",
          "name": "total_tickets_sale_rev",
          "type": "uint256"
        },
        {
          "internalType": "string",
          "name": "signed_or",
          "type": "string"
        }
      ],
      "payable": false,
      "stateMutability": "view",
      "type": "function"
    },
    {
      "constant": true,
      "inputs": [
        {
          "internalType": "uint256",
          "name": "",
          "type": "uint256"
        }
      ],
      "name": "ListeIDUser",
      "outputs": [
        {
          "internalType": "uint256",
          "name": "",
          "type": "uint256"
        }
      ],
      "payable": false,
      "stateMutability": "view",
      "type": "function"
    },
    {
      "constant": true,
      "inputs": [
        {
          "internalType": "uint256",
          "name": "",
          "type": "uint256"
        }
      ],
      "name": "NumberProjectUser",
      "outputs": [
        {
          "internalType": "uint256",
          "name": "",
          "type": "uint256"
        }
      ],
      "payable": false,
      "stateMutability": "view",
      "type": "function"
    },
    {
      "constant": true,
      "inputs": [
        {
          "internalType": "uint256",
          "name": "",
          "type": "uint256"
        },
        {
          "internalType": "uint256",
          "name": "",
          "type": "uint256"
        }
      ],
      "name": "ListTicketProject",
      "outputs": [
        {
          "internalType": "uint256",
          "name": "ID_Ticket",
          "type": "uint256"
        },
        {
          "internalType": "string",
          "name": "TicketName",
          "type": "string"
        },
        {
          "internalType": "uint256",
          "name": "TicketPrice",
          "type": "uint256"
        },
        {
          "internalType": "string",
          "name": "TicketDescription",
          "type": "string"
        },
        {
          "internalType": "uint256",
          "name": "validity",
          "type": "uint256"
        },
        {
          "internalType": "string",
          "name": "ticketCreator",
          "type": "string"
        },
        {
          "internalType": "string",
          "name": "ticketOwner",
          "type": "string"
        },
        {
          "internalType": "string",
          "name": "options",
          "type": "string"
        }
      ],
      "payable": false,
      "stateMutability": "view",
      "type": "function"
    },
    {
      "constant": false,
      "inputs": [
        {
          "internalType": "string",
          "name": "Username",
          "type": "string"
        },
        {
          "internalType": "string",
          "name": "email",
          "type": "string"
        },
        {
          "internalType": "string",
          "name": "country",
          "type": "string"
        },
        {
          "internalType": "uint256",
          "name": "posta_Code",
          "type": "uint256"
        },
        {
          "internalType": "address",
          "name": "userWallet",
          "type": "address"
        },
        {
          "internalType": "string",
          "name": "privateKey",
          "type": "string"
        }
      ],
      "name": "CreateUser",
      "outputs": [],
      "payable": false,
      "stateMutability": "nonpayable",
      "type": "function"
    },
    {
      "constant": true,
      "inputs": [
        {
          "internalType": "uint256",
          "name": "id_project",
          "type": "uint256"
        },
        {
          "internalType": "uint256",
          "name": "indice",
          "type": "uint256"
        },
        {
          "internalType": "uint256",
          "name": "id_user",
          "type": "uint256"
        }
      ],
      "name": "RevenuePerCoOr",
      "outputs": [
        {
          "internalType": "bool",
          "name": "",
          "type": "bool"
        }
      ],
      "payable": false,
      "stateMutability": "view",
      "type": "function"
    },
    {
      "constant": true,
      "inputs": [
        {
          "internalType": "uint256",
          "name": "ID_User",
          "type": "uint256"
        }
      ],
      "name": "getUser",
      "outputs": [
        {
          "internalType": "string",
          "name": "",
          "type": "string"
        },
        {
          "internalType": "string",
          "name": "",
          "type": "string"
        },
        {
          "internalType": "string",
          "name": "",
          "type": "string"
        },
        {
          "internalType": "uint256",
          "name": "",
          "type": "uint256"
        },
        {
          "internalType": "address",
          "name": "",
          "type": "address"
        },
        {
          "internalType": "string",
          "name": "",
          "type": "string"
        }
      ],
      "payable": false,
      "stateMutability": "view",
      "type": "function"
    },
    {
      "constant": false,
      "inputs": [
        {
          "internalType": "uint256",
          "name": "ID_User",
          "type": "uint256"
        },
        {
          "internalType": "string",
          "name": "project_name",
          "type": "string"
        },
        {
          "internalType": "string",
          "name": "project_type",
          "type": "string"
        },
        {
          "internalType": "string",
          "name": "localization",
          "type": "string"
        },
        {
          "internalType": "uint256",
          "name": "start_date",
          "type": "uint256"
        },
        {
          "internalType": "uint256",
          "name": "end_date",
          "type": "uint256"
        },
        {
          "internalType": "bool",
          "name": "ongoing_project",
          "type": "bool"
        },
        {
          "internalType": "string",
          "name": "project_description",
          "type": "string"
        },
        {
          "internalType": "string",
          "name": "project_contact_information",
          "type": "string"
        },
        {
          "internalType": "uint256",
          "name": "tickets_total_supply",
          "type": "uint256"
        }
      ],
      "name": "CreateProject",
      "outputs": [],
      "payable": false,
      "stateMutability": "nonpayable",
      "type": "function"
    },
    {
      "constant": true,
      "inputs": [
        {
          "internalType": "uint256",
          "name": "ID_User",
          "type": "uint256"
        },
        {
          "internalType": "uint256",
          "name": "indice",
          "type": "uint256"
        }
      ],
      "name": "getproject",
      "outputs": [
        {
          "internalType": "uint256",
          "name": "",
          "type": "uint256"
        },
        {
          "internalType": "string",
          "name": "",
          "type": "string"
        },
        {
          "internalType": "string",
          "name": "",
          "type": "string"
        },
        {
          "internalType": "uint256",
          "name": "",
          "type": "uint256"
        },
        {
          "internalType": "bool",
          "name": "",
          "type": "bool"
        },
        {
          "internalType": "string",
          "name": "",
          "type": "string"
        }
      ],
      "payable": false,
      "stateMutability": "view",
      "type": "function"
    },
    {
      "constant": false,
      "inputs": [
        {
          "internalType": "uint256",
          "name": "id_project",
          "type": "uint256"
        },
        {
          "internalType": "uint256",
          "name": "organizer",
          "type": "uint256"
        },
        {
          "internalType": "uint256",
          "name": "tickets_sale_rev",
          "type": "uint256"
        },
        {
          "internalType": "uint256",
          "name": "total_tickets_sale_rev",
          "type": "uint256"
        },
        {
          "internalType": "string",
          "name": "signed_or",
          "type": "string"
        }
      ],
      "name": "CreateRules",
      "outputs": [],
      "payable": false,
      "stateMutability": "nonpayable",
      "type": "function"
    },
    {
      "constant": true,
      "inputs": [
        {
          "internalType": "uint256",
          "name": "id_project",
          "type": "uint256"
        }
      ],
      "name": "getRules",
      "outputs": [
        {
          "internalType": "uint256",
          "name": "",
          "type": "uint256"
        },
        {
          "internalType": "uint256",
          "name": "",
          "type": "uint256"
        },
        {
          "internalType": "uint256",
          "name": "",
          "type": "uint256"
        },
        {
          "internalType": "uint256",
          "name": "",
          "type": "uint256"
        },
        {
          "internalType": "string",
          "name": "",
          "type": "string"
        }
      ],
      "payable": false,
      "stateMutability": "view",
      "type": "function"
    },
    {
      "constant": false,
      "inputs": [
        {
          "internalType": "string",
          "name": "_Companyname",
          "type": "string"
        },
        {
          "internalType": "string",
          "name": "_Companyemail",
          "type": "string"
        },
        {
          "internalType": "uint256",
          "name": "_Identification",
          "type": "uint256"
        },
        {
          "internalType": "string",
          "name": "_CompanyAddress",
          "type": "string"
        },
        {
          "internalType": "string",
          "name": "_CompanyArea",
          "type": "string"
        },
        {
          "internalType": "string",
          "name": "_CompanyBankAccount",
          "type": "string"
        },
        {
          "internalType": "address",
          "name": "_ProWallet",
          "type": "address"
        }
      ],
      "name": "addProUser",
      "outputs": [],
      "payable": false,
      "stateMutability": "nonpayable",
      "type": "function"
    },
    {
      "constant": false,
      "inputs": [
        {
          "internalType": "uint256",
          "name": "_ID_User",
          "type": "uint256"
        },
        {
          "internalType": "uint256",
          "name": "_ID_Project",
          "type": "uint256"
        },
        {
          "internalType": "string",
          "name": "_TicketName",
          "type": "string"
        },
        {
          "internalType": "uint256",
          "name": "_TicketPrice",
          "type": "uint256"
        },
        {
          "internalType": "string",
          "name": "_TicketDescription",
          "type": "string"
        },
        {
          "internalType": "uint256",
          "name": "_validity",
          "type": "uint256"
        },
        {
          "internalType": "string",
          "name": "_ticketCreator",
          "type": "string"
        },
        {
          "internalType": "string",
          "name": "_ticketOwner",
          "type": "string"
        },
        {
          "internalType": "string",
          "name": "_options",
          "type": "string"
        }
      ],
      "name": "addTicket",
      "outputs": [],
      "payable": false,
      "stateMutability": "nonpayable",
      "type": "function"
    },
    {
      "constant": true,
      "inputs": [
        {
          "internalType": "uint256",
          "name": "ID_UserPro",
          "type": "uint256"
        }
      ],
      "name": "getUserPro",
      "outputs": [
        {
          "internalType": "string",
          "name": "",
          "type": "string"
        },
        {
          "internalType": "string",
          "name": "",
          "type": "string"
        },
        {
          "internalType": "uint256",
          "name": "",
          "type": "uint256"
        },
        {
          "internalType": "string",
          "name": "",
          "type": "string"
        },
        {
          "internalType": "string",
          "name": "",
          "type": "string"
        },
        {
          "internalType": "string",
          "name": "",
          "type": "string"
        },
        {
          "internalType": "address",
          "name": "",
          "type": "address"
        }
      ],
      "payable": false,
      "stateMutability": "view",
      "type": "function"
    },
    {
      "constant": true,
      "inputs": [
        {
          "internalType": "uint256",
          "name": "ID_User",
          "type": "uint256"
        },
        {
          "internalType": "uint256",
          "name": "indice",
          "type": "uint256"
        }
      ],
      "name": "getTicketUser",
      "outputs": [
        {
          "internalType": "uint256",
          "name": "",
          "type": "uint256"
        },
        {
          "internalType": "string",
          "name": "",
          "type": "string"
        },
        {
          "internalType": "uint256",
          "name": "",
          "type": "uint256"
        },
        {
          "internalType": "string",
          "name": "",
          "type": "string"
        },
        {
          "internalType": "uint256",
          "name": "",
          "type": "uint256"
        },
        {
          "internalType": "string",
          "name": "",
          "type": "string"
        }
      ],
      "payable": false,
      "stateMutability": "view",
      "type": "function"
    },
    {
      "constant": true,
      "inputs": [
        {
          "internalType": "uint256",
          "name": "ID_Project",
          "type": "uint256"
        },
        {
          "internalType": "uint256",
          "name": "indice",
          "type": "uint256"
        }
      ],
      "name": "getTicketProject",
      "outputs": [
        {
          "internalType": "uint256",
          "name": "",
          "type": "uint256"
        },
        {
          "internalType": "string",
          "name": "",
          "type": "string"
        },
        {
          "internalType": "uint256",
          "name": "",
          "type": "uint256"
        },
        {
          "internalType": "string",
          "name": "",
          "type": "string"
        },
        {
          "internalType": "uint256",
          "name": "",
          "type": "uint256"
        },
        {
          "internalType": "string",
          "name": "",
          "type": "string"
        }
      ],
      "payable": false,
      "stateMutability": "view",
      "type": "function"
    },
    {
      "constant": false,
      "inputs": [
        {
          "internalType": "uint256",
          "name": "ID_User",
          "type": "uint256"
        },
        {
          "internalType": "uint256",
          "name": "id_project",
          "type": "uint256"
        },
        {
          "internalType": "uint256",
          "name": "Por_distribution",
          "type": "uint256"
        }
      ],
      "name": "participation",
      "outputs": [],
      "payable": false,
      "stateMutability": "nonpayable",
      "type": "function"
    },
    {
      "constant": true,
      "inputs": [
        {
          "internalType": "uint256",
          "name": "index",
          "type": "uint256"
        },
        {
          "internalType": "uint256",
          "name": "id_project",
          "type": "uint256"
        }
      ],
      "name": "getParticipantByIndex",
      "outputs": [
        {
          "internalType": "uint256",
          "name": "",
          "type": "uint256"
        },
        {
          "internalType": "uint256",
          "name": "",
          "type": "uint256"
        }
      ],
      "payable": false,
      "stateMutability": "view",
      "type": "function"
    },
    {
      "constant": true,
      "inputs": [
        {
          "internalType": "uint256",
          "name": "id_project",
          "type": "uint256"
        }
      ],
      "name": "getLengthPart",
      "outputs": [
        {
          "internalType": "uint256",
          "name": "",
          "type": "uint256"
        }
      ],
      "payable": false,
      "stateMutability": "view",
      "type": "function"
    },
    {
      "constant": true,
      "inputs": [
        {
          "internalType": "uint256",
          "name": "ID_User",
          "type": "uint256"
        }
      ],
      "name": "nbrProjectUser",
      "outputs": [
        {
          "internalType": "uint256",
          "name": "",
          "type": "uint256"
        }
      ],
      "payable": false,
      "stateMutability": "view",
      "type": "function"
    },
    {
      "constant": true,
      "inputs": [
        {
          "internalType": "uint256",
          "name": "id_project",
          "type": "uint256"
        },
        {
          "internalType": "uint256",
          "name": "indice",
          "type": "uint256"
        }
      ],
      "name": "getCoOrganizateur",
      "outputs": [
        {
          "internalType": "uint256",
          "name": "",
          "type": "uint256"
        },
        {
          "internalType": "uint256",
          "name": "",
          "type": "uint256"
        }
      ],
      "payable": false,
      "stateMutability": "view",
      "type": "function"
    },
    {
      "constant": true,
      "inputs": [
        {
          "internalType": "uint256",
          "name": "ID_User",
          "type": "uint256"
        }
      ],
      "name": "nbrTicketUser",
      "outputs": [
        {
          "internalType": "uint256",
          "name": "",
          "type": "uint256"
        }
      ],
      "payable": false,
      "stateMutability": "view",
      "type": "function"
    },
    {
      "constant": true,
      "inputs": [
        {
          "internalType": "uint256",
          "name": "ID_Project",
          "type": "uint256"
        }
      ],
      "name": "nbrTicketProject",
      "outputs": [
        {
          "internalType": "uint256",
          "name": "",
          "type": "uint256"
        }
      ],
      "payable": false,
      "stateMutability": "view",
      "type": "function"
    }
  ],
  "bytecode": "0x60806040526001600c556001600d556001600e556001600f55600160105534801561002957600080fd5b50615da1806200003a6000396000f3fe608060405234801561001057600080fd5b506004361061021b5760003560e01c8063a6d9566611610125578063ceb86451116100ad578063ea21a0391161007c578063ea21a039146124ab578063f266f08c146124ed578063f46bc56d1461282d578063fb6b5d0314612880578063fbb1862014612af65761021b565b8063ceb8645114612143578063d23f934e14612185578063e43637ac146121d8578063e498ef73146124695761021b565b8063b3ab2177116100f4578063b3ab217714611808578063b5b7069414611b54578063bbb6bfae14611dca578063c0a6da3d14611de8578063c845922b146120805761021b565b8063a6d95666146112d9578063ac14198f146112f7578063aefabae7146115a1578063b0467deb146115e35761021b565b80634ce466a5116101a85780638816df1b116101775780638816df1b146110915780638e7cdad0146111745780638f7daf0f146111b65780639e0f0d1914611279578063a3a0758f146112bb5761021b565b80634ce466a514610e515780635db47fc314610e6f5780637e9bb07814610eb15780638282ad2e14610ef35761021b565b80631a47763d116101ef5780631a47763d1461064e5780632046532f1461098f57806323ad9c0e14610b2d5780632a06f7a514610b8757806338de697514610e0f5761021b565b806267dea3146102205780630874ecaa1461044c5780630ac28fa41461048e578063185e0fad14610630575b600080fd5b61024c6004803603602081101561023657600080fd5b8101908080359060200190929190505050612b38565b60405180888152602001806020018060200180602001878152602001806020018673ffffffffffffffffffffffffffffffffffffffff1673ffffffffffffffffffffffffffffffffffffffff16815260200185810385528b818151815260200191508051906020019080838360005b838110156102d65780820151818401526020810190506102bb565b50505050905090810190601f1680156103035780820380516001836020036101000a031916815260200191505b5085810384528a818151815260200191508051906020019080838360005b8381101561033c578082015181840152602081019050610321565b50505050905090810190601f1680156103695780820380516001836020036101000a031916815260200191505b50858103835289818151815260200191508051906020019080838360005b838110156103a2578082015181840152602081019050610387565b50505050905090810190601f1680156103cf5780820380516001836020036101000a031916815260200191505b50858103825287818151815260200191508051906020019080838360005b838110156104085780820151818401526020810190506103ed565b50505050905090810190601f1680156104355780820380516001836020036101000a031916815260200191505b509b50505050505050505050505060405180910390f35b6104786004803603602081101561046257600080fd5b8101908080359060200190929190505050612dfa565b6040518082815260200191505060405180910390f35b6104c4600480360360408110156104a457600080fd5b810190808035906020019092919080359060200190929190505050612e12565b6040518087815260200180602001806020018681526020018515151515815260200180602001848103845289818151815260200191508051906020019080838360005b83811015610522578082015181840152602081019050610507565b50505050905090810190601f16801561054f5780820380516001836020036101000a031916815260200191505b50848103835288818151815260200191508051906020019080838360005b8381101561058857808201518184015260208101905061056d565b50505050905090810190601f1680156105b55780820380516001836020036101000a031916815260200191505b50848103825285818151815260200191508051906020019080838360005b838110156105ee5780820151818401526020810190506105d3565b50505050905090810190601f16801561061b5780820380516001836020036101000a031916815260200191505b50995050505050505050505060405180910390f35b610638613100565b6040518082815260200191505060405180910390f35b61098d600480360360e081101561066457600080fd5b810190808035906020019064010000000081111561068157600080fd5b82018360208201111561069357600080fd5b803590602001918460018302840111640100000000831117156106b557600080fd5b91908080601f016020809104026020016040519081016040528093929190818152602001838380828437600081840152601f19601f8201169050808301925050505050505091929192908035906020019064010000000081111561071857600080fd5b82018360208201111561072a57600080fd5b8035906020019184600183028401116401000000008311171561074c57600080fd5b91908080601f016020809104026020016040519081016040528093929190818152602001838380828437600081840152601f19601f82011690508083019250505050505050919291929080359060200190929190803590602001906401000000008111156107b957600080fd5b8201836020820111156107cb57600080fd5b803590602001918460018302840111640100000000831117156107ed57600080fd5b91908080601f016020809104026020016040519081016040528093929190818152602001838380828437600081840152601f19601f8201169050808301925050505050505091929192908035906020019064010000000081111561085057600080fd5b82018360208201111561086257600080fd5b8035906020019184600183028401116401000000008311171561088457600080fd5b91908080601f016020809104026020016040519081016040528093929190818152602001838380828437600081840152601f19601f820116905080830192505050505050509192919290803590602001906401000000008111156108e757600080fd5b8201836020820111156108f957600080fd5b8035906020019184600183028401116401000000008311171561091b57600080fd5b91908080601f016020809104026020016040519081016040528093929190818152602001838380828437600081840152601f19601f820116905080830192505050505050509192919290803573ffffffffffffffffffffffffffffffffffffffff169060200190929190505050613106565b005b6109c5600480360360408110156109a557600080fd5b8101908080359060200190929190803590602001909291905050506132bb565b60405180878152602001806020018681526020018060200185815260200180602001848103845289818151815260200191508051906020019080838360005b83811015610a1f578082015181840152602081019050610a04565b50505050905090810190601f168015610a4c5780820380516001836020036101000a031916815260200191505b50848103835287818151815260200191508051906020019080838360005b83811015610a85578082015181840152602081019050610a6a565b50505050905090810190601f168015610ab25780820380516001836020036101000a031916815260200191505b50848103825285818151815260200191508051906020019080838360005b83811015610aeb578082015181840152602081019050610ad0565b50505050905090810190601f168015610b185780820380516001836020036101000a031916815260200191505b50995050505050505050505060405180910390f35b610b6d60048036036060811015610b4357600080fd5b8101908080359060200190929190803590602001909291908035906020019092919050505061359e565b604051808215151515815260200191505060405180910390f35b610bbd60048036036040811015610b9d57600080fd5b810190808035906020019092919080359060200190929190505050613603565b604051808b81526020018060200180602001806020018a815260200189815260200188151515158152602001806020018060200187815260200186810386528f818151815260200191508051906020019080838360005b83811015610c2f578082015181840152602081019050610c14565b50505050905090810190601f168015610c5c5780820380516001836020036101000a031916815260200191505b5086810385528e818151815260200191508051906020019080838360005b83811015610c95578082015181840152602081019050610c7a565b50505050905090810190601f168015610cc25780820380516001836020036101000a031916815260200191505b5086810384528d818151815260200191508051906020019080838360005b83811015610cfb578082015181840152602081019050610ce0565b50505050905090810190601f168015610d285780820380516001836020036101000a031916815260200191505b50868103835289818151815260200191508051906020019080838360005b83811015610d61578082015181840152602081019050610d46565b50505050905090810190601f168015610d8e5780820380516001836020036101000a031916815260200191505b50868103825288818151815260200191508051906020019080838360005b83811015610dc7578082015181840152602081019050610dac565b50505050905090810190601f168015610df45780820380516001836020036101000a031916815260200191505b509f5050505050505050505050505050505060405180910390f35b610e4f60048036036060811015610e2557600080fd5b81019080803590602001909291908035906020019092919080359060200190929190505050613969565b005b610e596139da565b6040518082815260200191505060405180910390f35b610e9b60048036036020811015610e8557600080fd5b81019080803590602001909291905050506139e0565b6040518082815260200191505060405180910390f35b610edd60048036036020811015610ec757600080fd5b81019080803590602001909291905050506139fd565b6040518082815260200191505060405180910390f35b610f2960048036036040811015610f0957600080fd5b810190808035906020019092919080359060200190929190505050613a1e565b60405180878152602001806020018681526020018060200185815260200180602001848103845289818151815260200191508051906020019080838360005b83811015610f83578082015181840152602081019050610f68565b50505050905090810190601f168015610fb05780820380516001836020036101000a031916815260200191505b50848103835287818151815260200191508051906020019080838360005b83811015610fe9578082015181840152602081019050610fce565b50505050905090810190601f1680156110165780820380516001836020036101000a031916815260200191505b50848103825285818151815260200191508051906020019080838360005b8381101561104f578082015181840152602081019050611034565b50505050905090810190601f16801561107c5780820380516001836020036101000a031916815260200191505b50995050505050505050505060405180910390f35b611172600480360360a08110156110a757600080fd5b8101908080359060200190929190803590602001909291908035906020019092919080359060200190929190803590602001906401000000008111156110ec57600080fd5b8201836020820111156110fe57600080fd5b8035906020019184600183028401116401000000008311171561112057600080fd5b91908080601f016020809104026020016040519081016040528093929190818152602001838380828437600081840152601f19601f820116905080830192505050505050509192919290505050613d01565b005b6111a06004803603602081101561118a57600080fd5b8101908080359060200190929190505050613de1565b6040518082815260200191505060405180910390f35b6111e2600480360360208110156111cc57600080fd5b8101908080359060200190929190505050613e04565b6040518086815260200185815260200184815260200183815260200180602001828103825283818151815260200191508051906020019080838360005b8381101561123a57808201518184015260208101905061121f565b50505050905090810190601f1680156112675780820380516001836020036101000a031916815260200191505b50965050505050505060405180910390f35b6112a56004803603602081101561128f57600080fd5b8101908080359060200190929190505050613f2d565b6040518082815260200191505060405180910390f35b6112c3613f4e565b6040518082815260200191505060405180910390f35b6112e1613f54565b6040518082815260200191505060405180910390f35b61159f600480360360c081101561130d57600080fd5b810190808035906020019064010000000081111561132a57600080fd5b82018360208201111561133c57600080fd5b8035906020019184600183028401116401000000008311171561135e57600080fd5b91908080601f016020809104026020016040519081016040528093929190818152602001838380828437600081840152601f19601f820116905080830192505050505050509192919290803590602001906401000000008111156113c157600080fd5b8201836020820111156113d357600080fd5b803590602001918460018302840111640100000000831117156113f557600080fd5b91908080601f016020809104026020016040519081016040528093929190818152602001838380828437600081840152601f19601f8201169050808301925050505050505091929192908035906020019064010000000081111561145857600080fd5b82018360208201111561146a57600080fd5b8035906020019184600183028401116401000000008311171561148c57600080fd5b91908080601f016020809104026020016040519081016040528093929190818152602001838380828437600081840152601f19601f82011690508083019250505050505050919291929080359060200190929190803573ffffffffffffffffffffffffffffffffffffffff1690602001909291908035906020019064010000000081111561151957600080fd5b82018360208201111561152b57600080fd5b8035906020019184600183028401116401000000008311171561154d57600080fd5b91908080601f016020809104026020016040519081016040528093929190818152602001838380828437600081840152601f19601f820116905080830192505050505050509192919290505050613f5a565b005b6115cd600480360360208110156115b757600080fd5b81019080803590602001909291905050506140e9565b6040518082815260200191505060405180910390f35b61160f600480360360208110156115f957600080fd5b8101908080359060200190929190505050614101565b604051808060200180602001806020018781526020018673ffffffffffffffffffffffffffffffffffffffff1673ffffffffffffffffffffffffffffffffffffffff1681526020018060200185810385528b818151815260200191508051906020019080838360005b83811015611693578082015181840152602081019050611678565b50505050905090810190601f1680156116c05780820380516001836020036101000a031916815260200191505b5085810384528a818151815260200191508051906020019080838360005b838110156116f95780820151818401526020810190506116de565b50505050905090810190601f1680156117265780820380516001836020036101000a031916815260200191505b50858103835289818151815260200191508051906020019080838360005b8381101561175f578082015181840152602081019050611744565b50505050905090810190601f16801561178c5780820380516001836020036101000a031916815260200191505b50858103825286818151815260200191508051906020019080838360005b838110156117c55780820151818401526020810190506117aa565b50505050905090810190601f1680156117f25780820380516001836020036101000a031916815260200191505b509a505050505050505050505060405180910390f35b611b52600480360361014081101561181f57600080fd5b81019080803590602001909291908035906020019064010000000081111561184657600080fd5b82018360208201111561185857600080fd5b8035906020019184600183028401116401000000008311171561187a57600080fd5b91908080601f016020809104026020016040519081016040528093929190818152602001838380828437600081840152601f19601f820116905080830192505050505050509192919290803590602001906401000000008111156118dd57600080fd5b8201836020820111156118ef57600080fd5b8035906020019184600183028401116401000000008311171561191157600080fd5b91908080601f016020809104026020016040519081016040528093929190818152602001838380828437600081840152601f19601f8201169050808301925050505050505091929192908035906020019064010000000081111561197457600080fd5b82018360208201111561198657600080fd5b803590602001918460018302840111640100000000831117156119a857600080fd5b91908080601f016020809104026020016040519081016040528093929190818152602001838380828437600081840152601f19601f820116905080830192505050505050509192919290803590602001909291908035906020019092919080351515906020019092919080359060200190640100000000811115611a2b57600080fd5b820183602082011115611a3d57600080fd5b80359060200191846001830284011164010000000083111715611a5f57600080fd5b91908080601f016020809104026020016040519081016040528093929190818152602001838380828437600081840152601f19601f82011690508083019250505050505050919291929080359060200190640100000000811115611ac257600080fd5b820183602082011115611ad457600080fd5b80359060200191846001830284011164010000000083111715611af657600080fd5b91908080601f016020809104026020016040519081016040528093929190818152602001838380828437600081840152601f19601f82011690508083019250505050505050919291929080359060200190929190505050614436565b005b611b8a60048036036040811015611b6a57600080fd5b81019080803590602001909291908035906020019092919050505061475d565b60405180898152602001806020018881526020018060200187815260200180602001806020018060200186810386528d818151815260200191508051906020019080838360005b83811015611bec578082015181840152602081019050611bd1565b50505050905090810190601f168015611c195780820380516001836020036101000a031916815260200191505b5086810385528b818151815260200191508051906020019080838360005b83811015611c52578082015181840152602081019050611c37565b50505050905090810190601f168015611c7f5780820380516001836020036101000a031916815260200191505b50868103845289818151815260200191508051906020019080838360005b83811015611cb8578082015181840152602081019050611c9d565b50505050905090810190601f168015611ce55780820380516001836020036101000a031916815260200191505b50868103835288818151815260200191508051906020019080838360005b83811015611d1e578082015181840152602081019050611d03565b50505050905090810190601f168015611d4b5780820380516001836020036101000a031916815260200191505b50868103825287818151815260200191508051906020019080838360005b83811015611d84578082015181840152602081019050611d69565b50505050905090810190601f168015611db15780820380516001836020036101000a031916815260200191505b509d505050505050505050505050505060405180910390f35b611dd2614aaa565b6040518082815260200191505060405180910390f35b611e1460048036036020811015611dfe57600080fd5b8101908080359060200190929190505050614ab0565b6040518089815260200180602001806020018881526020018060200180602001806020018773ffffffffffffffffffffffffffffffffffffffff1673ffffffffffffffffffffffffffffffffffffffff16815260200186810386528d818151815260200191508051906020019080838360005b83811015611ea2578082015181840152602081019050611e87565b50505050905090810190601f168015611ecf5780820380516001836020036101000a031916815260200191505b5086810385528c818151815260200191508051906020019080838360005b83811015611f08578082015181840152602081019050611eed565b50505050905090810190601f168015611f355780820380516001836020036101000a031916815260200191505b5086810384528a818151815260200191508051906020019080838360005b83811015611f6e578082015181840152602081019050611f53565b50505050905090810190601f168015611f9b5780820380516001836020036101000a031916815260200191505b50868103835289818151815260200191508051906020019080838360005b83811015611fd4578082015181840152602081019050611fb9565b50505050905090810190601f1680156120015780820380516001836020036101000a031916815260200191505b50868103825288818151815260200191508051906020019080838360005b8381101561203a57808201518184015260208101905061201f565b50505050905090810190601f1680156120675780820380516001836020036101000a031916815260200191505b509d505050505050505050505050505060405180910390f35b6120ac6004803603602081101561209657600080fd5b8101908080359060200190929190505050614e10565b6040518086815260200185815260200184815260200183815260200180602001828103825283818151815260200191508051906020019080838360005b838110156121045780820151818401526020810190506120e9565b50505050905090810190601f1680156121315780820380516001836020036101000a031916815260200191505b50965050505050505060405180910390f35b61216f6004803603602081101561215957600080fd5b8101908080359060200190929190505050614ede565b6040518082815260200191505060405180910390f35b6121bb6004803603604081101561219b57600080fd5b810190808035906020019092919080359060200190929190505050614eff565b604051808381526020018281526020019250505060405180910390f35b612204600480360360208110156121ee57600080fd5b8101908080359060200190929190505050614f67565b6040518080602001806020018881526020018060200180602001806020018773ffffffffffffffffffffffffffffffffffffffff1673ffffffffffffffffffffffffffffffffffffffff16815260200186810386528d818151815260200191508051906020019080838360005b8381101561228c578082015181840152602081019050612271565b50505050905090810190601f1680156122b95780820380516001836020036101000a031916815260200191505b5086810385528c818151815260200191508051906020019080838360005b838110156122f25780820151818401526020810190506122d7565b50505050905090810190601f16801561231f5780820380516001836020036101000a031916815260200191505b5086810384528a818151815260200191508051906020019080838360005b8381101561235857808201518184015260208101905061233d565b50505050905090810190601f1680156123855780820380516001836020036101000a031916815260200191505b50868103835289818151815260200191508051906020019080838360005b838110156123be5780820151818401526020810190506123a3565b50505050905090810190601f1680156123eb5780820380516001836020036101000a031916815260200191505b50868103825288818151815260200191508051906020019080838360005b83811015612424578082015181840152602081019050612409565b50505050905090810190601f1680156124515780820380516001836020036101000a031916815260200191505b509c5050505050505050505050505060405180910390f35b6124956004803603602081101561247f57600080fd5b810190808035906020019092919050505061534d565b6040518082815260200191505060405180910390f35b6124d7600480360360208110156124c157600080fd5b8101908080359060200190929190505050615365565b6040518082815260200191505060405180910390f35b61282b600480360361012081101561250457600080fd5b8101908080359060200190929190803590602001909291908035906020019064010000000081111561253557600080fd5b82018360208201111561254757600080fd5b8035906020019184600183028401116401000000008311171561256957600080fd5b91908080601f016020809104026020016040519081016040528093929190818152602001838380828437600081840152601f19601f82011690508083019250505050505050919291929080359060200190929190803590602001906401000000008111156125d657600080fd5b8201836020820111156125e857600080fd5b8035906020019184600183028401116401000000008311171561260a57600080fd5b91908080601f016020809104026020016040519081016040528093929190818152602001838380828437600081840152601f19601f820116905080830192505050505050509192919290803590602001909291908035906020019064010000000081111561267757600080fd5b82018360208201111561268957600080fd5b803590602001918460018302840111640100000000831117156126ab57600080fd5b91908080601f016020809104026020016040519081016040528093929190818152602001838380828437600081840152601f19601f8201169050808301925050505050505091929192908035906020019064010000000081111561270e57600080fd5b82018360208201111561272057600080fd5b8035906020019184600183028401116401000000008311171561274257600080fd5b91908080601f016020809104026020016040519081016040528093929190818152602001838380828437600081840152601f19601f820116905080830192505050505050509192919290803590602001906401000000008111156127a557600080fd5b8201836020820111156127b757600080fd5b803590602001918460018302840111640100000000831117156127d957600080fd5b91908080601f016020809104026020016040519081016040528093929190818152602001838380828437600081840152601f19601f820116905080830192505050505050509192919290505050615382565b005b6128636004803603604081101561284357600080fd5b8101908080359060200190929190803590602001909291905050506158f5565b604051808381526020018281526020019250505060405180910390f35b6128b66004803603604081101561289657600080fd5b81019080803590602001909291908035906020019092919050505061595d565b60405180898152602001806020018881526020018060200187815260200180602001806020018060200186810386528d818151815260200191508051906020019080838360005b838110156129185780820151818401526020810190506128fd565b50505050905090810190601f1680156129455780820380516001836020036101000a031916815260200191505b5086810385528b818151815260200191508051906020019080838360005b8381101561297e578082015181840152602081019050612963565b50505050905090810190601f1680156129ab5780820380516001836020036101000a031916815260200191505b50868103845289818151815260200191508051906020019080838360005b838110156129e45780820151818401526020810190506129c9565b50505050905090810190601f168015612a115780820380516001836020036101000a031916815260200191505b50868103835288818151815260200191508051906020019080838360005b83811015612a4a578082015181840152602081019050612a2f565b50505050905090810190601f168015612a775780820380516001836020036101000a031916815260200191505b50868103825287818151815260200191508051906020019080838360005b83811015612ab0578082015181840152602081019050612a95565b50505050905090810190601f168015612add5780820380516001836020036101000a031916815260200191505b509d505050505050505050505050505060405180910390f35b612b2260048036036020811015612b0c57600080fd5b8101908080359060200190929190505050615caa565b6040518082815260200191505060405180910390f35b6002602052806000526040600020600091509050806000015490806001018054600181600116156101000203166002900480601f016020809104026020016040519081016040528092919081815260200182805460018160011615610100020316600290048015612bea5780601f10612bbf57610100808354040283529160200191612bea565b820191906000526020600020905b815481529060010190602001808311612bcd57829003601f168201915b505050505090806002018054600181600116156101000203166002900480601f016020809104026020016040519081016040528092919081815260200182805460018160011615610100020316600290048015612c885780601f10612c5d57610100808354040283529160200191612c88565b820191906000526020600020905b815481529060010190602001808311612c6b57829003601f168201915b505050505090806003018054600181600116156101000203166002900480601f016020809104026020016040519081016040528092919081815260200182805460018160011615610100020316600290048015612d265780601f10612cfb57610100808354040283529160200191612d26565b820191906000526020600020905b815481529060010190602001808311612d0957829003601f168201915b505050505090806004015490806005018054600181600116156101000203166002900480601f016020809104026020016040519081016040528092919081815260200182805460018160011615610100020316600290048015612dca5780601f10612d9f57610100808354040283529160200191612dca565b820191906000526020600020905b815481529060010190602001808311612dad57829003601f168201915b5050505050908060060160009054906101000a900473ffffffffffffffffffffffffffffffffffffffff16905087565b60076020528060005260406000206000915090505481565b6000606080600080606060046000898152602001908152602001600020600088815260200190815260200160002060000154600460008a81526020019081526020016000206000898152602001908152602001600020600101600460008b815260200190815260200160002060008a8152602001908152602001600020600201600460008c815260200190815260200160002060008b815260200190815260200160002060040154600460008d815260200190815260200160002060008c815260200190815260200160002060060160009054906101000a900460ff16600460008e815260200190815260200160002060008d8152602001908152602001600020600701848054600181600116156101000203166002900480601f016020809104026020016040519081016040528092919081815260200182805460018160011615610100020316600290048015612fab5780601f10612f8057610100808354040283529160200191612fab565b820191906000526020600020905b815481529060010190602001808311612f8e57829003601f168201915b50505050509450838054600181600116156101000203166002900480601f0160208091040260200160405190810160405280929190818152602001828054600181600116156101000203166002900480156130475780601f1061301c57610100808354040283529160200191613047565b820191906000526020600020905b81548152906001019060200180831161302a57829003601f168201915b50505050509350808054600181600116156101000203166002900480601f0160208091040260200160405190810160405280929190818152602001828054600181600116156101000203166002900480156130e35780601f106130b8576101008083540402835291602001916130e3565b820191906000526020600020905b8154815290600101906020018083116130c657829003601f168201915b505050505090509550955095509550955095509295509295509295565b600e5481565b600f54600080600f5481526020019081526020016000206000018190555086600080600f548152602001908152602001600020600101908051906020019061314f929190615cc7565b5085600080600f548152602001908152602001600020600201908051906020019061317b929190615cc7565b5084600080600f5481526020019081526020016000206003018190555083600080600f54815260200190815260200160002060040190805190602001906131c3929190615cc7565b5082600080600f54815260200190815260200160002060050190805190602001906131ef929190615cc7565b5081600080600f548152602001908152602001600020600601908051906020019061321b929190615cc7565b5080600080600f54815260200190815260200160002060070160006101000a81548173ffffffffffffffffffffffffffffffffffffffff021916908373ffffffffffffffffffffffffffffffffffffffff1602179055506001600f549080600181540180825580915050906001820390600052602060002001600090919290919091505550600f6000815480929190600101919050555050505050505050565b60006060600060606000606060086000898152602001908152602001600020600088815260200190815260200160002060000154600860008a81526020019081526020016000206000898152602001908152602001600020600101600860008b815260200190815260200160002060008a815260200190815260200160002060020154600860008c815260200190815260200160002060008b8152602001908152602001600020600301600860008d815260200190815260200160002060008c815260200190815260200160002060040154600860008e815260200190815260200160002060008d8152602001908152602001600020600501848054600181600116156101000203166002900480601f0160208091040260200160405190810160405280929190818152602001828054600181600116156101000203166002900480156134495780601f1061341e57610100808354040283529160200191613449565b820191906000526020600020905b81548152906001019060200180831161342c57829003601f168201915b50505050509450828054600181600116156101000203166002900480601f0160208091040260200160405190810160405280929190818152602001828054600181600116156101000203166002900480156134e55780601f106134ba576101008083540402835291602001916134e5565b820191906000526020600020905b8154815290600101906020018083116134c857829003601f168201915b50505050509250808054600181600116156101000203166002900480601f0160208091040260200160405190810160405280929190818152602001828054600181600116156101000203166002900480156135815780601f1061355657610100808354040283529160200191613581565b820191906000526020600020905b81548152906001019060200180831161356457829003601f168201915b505050505090509550955095509550955095509295509295509295565b6000806004600084815260200190815260200160002060008581526020019081526020016000206009015490506000600960008781526020019081526020016000205490508082116135f5576001925050506135fc565b6000925050505b9392505050565b600460205281600052604060002060205280600052604060002060009150915050806000015490806001018054600181600116156101000203166002900480601f0160208091040260200160405190810160405280929190818152602001828054600181600116156101000203166002900480156136c25780601f10613697576101008083540402835291602001916136c2565b820191906000526020600020905b8154815290600101906020018083116136a557829003601f168201915b505050505090806002018054600181600116156101000203166002900480601f0160208091040260200160405190810160405280929190818152602001828054600181600116156101000203166002900480156137605780601f1061373557610100808354040283529160200191613760565b820191906000526020600020905b81548152906001019060200180831161374357829003601f168201915b505050505090806003018054600181600116156101000203166002900480601f0160208091040260200160405190810160405280929190818152602001828054600181600116156101000203166002900480156137fe5780601f106137d3576101008083540402835291602001916137fe565b820191906000526020600020905b8154815290600101906020018083116137e157829003601f168201915b5050505050908060040154908060050154908060060160009054906101000a900460ff1690806007018054600181600116156101000203166002900480601f0160208091040260200160405190810160405280929190818152602001828054600181600116156101000203166002900480156138bb5780601f10613890576101008083540402835291602001916138bb565b820191906000526020600020905b81548152906001019060200180831161389e57829003601f168201915b505050505090806008018054600181600116156101000203166002900480601f0160208091040260200160405190810160405280929190818152602001828054600181600116156101000203166002900480156139595780601f1061392e57610100808354040283529160200191613959565b820191906000526020600020905b81548152906001019060200180831161393c57829003601f168201915b505050505090806009015490508a565b80600a6000848152602001908152602001600020600201600085815260200190815260200160002081905550600a6000838152602001908152602001600020600301839080600181540180825580915050906001820390600052602060002001600090919290919091505550505050565b600d5481565b600060056000838152602001908152602001600020549050919050565b600b8181548110613a0a57fe5b906000526020600020016000915090505481565b60006060600060606000606060066000898152602001908152602001600020600088815260200190815260200160002060000154600660008a81526020019081526020016000206000898152602001908152602001600020600101600660008b815260200190815260200160002060008a815260200190815260200160002060020154600660008c815260200190815260200160002060008b8152602001908152602001600020600301600660008d815260200190815260200160002060008c815260200190815260200160002060040154600660008e815260200190815260200160002060008d8152602001908152602001600020600501848054600181600116156101000203166002900480601f016020809104026020016040519081016040528092919081815260200182805460018160011615610100020316600290048015613bac5780601f10613b8157610100808354040283529160200191613bac565b820191906000526020600020905b815481529060010190602001808311613b8f57829003601f168201915b50505050509450828054600181600116156101000203166002900480601f016020809104026020016040519081016040528092919081815260200182805460018160011615610100020316600290048015613c485780601f10613c1d57610100808354040283529160200191613c48565b820191906000526020600020905b815481529060010190602001808311613c2b57829003601f168201915b50505050509250808054600181600116156101000203166002900480601f016020809104026020016040519081016040528092919081815260200182805460018160011615610100020316600290048015613ce45780601f10613cb957610100808354040283529160200191613ce4565b820191906000526020600020905b815481529060010190602001808311613cc757829003601f168201915b505050505090509550955095509550955095509295509295509295565b600e54600a60008781526020019081526020016000206000018190555083600a60008781526020019081526020016000206001018190555082600a60008781526020019081526020016000206004018190555081600a60008781526020019081526020016000206005018190555080600a60008781526020019081526020016000206006019080519060200190613d99929190615cc7565b50600b600e549080600181540180825580915050906001820390600052602060002001600090919290919091505550600c600081548092919060010191905055505050505050565b6000600a6000838152602001908152602001600020600301805490509050919050565b6000806000806060600a600087815260200190815260200160002060000154600a600088815260200190815260200160002060010154600a600089815260200190815260200160002060040154600a60008a815260200190815260200160002060050154600a60008b8152602001908152602001600020600601808054600181600116156101000203166002900480601f016020809104026020016040519081016040528092919081815260200182805460018160011615610100020316600290048015613f135780601f10613ee857610100808354040283529160200191613f13565b820191906000526020600020905b815481529060010190602001808311613ef657829003601f168201915b505050505090509450945094509450945091939590929450565b60018181548110613f3a57fe5b906000526020600020016000915090505481565b600f5481565b600c5481565b600c5460026000600c548152602001908152602001600020600001819055508560026000600c5481526020019081526020016000206001019080519060200190613fa5929190615cc7565b508460026000600c5481526020019081526020016000206002019080519060200190613fd2929190615cc7565b508360026000600c5481526020019081526020016000206003019080519060200190613fff929190615cc7565b508260026000600c548152602001908152602001600020600401819055508160026000600c54815260200190815260200160002060060160006101000a81548173ffffffffffffffffffffffffffffffffffffffff021916908373ffffffffffffffffffffffffffffffffffffffff1602179055508060026000600c54815260200190815260200160002060050190805190602001906140a0929190615cc7565b506003600c549080600181540180825580915050906001820390600052602060002001600090919290919091505550600c60008154809291906001019190505550505050505050565b60096020528060005260406000206000915090505481565b606080606060008060606002600088815260200190815260200160002060010160026000898152602001908152602001600020600201600260008a8152602001908152602001600020600301600260008b815260200190815260200160002060040154600260008c815260200190815260200160002060060160009054906101000a900473ffffffffffffffffffffffffffffffffffffffff16600260008d8152602001908152602001600020600501858054600181600116156101000203166002900480601f0160208091040260200160405190810160405280929190818152602001828054600181600116156101000203166002900480156142465780601f1061421b57610100808354040283529160200191614246565b820191906000526020600020905b81548152906001019060200180831161422957829003601f168201915b50505050509550848054600181600116156101000203166002900480601f0160208091040260200160405190810160405280929190818152602001828054600181600116156101000203166002900480156142e25780601f106142b7576101008083540402835291602001916142e2565b820191906000526020600020905b8154815290600101906020018083116142c557829003601f168201915b50505050509450838054600181600116156101000203166002900480601f01602080910402602001604051908101604052809291908181526020018280546001816001161561010002031660029004801561437e5780601f106143535761010080835404028352916020019161437e565b820191906000526020600020905b81548152906001019060200180831161436157829003601f168201915b50505050509350808054600181600116156101000203166002900480601f01602080910402602001604051908101604052809291908181526020018280546001816001161561010002031660029004801561441a5780601f106143ef5761010080835404028352916020019161441a565b820191906000526020600020905b8154815290600101906020018083116143fd57829003601f168201915b5050505050905095509550955095509550955091939550919395565b600d54600460008c81526020019081526020016000206000600560008e81526020019081526020016000205481526020019081526020016000206000018190555088600460008c81526020019081526020016000206000600560008e815260200190815260200160002054815260200190815260200160002060010190805190602001906144c5929190615cc7565b5087600460008c81526020019081526020016000206000600560008e81526020019081526020016000205481526020019081526020016000206002019080519060200190614514929190615cc7565b5086600460008c81526020019081526020016000206000600560008e81526020019081526020016000205481526020019081526020016000206003019080519060200190614563929190615cc7565b5085600460008c81526020019081526020016000206000600560008e81526020019081526020016000205481526020019081526020016000206004018190555084600460008c81526020019081526020016000206000600560008e81526020019081526020016000205481526020019081526020016000206005018190555083600460008c81526020019081526020016000206000600560008e815260200190815260200160002054815260200190815260200160002060060160006101000a81548160ff02191690831515021790555082600460008c81526020019081526020016000206000600560008e81526020019081526020016000205481526020019081526020016000206007019080519060200190614682929190615cc7565b5081600460008c81526020019081526020016000206000600560008e815260200190815260200160002054815260200190815260200160002060080190805190602001906146d1929190615cc7565b5080600460008c81526020019081526020016000206000600560008e8152602001908152602001600020548152602001908152602001600020600901819055506001600560008c81526020019081526020016000205401600560008c815260200190815260200160002081905550600d6000815480929190600101919050555050505050505050505050565b600660205281600052604060002060205280600052604060002060009150915050806000015490806001018054600181600116156101000203166002900480601f01602080910402602001604051908101604052809291908181526020018280546001816001161561010002031660029004801561481c5780601f106147f15761010080835404028352916020019161481c565b820191906000526020600020905b8154815290600101906020018083116147ff57829003601f168201915b505050505090806002015490806003018054600181600116156101000203166002900480601f0160208091040260200160405190810160405280929190818152602001828054600181600116156101000203166002900480156148c05780601f10614895576101008083540402835291602001916148c0565b820191906000526020600020905b8154815290600101906020018083116148a357829003601f168201915b505050505090806004015490806005018054600181600116156101000203166002900480601f0160208091040260200160405190810160405280929190818152602001828054600181600116156101000203166002900480156149645780601f1061493957610100808354040283529160200191614964565b820191906000526020600020905b81548152906001019060200180831161494757829003601f168201915b505050505090806006018054600181600116156101000203166002900480601f016020809104026020016040519081016040528092919081815260200182805460018160011615610100020316600290048015614a025780601f106149d757610100808354040283529160200191614a02565b820191906000526020600020905b8154815290600101906020018083116149e557829003601f168201915b505050505090806007018054600181600116156101000203166002900480601f016020809104026020016040519081016040528092919081815260200182805460018160011615610100020316600290048015614aa05780601f10614a7557610100808354040283529160200191614aa0565b820191906000526020600020905b815481529060010190602001808311614a8357829003601f168201915b5050505050905088565b60105481565b6000602052806000526040600020600091509050806000015490806001018054600181600116156101000203166002900480601f016020809104026020016040519081016040528092919081815260200182805460018160011615610100020316600290048015614b625780601f10614b3757610100808354040283529160200191614b62565b820191906000526020600020905b815481529060010190602001808311614b4557829003601f168201915b505050505090806002018054600181600116156101000203166002900480601f016020809104026020016040519081016040528092919081815260200182805460018160011615610100020316600290048015614c005780601f10614bd557610100808354040283529160200191614c00565b820191906000526020600020905b815481529060010190602001808311614be357829003601f168201915b505050505090806003015490806004018054600181600116156101000203166002900480601f016020809104026020016040519081016040528092919081815260200182805460018160011615610100020316600290048015614ca45780601f10614c7957610100808354040283529160200191614ca4565b820191906000526020600020905b815481529060010190602001808311614c8757829003601f168201915b505050505090806005018054600181600116156101000203166002900480601f016020809104026020016040519081016040528092919081815260200182805460018160011615610100020316600290048015614d425780601f10614d1757610100808354040283529160200191614d42565b820191906000526020600020905b815481529060010190602001808311614d2557829003601f168201915b505050505090806006018054600181600116156101000203166002900480601f016020809104026020016040519081016040528092919081815260200182805460018160011615610100020316600290048015614de05780601f10614db557610100808354040283529160200191614de0565b820191906000526020600020905b815481529060010190602001808311614dc357829003601f168201915b5050505050908060070160009054906101000a900473ffffffffffffffffffffffffffffffffffffffff16905088565b600a602052806000526040600020600091509050806000015490806001015490806004015490806005015490806006018054600181600116156101000203166002900480601f016020809104026020016040519081016040528092919081815260200182805460018160011615610100020316600290048015614ed45780601f10614ea957610100808354040283529160200191614ed4565b820191906000526020600020905b815481529060010190602001808311614eb757829003601f168201915b5050505050905085565b60038181548110614eeb57fe5b906000526020600020016000915090505481565b6000806000600a60008681526020019081526020016000206003018481548110614f2557fe5b9060005260206000200154905080600a600087815260200190815260200160002060020160008381526020019081526020016000205492509250509250929050565b6060806000606080606060008060008981526020019081526020016000206001016000808a81526020019081526020016000206002016000808b8152602001908152602001600020600301546000808c81526020019081526020016000206004016000808d81526020019081526020016000206005016000808e81526020019081526020016000206006016000808f815260200190815260200160002060070160009054906101000a900473ffffffffffffffffffffffffffffffffffffffff16868054600181600116156101000203166002900480601f0160208091040260200160405190810160405280929190818152602001828054600181600116156101000203166002900480156150bd5780601f10615092576101008083540402835291602001916150bd565b820191906000526020600020905b8154815290600101906020018083116150a057829003601f168201915b50505050509650858054600181600116156101000203166002900480601f0160208091040260200160405190810160405280929190818152602001828054600181600116156101000203166002900480156151595780601f1061512e57610100808354040283529160200191615159565b820191906000526020600020905b81548152906001019060200180831161513c57829003601f168201915b50505050509550838054600181600116156101000203166002900480601f0160208091040260200160405190810160405280929190818152602001828054600181600116156101000203166002900480156151f55780601f106151ca576101008083540402835291602001916151f5565b820191906000526020600020905b8154815290600101906020018083116151d857829003601f168201915b50505050509350828054600181600116156101000203166002900480601f0160208091040260200160405190810160405280929190818152602001828054600181600116156101000203166002900480156152915780601f1061526657610100808354040283529160200191615291565b820191906000526020600020905b81548152906001019060200180831161527457829003601f168201915b50505050509250818054600181600116156101000203166002900480601f01602080910402602001604051908101604052809291908181526020018280546001816001161561010002031660029004801561532d5780601f106153025761010080835404028352916020019161532d565b820191906000526020600020905b81548152906001019060200180831161531057829003601f168201915b505050505091509650965096509650965096509650919395979092949650565b60056020528060005260406000206000915090505481565b600060096000838152602001908152602001600020549050919050565b6000600460008b81526020019081526020016000206000600760008d81526020019081526020016000205481526020019081526020016000206009015490506000600960008b8152602001908152602001600020549050808210156153e657600080fd5b601054600660008d81526020019081526020016000206000600760008f81526020019081526020016000205481526020019081526020016000206000018190555088600660008d81526020019081526020016000206000600760008f81526020019081526020016000205481526020019081526020016000206001019080519060200190615475929190615cc7565b5087600660008d81526020019081526020016000206000600760008f81526020019081526020016000205481526020019081526020016000206002018190555086600660008d81526020019081526020016000206000600760008f81526020019081526020016000205481526020019081526020016000206003019080519060200190615503929190615cc7565b5085600660008d81526020019081526020016000206000600760008f81526020019081526020016000205481526020019081526020016000206004018190555084600660008d81526020019081526020016000206000600760008f81526020019081526020016000205481526020019081526020016000206005019080519060200190615591929190615cc7565b5083600660008d81526020019081526020016000206000600760008f815260200190815260200160002054815260200190815260200160002060060190805190602001906155e0929190615cc7565b5082600660008d81526020019081526020016000206000600760008f8152602001908152602001600020548152602001908152602001600020600701908051906020019061562f929190615cc7565b506001600760008d81526020019081526020016000205401600760008d815260200190815260200160002081905550601054600860008c81526020019081526020016000206000600960008e81526020019081526020016000205481526020019081526020016000206000018190555088600860008c81526020019081526020016000206000600960008e815260200190815260200160002054815260200190815260200160002060010190805190602001906156ed929190615cc7565b5087600860008c81526020019081526020016000206000600960008e81526020019081526020016000205481526020019081526020016000206002018190555086600860008c81526020019081526020016000206000600960008e8152602001908152602001600020548152602001908152602001600020600301908051906020019061577b929190615cc7565b5085600860008c81526020019081526020016000206000600960008e81526020019081526020016000205481526020019081526020016000206004018190555084600860008c81526020019081526020016000206000600960008e81526020019081526020016000205481526020019081526020016000206005019080519060200190615809929190615cc7565b5083600860008c81526020019081526020016000206000600960008e81526020019081526020016000205481526020019081526020016000206006019080519060200190615858929190615cc7565b5082600860008c81526020019081526020016000206000600960008e815260200190815260200160002054815260200190815260200160002060070190805190602001906158a7929190615cc7565b506001600960008c81526020019081526020016000205401600960008c8152602001908152602001600020819055506010600081548092919060010191905055505050505050505050505050565b6000806000600a6000858152602001908152602001600020600301858154811061591b57fe5b9060005260206000200154905080600a600086815260200190815260200160002060020160008381526020019081526020016000205492509250509250929050565b600860205281600052604060002060205280600052604060002060009150915050806000015490806001018054600181600116156101000203166002900480601f016020809104026020016040519081016040528092919081815260200182805460018160011615610100020316600290048015615a1c5780601f106159f157610100808354040283529160200191615a1c565b820191906000526020600020905b8154815290600101906020018083116159ff57829003601f168201915b505050505090806002015490806003018054600181600116156101000203166002900480601f016020809104026020016040519081016040528092919081815260200182805460018160011615610100020316600290048015615ac05780601f10615a9557610100808354040283529160200191615ac0565b820191906000526020600020905b815481529060010190602001808311615aa357829003601f168201915b505050505090806004015490806005018054600181600116156101000203166002900480601f016020809104026020016040519081016040528092919081815260200182805460018160011615610100020316600290048015615b645780601f10615b3957610100808354040283529160200191615b64565b820191906000526020600020905b815481529060010190602001808311615b4757829003601f168201915b505050505090806006018054600181600116156101000203166002900480601f016020809104026020016040519081016040528092919081815260200182805460018160011615610100020316600290048015615c025780601f10615bd757610100808354040283529160200191615c02565b820191906000526020600020905b815481529060010190602001808311615be557829003601f168201915b505050505090806007018054600181600116156101000203166002900480601f016020809104026020016040519081016040528092919081815260200182805460018160011615610100020316600290048015615ca05780601f10615c7557610100808354040283529160200191615ca0565b820191906000526020600020905b815481529060010190602001808311615c8357829003601f168201915b5050505050905088565b600060076000838152602001908152602001600020549050919050565b828054600181600116156101000203166002900490600052602060002090601f016020900481019282601f10615d0857805160ff1916838001178555615d36565b82800160010185558215615d36579182015b82811115615d35578251825591602001919060010190615d1a565b5b509050615d439190615d47565b5090565b615d6991905b80821115615d65576000816000905550600101615d4d565b5090565b9056fea265627a7a72315820f1ae55750445251ccacaf63eef43a85e1c56d117c96b5ea73d77ad87492700ec64736f6c634300050b0032",
  "source": "pragma solidity 0.5.11;\n\n contract devent {\n     \n         struct rules {\n         uint id_rules;\n         uint organizer;\n         mapping(uint => uint)  coorganisateur_Dist;\n         uint[]  Listecoorganisateur;\n  \n         uint tickets_sale_rev;\n         uint256 total_tickets_sale_rev;\n         string signed_or;\n     }\n\n  \n     \n    struct ProUser {\n         uint ID_ProUser;\n        string Companyname;\n        string Companyemail;\n        uint256  Identification;\n        string CompanyAddress;\n        string  CompanyArea;\n        string CompanyBankAccount;\n    //    string password;\n        address ProWallet;\n     }\n    \n     struct project {\n         uint id_project; \n         string  project_name;\n         string  project_type;\n         string  localization;\n         uint256 start_date;\n         uint256 end_date;\n         bool ongoing_project;\n         string project_description;\n         string project_contact_information;\n         uint tickets_total_supply;\n     }\n    \n     struct User {\n        uint ID_User;\n        string Username;\n        string email;\n        string  country;\n        uint posta_Code;\n       // string preferences;\n        string privateKey;\n     //   string password;\n        address userWallet;\n       \n     }\n    \n     struct Ticket {\n        uint ID_Ticket;\n        string TicketName;\n        uint TicketPrice ;\n        string TicketDescription;\n        uint256 validity ;\n        string ticketCreator ;\n        string ticketOwner ;\n        string options ;\n        \n     }\n     \nmapping(uint => ProUser) public ListProUser;\n\n        uint[] public ListIDProUser;\n     \n    mapping (uint => User)  public ListeUser ;\n\n     uint[] public ListeIDUser ; \n     \n     \n    mapping (uint => mapping (uint => project)) public ListeProjectUser;\n\n     mapping (uint => uint) public NumberProjectUser ;\n     \n     \n     \n     mapping (uint => mapping (uint => Ticket)) public ListeUserTicket;\n\n     mapping (uint => uint)  public NumberTickettUser ;\n     \n     \n    mapping(uint=> mapping(uint => Ticket)) public ListTicketProject;\n     \n     mapping(uint => uint) public NumberTicketsProjects;\n     \n     \n     mapping (uint => rules) public ListeRules ;\n      \n    uint[] public ListIDRules;\n    \n \n         uint256 public ID_UserIndice = 1;\n\n    \n    function CreateUser (\n        string memory Username,\n        string memory email,\n        string  memory country,\n        uint posta_Code,\n       // string memory preferences,\n      //  string memory password,\n        address userWallet,\n        string memory privateKey) public {\n        ListeUser[ID_UserIndice].ID_User = ID_UserIndice;\n        ListeUser[ID_UserIndice].Username = Username;\n        ListeUser[ID_UserIndice].email = email;\n        ListeUser[ID_UserIndice].country = country;\n        ListeUser[ID_UserIndice].posta_Code = posta_Code;\n       // ListeUser[ID_UserIndice].preferences = preferences;\n        //ListeUser[ID_UserIndice].password = password;\n        ListeUser[ID_UserIndice].userWallet = userWallet;\n        ListeUser[ID_UserIndice].privateKey = privateKey;\n        ListeIDUser.push(ID_UserIndice) ;\n        ID_UserIndice++;\n        }\n        \n        function RevenuePerCoOr (uint id_project,uint indice, uint id_user) view public returns (bool){\n            uint total_tickets = ListeProjectUser[id_user][indice].tickets_total_supply;\n            uint nbr_tickets_encours = NumberTicketsProjects[id_project];\n            if(total_tickets <= nbr_tickets_encours) {\n                return true;\n            }\n            else {\n                return false;\n            }\n            \n        }\n        \n        \n      function  getUser (uint ID_User) view public returns ( string memory ,\n        string memory ,\n        string  memory ,\n        uint ,\n       // string memory,\n        //string memory ,\n        address,\n        string  memory\n        ) {\n          return(   \n              ListeUser[ID_User].Username ,\n        ListeUser[ID_User].email,\n        ListeUser[ID_User].country ,\n        ListeUser[ID_User].posta_Code ,\n       // ListeUser[ID_User].preferences,\n        //ListeUser[ID_User].password ,\n        ListeUser[ID_User].userWallet,\n              ListeUser[ID_User].privateKey\n  );\n      }\n      \n        \n      /*      function CreateProject (\n            \n         uint ID_User,\n         string memory project_name,\n         string memory project_type,\n         string memory localization,\n         uint start_date,\n         uint end_date,\n         bool ongoing_project,\n         string memory project_description,\n         string memory project_contact_information,\n         uint tickets_total_supply) public {\n             ListeProjectUser[ID_User][ProjectIndice].id_project = ProjectIndice;\n             ListeProjectUser[ID_User][ProjectIndice].project_name = project_name;\n             ListeProjectUser[ID_User][ProjectIndice].project_type = project_type;\n             ListeProjectUser[ID_User][ProjectIndice].localization = localization;\n             ListeProjectUser[ID_User][ProjectIndice].start_date = start_date;\n             ListeProjectUser[ID_User][ProjectIndice].end_date = end_date;\n             ListeProjectUser[ID_User][ProjectIndice].ongoing_project = ongoing_project;\n             ListeProjectUser[ID_User][ProjectIndice].project_description = project_description;\n             ListeProjectUser[ID_User][ProjectIndice].project_contact_information = project_contact_information;\n             ListeProjectUser[ID_User][ProjectIndice].tickets_total_supply = tickets_total_supply;\n             NumberProjectUser[ID_User]=ProjectIndice;\n             ProjectIndice++;\n             \n\n        }*/\n      uint256 public ProjectIndice = 1;\n             function CreateProject (\n            \n         uint ID_User,\n         string memory project_name,\n         string memory project_type,\n         string memory localization,\n         uint start_date,\n         uint end_date,\n         bool ongoing_project,\n         string memory project_description,\n         string memory project_contact_information,\n         uint tickets_total_supply) public {\n             ListeProjectUser[ID_User][ NumberProjectUser[ID_User]].id_project = ProjectIndice;\n             ListeProjectUser[ID_User][ NumberProjectUser[ID_User]].project_name = project_name;\n             ListeProjectUser[ID_User][ NumberProjectUser[ID_User]].project_type = project_type;\n             ListeProjectUser[ID_User][ NumberProjectUser[ID_User]].localization = localization;\n             ListeProjectUser[ID_User][ NumberProjectUser[ID_User]].start_date = start_date;\n             ListeProjectUser[ID_User][ NumberProjectUser[ID_User]].end_date = end_date;\n             ListeProjectUser[ID_User][ NumberProjectUser[ID_User]].ongoing_project = ongoing_project;\n             ListeProjectUser[ID_User][ NumberProjectUser[ID_User]].project_description = project_description;\n             ListeProjectUser[ID_User][ NumberProjectUser[ID_User]].project_contact_information = project_contact_information;\n             ListeProjectUser[ID_User][ NumberProjectUser[ID_User]].tickets_total_supply = tickets_total_supply;\n             NumberProjectUser[ID_User]= NumberProjectUser[ID_User]+1;\n             ProjectIndice++;\n             \n\n \n\n        }\n        \n        function  getproject (uint ID_User , uint indice) view public returns ( \n     uint,\n         string memory ,\n         string memory ,\n      //   string memory ,\n         uint ,\n        // uint ,\n         bool ,\n         string memory \n         ) {\n          return(  \n               ListeProjectUser[ID_User][indice].id_project,\n             ListeProjectUser[ID_User][indice].project_name ,\n             ListeProjectUser[ID_User][indice].project_type ,\n          //   ListeProjectUser[ID_User][ProjectIndice].localization ,\n             ListeProjectUser[ID_User][indice].start_date,\n           //  ListeProjectUser[ID_User][indice].end_date,\n             ListeProjectUser[ID_User][indice].ongoing_project ,\n             ListeProjectUser[ID_User][indice].project_description \n           );\n      }\n        \n                uint256 public rulesIndice = 1;\n\n           \n    function CreateRules ( uint id_project, uint organizer, uint tickets_sale_rev, uint256 total_tickets_sale_rev, string memory signed_or) public\n    {\n        ListeRules[id_project].id_rules = rulesIndice;\n        ListeRules[id_project].organizer = organizer;\n        ListeRules[id_project].tickets_sale_rev = tickets_sale_rev;\n        ListeRules[id_project].total_tickets_sale_rev = total_tickets_sale_rev;\n        ListeRules[id_project].signed_or = signed_or;\n\n        ListIDRules.push(rulesIndice) ;\n        ID_UserIndice++;\n        }\n        \n        \n            function  getRules (uint id_project) view public returns ( \n         uint ,\n         uint ,\n         uint ,\n         uint256 ,\n         string memory ) {\n          return(   \n             ListeRules[id_project].id_rules,\n        ListeRules[id_project].organizer,\n        ListeRules[id_project].tickets_sale_rev ,\n        ListeRules[id_project].total_tickets_sale_rev ,\n        ListeRules[id_project].signed_or);\n      }\n      \n       uint public ID_ProUser = 1;\n\n     function addProUser(\n        string memory _Companyname,\n        string memory _Companyemail,\n        uint256  _Identification,\n        string memory _CompanyAddress,\n        string memory  _CompanyArea,\n        string memory _CompanyBankAccount,\n       // string memory _password,\n        address _ProWallet\n    ) public { \n        \n        ListProUser[ID_ProUser].ID_ProUser = ID_ProUser;\n        ListProUser[ID_ProUser].Companyname = _Companyname;\n        ListProUser[ID_ProUser].Companyemail = _Companyemail;\n        ListProUser[ID_ProUser].Identification = _Identification;\n        ListProUser[ID_ProUser].CompanyAddress = _CompanyAddress;\n        ListProUser[ID_ProUser].CompanyArea = _CompanyArea;\n        ListProUser[ID_ProUser].CompanyBankAccount = _CompanyBankAccount;\n       // ListProUser[ID_ProUser].password = _password;\n        ListProUser[ID_ProUser].ProWallet = _ProWallet;\n        \n        ListIDProUser.push(ID_ProUser);\n        \n             ID_ProUser ++;\n        \n    \n    }\n    \n    \n    \n    uint public ID_Ticket = 1;\n    \n      function addTicket(\n      uint _ID_User,\n      uint _ID_Project,\n        string memory _TicketName,\n        uint _TicketPrice ,\n        string memory _TicketDescription,\n        uint256 _validity ,\n        string memory _ticketCreator ,\n        string memory _ticketOwner ,\n        string memory _options \n    ) public { \n        \n         uint total_tickets = ListeProjectUser[_ID_User][NumberTickettUser[_ID_User]].tickets_total_supply;\n            uint nbr_tickets_encours = NumberTicketsProjects[_ID_Project];\n            \n        require(total_tickets >= nbr_tickets_encours);\n        \n        ListeUserTicket[_ID_User][NumberTickettUser[_ID_User]].ID_Ticket = ID_Ticket;\n        ListeUserTicket[_ID_User][NumberTickettUser[_ID_User]].TicketName = _TicketName;\n        ListeUserTicket[_ID_User][NumberTickettUser[_ID_User]].TicketPrice = _TicketPrice;\n        ListeUserTicket[_ID_User][NumberTickettUser[_ID_User]].TicketDescription = _TicketDescription;\n        ListeUserTicket[_ID_User][NumberTickettUser[_ID_User]].validity = _validity;\n        ListeUserTicket[_ID_User][NumberTickettUser[_ID_User]].ticketCreator = _ticketCreator;\n        ListeUserTicket[_ID_User][NumberTickettUser[_ID_User]].ticketOwner = _ticketOwner;\n        ListeUserTicket[_ID_User][NumberTickettUser[_ID_User]].options = _options;\n\n\n        NumberTickettUser[_ID_User] = NumberTickettUser[_ID_User] + 1;\n        \n        ListTicketProject[_ID_Project][NumberTicketsProjects[_ID_Project]].ID_Ticket = ID_Ticket;\n        ListTicketProject[_ID_Project][NumberTicketsProjects[_ID_Project]].TicketName = _TicketName;\n        ListTicketProject[_ID_Project][NumberTicketsProjects[_ID_Project]].TicketPrice = _TicketPrice;\n        ListTicketProject[_ID_Project][NumberTicketsProjects[_ID_Project]].TicketDescription = _TicketDescription;\n        ListTicketProject[_ID_Project][NumberTicketsProjects[_ID_Project]].validity = _validity;\n        ListTicketProject[_ID_Project][NumberTicketsProjects[_ID_Project]].ticketCreator = _ticketCreator;\n        ListTicketProject[_ID_Project][NumberTicketsProjects[_ID_Project]].ticketOwner = _ticketOwner;\n        ListTicketProject[_ID_Project][NumberTicketsProjects[_ID_Project]].options = _options;\n\n        NumberTicketsProjects[_ID_Project] = NumberTicketsProjects[_ID_Project] +1;\n\n        \n        ID_Ticket++;\n  \n    }\n    \n      function  getUserPro (uint ID_UserPro) view public returns ( string memory ,\n        string memory ,\n        uint256 ,\n        string memory ,\n        string memory ,\n        string memory ,\n        address ) {\n          return(   \n        ListProUser[ID_UserPro].Companyname ,\n        ListProUser[ID_UserPro].Companyemail,\n        ListProUser[ID_UserPro].Identification ,\n        ListProUser[ID_UserPro].CompanyAddress ,\n        ListProUser[ID_UserPro].CompanyArea ,\n        ListProUser[ID_UserPro].CompanyBankAccount,\n                ListProUser[ID_UserPro].ProWallet\n\n\n        );\n               \n      }\n\n         function  getTicketUser (uint ID_User, uint indice) view public returns (uint,\n        string memory ,\n        uint ,\n        string memory ,\n        uint256 ,\n        string memory\n      //  string memory \n        ) {\n          return(   \n               ListeUserTicket[ID_User][indice].ID_Ticket,\n         ListeUserTicket[ID_User][indice].TicketName,\n        ListeUserTicket[ID_User][indice].TicketPrice,\n        ListeUserTicket[ID_User][indice].TicketDescription,\n        ListeUserTicket[ID_User][indice].validity,\n        ListeUserTicket[ID_User][indice].ticketCreator\n      //  ListeUserTicket[ID_User][indice].options \n\n        );\n              \n      }\n         function  getTicketProject (uint ID_Project, uint indice) view public returns (uint,\n        string memory ,\n        uint ,\n        string memory ,\n        uint256 ,\n        string memory\n        //string memory \n        ) {\n          return(   \n                ListTicketProject[ID_Project][indice].ID_Ticket,\n         ListTicketProject[ID_Project][indice].TicketName,\n        ListTicketProject[ID_Project][indice].TicketPrice,\n        ListTicketProject[ID_Project][indice].TicketDescription,\n        ListTicketProject[ID_Project][indice].validity,\n        ListTicketProject[ID_Project][indice].ticketCreator\n      //  ListTicketProject[ID_Project][indice].options \n\n        );\n              \n      }\n     \n     \n      function participation (uint ID_User , uint id_project ,uint Por_distribution) public {\n                  ListeRules[id_project].coorganisateur_Dist[ID_User]= Por_distribution;\n                  ListeRules[id_project].Listecoorganisateur.push(ID_User);\n\n \n\n      }\n      \n          function getParticipantByIndex (uint index , uint id_project) view public returns (uint  , uint ){\n          uint ID_User =  ListeRules[id_project].Listecoorganisateur[index] ;\n          return(ID_User,ListeRules[id_project].coorganisateur_Dist[ID_User]);\n          \n      }\n      \n      function getLengthPart ( uint id_project)  view public returns (uint ){\n         return (ListeRules[id_project].Listecoorganisateur.length) ;\n          \n      }\n      \n      \n      function nbrProjectUser(uint ID_User) view public returns(uint)\n      {\n        return  NumberProjectUser[ID_User] ;  \n      }\n      \n      function getCoOrganizateur(uint id_project,uint indice) view public returns(uint, uint)\n      {\n          uint coOrg =ListeRules[id_project].Listecoorganisateur[indice];\n          return(coOrg, ListeRules[id_project].coorganisateur_Dist[coOrg]);\n      }\n      \n      \n       function nbrTicketUser(uint ID_User) view public returns(uint)\n      {\n        return   NumberTickettUser[ID_User] ;  \n      }\n      \n      \n       function nbrTicketProject(uint ID_Project) view public returns(uint)\n      {\n        return   NumberTicketsProjects[ID_Project] ;  \n      }\n     \n }\n \n",
  "sourcePath": "/home/ubuntu/contracts/Devent.sol",
  "compiler": {
    "name": "solc",
    "version": "0.5.11+commit.c082d0b4.Emscripten.clang"
  },
  "schemaVersion": "3.1.0",
  "updatedAt": "2020-05-15T12:44:40.209Z",
  "networkType": "ethereum",
  "devdoc": {
    "methods": {}
  },
  "userdoc": {
    "methods": {}
  }
}