{
  "contractName": "devent",
  "abi": [
    {
      "constant": true,
      "inputs": [
        {
          "internalType": "uint256",
          "name": "",
          "type": "uint256"
        }
      ],
      "name": "ListeUser",
      "outputs": [
        {
          "internalType": "uint256",
          "name": "ID_User",
          "type": "uint256"
        },
        {
          "internalType": "string",
          "name": "Username",
          "type": "string"
        },
        {
          "internalType": "string",
          "name": "email",
          "type": "string"
        },
        {
          "internalType": "string",
          "name": "country",
          "type": "string"
        },
        {
          "internalType": "uint256",
          "name": "posta_Code",
          "type": "uint256"
        },
        {
          "internalType": "string",
          "name": "privateKey",
          "type": "string"
        },
        {
          "internalType": "address",
          "name": "userWallet",
          "type": "address"
        }
      ],
      "payable": false,
      "stateMutability": "view",
      "type": "function"
    },
    {
      "constant": true,
      "inputs": [
        {
          "internalType": "uint256",
          "name": "",
          "type": "uint256"
        }
      ],
      "name": "NumberTickettUser",
      "outputs": [
        {
          "internalType": "uint256",
          "name": "",
          "type": "uint256"
        }
      ],
      "payable": false,
      "stateMutability": "view",
      "type": "function"
    },
    {
      "constant": true,
      "inputs": [],
      "name": "rulesIndice",
      "outputs": [
        {
          "internalType": "uint256",
          "name": "",
          "type": "uint256"
        }
      ],
      "payable": false,
      "stateMutability": "view",
      "type": "function"
    },
    {
      "constant": true,
      "inputs": [
        {
          "internalType": "uint256",
          "name": "",
          "type": "uint256"
        },
        {
          "internalType": "uint256",
          "name": "",
          "type": "uint256"
        }
      ],
      "name": "ListeProjectUser",
      "outputs": [
        {
          "internalType": "uint256",
          "name": "id_project",
          "type": "uint256"
        },
        {
          "internalType": "string",
          "name": "project_name",
          "type": "string"
        },
        {
          "internalType": "string",
          "name": "project_type",
          "type": "string"
        },
        {
          "internalType": "string",
          "name": "localization",
          "type": "string"
        },
        {
          "internalType": "uint256",
          "name": "start_date",
          "type": "uint256"
        },
        {
          "internalType": "uint256",
          "name": "end_date",
          "type": "uint256"
        },
        {
          "internalType": "bool",
          "name": "ongoing_project",
          "type": "bool"
        },
        {
          "internalType": "string",
          "name": "project_description",
          "type": "string"
        },
        {
          "internalType": "string",
          "name": "project_contact_information",
          "type": "string"
        },
        {
          "internalType": "uint256",
          "name": "tickets_total_supply",
          "type": "uint256"
        }
      ],
      "payable": false,
      "stateMutability": "view",
      "type": "function"
    },
    {
      "constant": true,
      "inputs": [],
      "name": "ProjectIndice",
      "outputs": [
        {
          "internalType": "uint256",
          "name": "",
          "type": "uint256"
        }
      ],
      "payable": false,
      "stateMutability": "view",
      "type": "function"
    },
    {
      "constant": true,
      "inputs": [
        {
          "internalType": "uint256",
          "name": "",
          "type": "uint256"
        }
      ],
      "name": "ListIDRules",
      "outputs": [
        {
          "internalType": "uint256",
          "name": "",
          "type": "uint256"
        }
      ],
      "payable": false,
      "stateMutability": "view",
      "type": "function"
    },
    {
      "constant": true,
      "inputs": [
        {
          "internalType": "uint256",
          "name": "",
          "type": "uint256"
        }
      ],
      "name": "ListIDProUser",
      "outputs": [
        {
          "internalType": "uint256",
          "name": "",
          "type": "uint256"
        }
      ],
      "payable": false,
      "stateMutability": "view",
      "type": "function"
    },
    {
      "constant": true,
      "inputs": [],
      "name": "ID_ProUser",
      "outputs": [
        {
          "internalType": "uint256",
          "name": "",
          "type": "uint256"
        }
      ],
      "payable": false,
      "stateMutability": "view",
      "type": "function"
    },
    {
      "constant": true,
      "inputs": [],
      "name": "ID_UserIndice",
      "outputs": [
        {
          "internalType": "uint256",
          "name": "",
          "type": "uint256"
        }
      ],
      "payable": false,
      "stateMutability": "view",
      "type": "function"
    },
    {
      "constant": true,
      "inputs": [
        {
          "internalType": "uint256",
          "name": "",
          "type": "uint256"
        }
      ],
      "name": "NumberTicketsProjects",
      "outputs": [
        {
          "internalType": "uint256",
          "name": "",
          "type": "uint256"
        }
      ],
      "payable": false,
      "stateMutability": "view",
      "type": "function"
    },
    {
      "constant": true,
      "inputs": [
        {
          "internalType": "uint256",
          "name": "",
          "type": "uint256"
        },
        {
          "internalType": "uint256",
          "name": "",
          "type": "uint256"
        }
      ],
      "name": "ListeUserTicket",
      "outputs": [
        {
          "internalType": "uint256",
          "name": "ID_Ticket",
          "type": "uint256"
        },
        {
          "internalType": "string",
          "name": "TicketName",
          "type": "string"
        },
        {
          "internalType": "uint256",
          "name": "TicketPrice",
          "type": "uint256"
        },
        {
          "internalType": "string",
          "name": "TicketDescription",
          "type": "string"
        },
        {
          "internalType": "uint256",
          "name": "validity",
          "type": "uint256"
        },
        {
          "internalType": "string",
          "name": "ticketCreator",
          "type": "string"
        },
        {
          "internalType": "string",
          "name": "ticketOwner",
          "type": "string"
        },
        {
          "internalType": "string",
          "name": "options",
          "type": "string"
        }
      ],
      "payable": false,
      "stateMutability": "view",
      "type": "function"
    },
    {
      "constant": true,
      "inputs": [],
      "name": "ID_Ticket",
      "outputs": [
        {
          "internalType": "uint256",
          "name": "",
          "type": "uint256"
        }
      ],
      "payable": false,
      "stateMutability": "view",
      "type": "function"
    },
    {
      "constant": true,
      "inputs": [
        {
          "internalType": "uint256",
          "name": "",
          "type": "uint256"
        }
      ],
      "name": "ListProUser",
      "outputs": [
        {
          "internalType": "uint256",
          "name": "ID_ProUser",
          "type": "uint256"
        },
        {
          "internalType": "string",
          "name": "Companyname",
          "type": "string"
        },
        {
          "internalType": "string",
          "name": "Companyemail",
          "type": "string"
        },
        {
          "internalType": "uint256",
          "name": "Identification",
          "type": "uint256"
        },
        {
          "internalType": "string",
          "name": "CompanyAddress",
          "type": "string"
        },
        {
          "internalType": "string",
          "name": "CompanyArea",
          "type": "string"
        },
        {
          "internalType": "string",
          "name": "CompanyBankAccount",
          "type": "string"
        },
        {
          "internalType": "address",
          "name": "ProWallet",
          "type": "address"
        }
      ],
      "payable": false,
      "stateMutability": "view",
      "type": "function"
    },
    {
      "constant": true,
      "inputs": [
        {
          "internalType": "uint256",
          "name": "",
          "type": "uint256"
        }
      ],
      "name": "ListeRules",
      "outputs": [
        {
          "internalType": "uint256",
          "name": "id_rules",
          "type": "uint256"
        },
        {
          "internalType": "uint256",
          "name": "organizer",
          "type": "uint256"
        },
        {
          "internalType": "uint256",
          "name": "tickets_sale_rev",
          "type": "uint256"
        },
        {
          "internalType": "uint256",
          "name": "total_tickets_sale_rev",
          "type": "uint256"
        }
      ],
      "payable": false,
      "stateMutability": "view",
      "type": "function"
    },
    {
      "constant": true,
      "inputs": [
        {
          "internalType": "uint256",
          "name": "",
          "type": "uint256"
        }
      ],
      "name": "ListeIDUser",
      "outputs": [
        {
          "internalType": "uint256",
          "name": "",
          "type": "uint256"
        }
      ],
      "payable": false,
      "stateMutability": "view",
      "type": "function"
    },
    {
      "constant": true,
      "inputs": [
        {
          "internalType": "uint256",
          "name": "",
          "type": "uint256"
        }
      ],
      "name": "NumberProjectUser",
      "outputs": [
        {
          "internalType": "uint256",
          "name": "",
          "type": "uint256"
        }
      ],
      "payable": false,
      "stateMutability": "view",
      "type": "function"
    },
    {
      "constant": true,
      "inputs": [
        {
          "internalType": "uint256",
          "name": "",
          "type": "uint256"
        },
        {
          "internalType": "uint256",
          "name": "",
          "type": "uint256"
        }
      ],
      "name": "ListTicketProject",
      "outputs": [
        {
          "internalType": "uint256",
          "name": "ID_Ticket",
          "type": "uint256"
        },
        {
          "internalType": "string",
          "name": "TicketName",
          "type": "string"
        },
        {
          "internalType": "uint256",
          "name": "TicketPrice",
          "type": "uint256"
        },
        {
          "internalType": "string",
          "name": "TicketDescription",
          "type": "string"
        },
        {
          "internalType": "uint256",
          "name": "validity",
          "type": "uint256"
        },
        {
          "internalType": "string",
          "name": "ticketCreator",
          "type": "string"
        },
        {
          "internalType": "string",
          "name": "ticketOwner",
          "type": "string"
        },
        {
          "internalType": "string",
          "name": "options",
          "type": "string"
        }
      ],
      "payable": false,
      "stateMutability": "view",
      "type": "function"
    },
    {
      "constant": false,
      "inputs": [
        {
          "internalType": "string",
          "name": "Username",
          "type": "string"
        },
        {
          "internalType": "string",
          "name": "email",
          "type": "string"
        },
        {
          "internalType": "string",
          "name": "country",
          "type": "string"
        },
        {
          "internalType": "uint256",
          "name": "posta_Code",
          "type": "uint256"
        },
        {
          "internalType": "address",
          "name": "userWallet",
          "type": "address"
        },
        {
          "internalType": "string",
          "name": "privateKey",
          "type": "string"
        }
      ],
      "name": "CreateUser",
      "outputs": [],
      "payable": false,
      "stateMutability": "nonpayable",
      "type": "function"
    },
    {
      "constant": true,
      "inputs": [
        {
          "internalType": "uint256",
          "name": "id_project",
          "type": "uint256"
        },
        {
          "internalType": "uint256",
          "name": "indice",
          "type": "uint256"
        },
        {
          "internalType": "uint256",
          "name": "id_user",
          "type": "uint256"
        }
      ],
      "name": "RevenuePerCoOr",
      "outputs": [
        {
          "internalType": "bool",
          "name": "",
          "type": "bool"
        }
      ],
      "payable": false,
      "stateMutability": "view",
      "type": "function"
    },
    {
      "constant": true,
      "inputs": [
        {
          "internalType": "uint256",
          "name": "ID_User",
          "type": "uint256"
        }
      ],
      "name": "getUser",
      "outputs": [
        {
          "internalType": "string",
          "name": "",
          "type": "string"
        },
        {
          "internalType": "string",
          "name": "",
          "type": "string"
        },
        {
          "internalType": "string",
          "name": "",
          "type": "string"
        },
        {
          "internalType": "uint256",
          "name": "",
          "type": "uint256"
        },
        {
          "internalType": "address",
          "name": "",
          "type": "address"
        },
        {
          "internalType": "string",
          "name": "",
          "type": "string"
        }
      ],
      "payable": false,
      "stateMutability": "view",
      "type": "function"
    },
    {
      "constant": false,
      "inputs": [
        {
          "internalType": "uint256",
          "name": "ID_User",
          "type": "uint256"
        },
        {
          "internalType": "string",
          "name": "project_name",
          "type": "string"
        },
        {
          "internalType": "string",
          "name": "project_type",
          "type": "string"
        },
        {
          "internalType": "string",
          "name": "localization",
          "type": "string"
        },
        {
          "internalType": "uint256",
          "name": "start_date",
          "type": "uint256"
        },
        {
          "internalType": "uint256",
          "name": "end_date",
          "type": "uint256"
        },
        {
          "internalType": "bool",
          "name": "ongoing_project",
          "type": "bool"
        },
        {
          "internalType": "string",
          "name": "project_description",
          "type": "string"
        },
        {
          "internalType": "string",
          "name": "project_contact_information",
          "type": "string"
        },
        {
          "internalType": "uint256",
          "name": "tickets_total_supply",
          "type": "uint256"
        }
      ],
      "name": "CreateProject",
      "outputs": [],
      "payable": false,
      "stateMutability": "nonpayable",
      "type": "function"
    },
    {
      "constant": true,
      "inputs": [
        {
          "internalType": "uint256",
          "name": "ID_User",
          "type": "uint256"
        },
        {
          "internalType": "uint256",
          "name": "indice",
          "type": "uint256"
        }
      ],
      "name": "getproject",
      "outputs": [
        {
          "internalType": "uint256",
          "name": "",
          "type": "uint256"
        },
        {
          "internalType": "string",
          "name": "",
          "type": "string"
        },
        {
          "internalType": "string",
          "name": "",
          "type": "string"
        },
        {
          "internalType": "uint256",
          "name": "",
          "type": "uint256"
        },
        {
          "internalType": "bool",
          "name": "",
          "type": "bool"
        },
        {
          "internalType": "string",
          "name": "",
          "type": "string"
        }
      ],
      "payable": false,
      "stateMutability": "view",
      "type": "function"
    },
    {
      "constant": false,
      "inputs": [
        {
          "internalType": "uint256",
          "name": "id_project",
          "type": "uint256"
        },
        {
          "internalType": "uint256",
          "name": "organizer",
          "type": "uint256"
        },
        {
          "internalType": "uint256",
          "name": "tickets_sale_rev",
          "type": "uint256"
        },
        {
          "internalType": "uint256",
          "name": "total_tickets_sale_rev",
          "type": "uint256"
        }
      ],
      "name": "CreateRules",
      "outputs": [],
      "payable": false,
      "stateMutability": "nonpayable",
      "type": "function"
    },
    {
      "constant": true,
      "inputs": [
        {
          "internalType": "uint256",
          "name": "id_project",
          "type": "uint256"
        }
      ],
      "name": "getRules",
      "outputs": [
        {
          "internalType": "uint256",
          "name": "",
          "type": "uint256"
        },
        {
          "internalType": "uint256",
          "name": "",
          "type": "uint256"
        },
        {
          "internalType": "uint256",
          "name": "",
          "type": "uint256"
        },
        {
          "internalType": "uint256",
          "name": "",
          "type": "uint256"
        }
      ],
      "payable": false,
      "stateMutability": "view",
      "type": "function"
    },
    {
      "constant": false,
      "inputs": [
        {
          "internalType": "string",
          "name": "_Companyname",
          "type": "string"
        },
        {
          "internalType": "string",
          "name": "_Companyemail",
          "type": "string"
        },
        {
          "internalType": "uint256",
          "name": "_Identification",
          "type": "uint256"
        },
        {
          "internalType": "string",
          "name": "_CompanyAddress",
          "type": "string"
        },
        {
          "internalType": "string",
          "name": "_CompanyArea",
          "type": "string"
        },
        {
          "internalType": "string",
          "name": "_CompanyBankAccount",
          "type": "string"
        },
        {
          "internalType": "address",
          "name": "_ProWallet",
          "type": "address"
        }
      ],
      "name": "addProUser",
      "outputs": [],
      "payable": false,
      "stateMutability": "nonpayable",
      "type": "function"
    },
    {
      "constant": false,
      "inputs": [
        {
          "internalType": "uint256",
          "name": "_ID_User",
          "type": "uint256"
        },
        {
          "internalType": "uint256",
          "name": "_ID_Project",
          "type": "uint256"
        },
        {
          "internalType": "string",
          "name": "_TicketName",
          "type": "string"
        },
        {
          "internalType": "uint256",
          "name": "_TicketPrice",
          "type": "uint256"
        },
        {
          "internalType": "string",
          "name": "_TicketDescription",
          "type": "string"
        },
        {
          "internalType": "uint256",
          "name": "_validity",
          "type": "uint256"
        },
        {
          "internalType": "string",
          "name": "_ticketCreator",
          "type": "string"
        },
        {
          "internalType": "string",
          "name": "_ticketOwner",
          "type": "string"
        },
        {
          "internalType": "string",
          "name": "_options",
          "type": "string"
        }
      ],
      "name": "addTicket",
      "outputs": [],
      "payable": false,
      "stateMutability": "nonpayable",
      "type": "function"
    },
    {
      "constant": true,
      "inputs": [
        {
          "internalType": "uint256",
          "name": "ID_UserPro",
          "type": "uint256"
        }
      ],
      "name": "getUserPro",
      "outputs": [
        {
          "internalType": "string",
          "name": "",
          "type": "string"
        },
        {
          "internalType": "string",
          "name": "",
          "type": "string"
        },
        {
          "internalType": "uint256",
          "name": "",
          "type": "uint256"
        },
        {
          "internalType": "string",
          "name": "",
          "type": "string"
        },
        {
          "internalType": "string",
          "name": "",
          "type": "string"
        },
        {
          "internalType": "string",
          "name": "",
          "type": "string"
        },
        {
          "internalType": "address",
          "name": "",
          "type": "address"
        }
      ],
      "payable": false,
      "stateMutability": "view",
      "type": "function"
    },
    {
      "constant": true,
      "inputs": [
        {
          "internalType": "uint256",
          "name": "ID_User",
          "type": "uint256"
        },
        {
          "internalType": "uint256",
          "name": "indice",
          "type": "uint256"
        }
      ],
      "name": "getTicketUser",
      "outputs": [
        {
          "internalType": "uint256",
          "name": "",
          "type": "uint256"
        },
        {
          "internalType": "string",
          "name": "",
          "type": "string"
        },
        {
          "internalType": "uint256",
          "name": "",
          "type": "uint256"
        },
        {
          "internalType": "string",
          "name": "",
          "type": "string"
        },
        {
          "internalType": "uint256",
          "name": "",
          "type": "uint256"
        },
        {
          "internalType": "string",
          "name": "",
          "type": "string"
        }
      ],
      "payable": false,
      "stateMutability": "view",
      "type": "function"
    },
    {
      "constant": true,
      "inputs": [
        {
          "internalType": "uint256",
          "name": "ID_Project",
          "type": "uint256"
        },
        {
          "internalType": "uint256",
          "name": "indice",
          "type": "uint256"
        }
      ],
      "name": "getTicketProject",
      "outputs": [
        {
          "internalType": "uint256",
          "name": "",
          "type": "uint256"
        },
        {
          "internalType": "string",
          "name": "",
          "type": "string"
        },
        {
          "internalType": "uint256",
          "name": "",
          "type": "uint256"
        },
        {
          "internalType": "string",
          "name": "",
          "type": "string"
        },
        {
          "internalType": "uint256",
          "name": "",
          "type": "uint256"
        },
        {
          "internalType": "string",
          "name": "",
          "type": "string"
        }
      ],
      "payable": false,
      "stateMutability": "view",
      "type": "function"
    },
    {
      "constant": false,
      "inputs": [
        {
          "internalType": "uint256",
          "name": "ID_User",
          "type": "uint256"
        },
        {
          "internalType": "uint256",
          "name": "id_project",
          "type": "uint256"
        },
        {
          "internalType": "uint256",
          "name": "Por_distribution",
          "type": "uint256"
        }
      ],
      "name": "participation",
      "outputs": [],
      "payable": false,
      "stateMutability": "nonpayable",
      "type": "function"
    },
    {
      "constant": false,
      "inputs": [
        {
          "internalType": "uint256",
          "name": "ID_User",
          "type": "uint256"
        },
        {
          "internalType": "uint256",
          "name": "id_project",
          "type": "uint256"
        }
      ],
      "name": "ConfirmeParticipation",
      "outputs": [],
      "payable": false,
      "stateMutability": "nonpayable",
      "type": "function"
    },
    {
      "constant": true,
      "inputs": [
        {
          "internalType": "uint256",
          "name": "index",
          "type": "uint256"
        },
        {
          "internalType": "uint256",
          "name": "id_project",
          "type": "uint256"
        }
      ],
      "name": "getParticipantByIndex",
      "outputs": [
        {
          "internalType": "uint256",
          "name": "",
          "type": "uint256"
        },
        {
          "internalType": "uint256",
          "name": "",
          "type": "uint256"
        }
      ],
      "payable": false,
      "stateMutability": "view",
      "type": "function"
    },
    {
      "constant": true,
      "inputs": [
        {
          "internalType": "uint256",
          "name": "id_project",
          "type": "uint256"
        }
      ],
      "name": "getLengthPart",
      "outputs": [
        {
          "internalType": "uint256",
          "name": "",
          "type": "uint256"
        }
      ],
      "payable": false,
      "stateMutability": "view",
      "type": "function"
    },
    {
      "constant": true,
      "inputs": [
        {
          "internalType": "uint256",
          "name": "ID_User",
          "type": "uint256"
        }
      ],
      "name": "nbrProjectUser",
      "outputs": [
        {
          "internalType": "uint256",
          "name": "",
          "type": "uint256"
        }
      ],
      "payable": false,
      "stateMutability": "view",
      "type": "function"
    },
    {
      "constant": true,
      "inputs": [
        {
          "internalType": "uint256",
          "name": "id_project",
          "type": "uint256"
        },
        {
          "internalType": "uint256",
          "name": "indice",
          "type": "uint256"
        }
      ],
      "name": "getCoOrganizateur",
      "outputs": [
        {
          "internalType": "uint256",
          "name": "",
          "type": "uint256"
        },
        {
          "internalType": "uint256",
          "name": "",
          "type": "uint256"
        },
        {
          "internalType": "bool",
          "name": "",
          "type": "bool"
        }
      ],
      "payable": false,
      "stateMutability": "view",
      "type": "function"
    },
    {
      "constant": true,
      "inputs": [
        {
          "internalType": "uint256",
          "name": "ID_User",
          "type": "uint256"
        }
      ],
      "name": "nbrTicketUser",
      "outputs": [
        {
          "internalType": "uint256",
          "name": "",
          "type": "uint256"
        }
      ],
      "payable": false,
      "stateMutability": "view",
      "type": "function"
    },
    {
      "constant": true,
      "inputs": [
        {
          "internalType": "uint256",
          "name": "ID_Project",
          "type": "uint256"
        }
      ],
      "name": "nbrTicketProject",
      "outputs": [
        {
          "internalType": "uint256",
          "name": "",
          "type": "uint256"
        }
      ],
      "payable": false,
      "stateMutability": "view",
      "type": "function"
    }
  ],
  "bytecode": "0x60806040526001600c556001600d556001600e556001600f55600160105534801561002957600080fd5b50615b7a806200003a6000396000f3fe608060405234801561001057600080fd5b50600436106102265760003560e01c8063a3a0758f11610130578063c845922b116100b8578063ea21a0391161007c578063ea21a0391461238a578063f266f08c146123cc578063f46bc56d1461270c578063fb6b5d031461275f578063fbb18620146129d557610226565b8063c845922b14611fc0578063ceb8645114612017578063d23f934e14612059578063e43637ac146120b7578063e498ef731461234857610226565b8063b0467deb116100ff578063b0467deb14611523578063b3ab217714611748578063b5b7069414611a94578063bbb6bfae14611d0a578063c0a6da3d14611d2857610226565b8063a3a0758f146111fb578063a6d9566614611219578063ac14198f14611237578063aefabae7146114e157610226565b806333e61326116101b35780637e9bb078116101825780637e9bb07814610f405780638282ad2e14610f825780638e7cdad0146111205780638f7daf0f146111625780639e0f0d19146111b957610226565b806333e6132614610e6657806338de697514610e9e5780634ce466a514610ee05780635db47fc314610efe57610226565b80631a47763d116101fa5780631a47763d146106595780632046532f1461099a5780632104023914610b3857806323ad9c0e14610b845780632a06f7a514610bde57610226565b806267dea31461022b5780630874ecaa146104575780630ac28fa414610499578063185e0fad1461063b575b600080fd5b6102576004803603602081101561024157600080fd5b8101908080359060200190929190505050612a17565b60405180888152602001806020018060200180602001878152602001806020018673ffffffffffffffffffffffffffffffffffffffff1673ffffffffffffffffffffffffffffffffffffffff16815260200185810385528b818151815260200191508051906020019080838360005b838110156102e15780820151818401526020810190506102c6565b50505050905090810190601f16801561030e5780820380516001836020036101000a031916815260200191505b5085810384528a818151815260200191508051906020019080838360005b8381101561034757808201518184015260208101905061032c565b50505050905090810190601f1680156103745780820380516001836020036101000a031916815260200191505b50858103835289818151815260200191508051906020019080838360005b838110156103ad578082015181840152602081019050610392565b50505050905090810190601f1680156103da5780820380516001836020036101000a031916815260200191505b50858103825287818151815260200191508051906020019080838360005b838110156104135780820151818401526020810190506103f8565b50505050905090810190601f1680156104405780820380516001836020036101000a031916815260200191505b509b50505050505050505050505060405180910390f35b6104836004803603602081101561046d57600080fd5b8101908080359060200190929190505050612cd9565b6040518082815260200191505060405180910390f35b6104cf600480360360408110156104af57600080fd5b810190808035906020019092919080359060200190929190505050612cf1565b6040518087815260200180602001806020018681526020018515151515815260200180602001848103845289818151815260200191508051906020019080838360005b8381101561052d578082015181840152602081019050610512565b50505050905090810190601f16801561055a5780820380516001836020036101000a031916815260200191505b50848103835288818151815260200191508051906020019080838360005b83811015610593578082015181840152602081019050610578565b50505050905090810190601f1680156105c05780820380516001836020036101000a031916815260200191505b50848103825285818151815260200191508051906020019080838360005b838110156105f95780820151818401526020810190506105de565b50505050905090810190601f1680156106265780820380516001836020036101000a031916815260200191505b50995050505050505050505060405180910390f35b610643612fdf565b6040518082815260200191505060405180910390f35b610998600480360360e081101561066f57600080fd5b810190808035906020019064010000000081111561068c57600080fd5b82018360208201111561069e57600080fd5b803590602001918460018302840111640100000000831117156106c057600080fd5b91908080601f016020809104026020016040519081016040528093929190818152602001838380828437600081840152601f19601f8201169050808301925050505050505091929192908035906020019064010000000081111561072357600080fd5b82018360208201111561073557600080fd5b8035906020019184600183028401116401000000008311171561075757600080fd5b91908080601f016020809104026020016040519081016040528093929190818152602001838380828437600081840152601f19601f82011690508083019250505050505050919291929080359060200190929190803590602001906401000000008111156107c457600080fd5b8201836020820111156107d657600080fd5b803590602001918460018302840111640100000000831117156107f857600080fd5b91908080601f016020809104026020016040519081016040528093929190818152602001838380828437600081840152601f19601f8201169050808301925050505050505091929192908035906020019064010000000081111561085b57600080fd5b82018360208201111561086d57600080fd5b8035906020019184600183028401116401000000008311171561088f57600080fd5b91908080601f016020809104026020016040519081016040528093929190818152602001838380828437600081840152601f19601f820116905080830192505050505050509192919290803590602001906401000000008111156108f257600080fd5b82018360208201111561090457600080fd5b8035906020019184600183028401116401000000008311171561092657600080fd5b91908080601f016020809104026020016040519081016040528093929190818152602001838380828437600081840152601f19601f820116905080830192505050505050509192919290803573ffffffffffffffffffffffffffffffffffffffff169060200190929190505050612fe5565b005b6109d0600480360360408110156109b057600080fd5b81019080803590602001909291908035906020019092919050505061319a565b60405180878152602001806020018681526020018060200185815260200180602001848103845289818151815260200191508051906020019080838360005b83811015610a2a578082015181840152602081019050610a0f565b50505050905090810190601f168015610a575780820380516001836020036101000a031916815260200191505b50848103835287818151815260200191508051906020019080838360005b83811015610a90578082015181840152602081019050610a75565b50505050905090810190601f168015610abd5780820380516001836020036101000a031916815260200191505b50848103825285818151815260200191508051906020019080838360005b83811015610af6578082015181840152602081019050610adb565b50505050905090810190601f168015610b235780820380516001836020036101000a031916815260200191505b50995050505050505050505060405180910390f35b610b8260048036036080811015610b4e57600080fd5b810190808035906020019092919080359060200190929190803590602001909291908035906020019092919050505061347d565b005b610bc460048036036060811015610b9a57600080fd5b81019080803590602001909291908035906020019092919080359060200190929190505050613531565b604051808215151515815260200191505060405180910390f35b610c1460048036036040811015610bf457600080fd5b810190808035906020019092919080359060200190929190505050613596565b604051808b81526020018060200180602001806020018a815260200189815260200188151515158152602001806020018060200187815260200186810386528f818151815260200191508051906020019080838360005b83811015610c86578082015181840152602081019050610c6b565b50505050905090810190601f168015610cb35780820380516001836020036101000a031916815260200191505b5086810385528e818151815260200191508051906020019080838360005b83811015610cec578082015181840152602081019050610cd1565b50505050905090810190601f168015610d195780820380516001836020036101000a031916815260200191505b5086810384528d818151815260200191508051906020019080838360005b83811015610d52578082015181840152602081019050610d37565b50505050905090810190601f168015610d7f5780820380516001836020036101000a031916815260200191505b50868103835289818151815260200191508051906020019080838360005b83811015610db8578082015181840152602081019050610d9d565b50505050905090810190601f168015610de55780820380516001836020036101000a031916815260200191505b50868103825288818151815260200191508051906020019080838360005b83811015610e1e578082015181840152602081019050610e03565b50505050905090810190601f168015610e4b5780820380516001836020036101000a031916815260200191505b509f5050505050505050505050505050505060405180910390f35b610e9c60048036036040811015610e7c57600080fd5b8101908080359060200190929190803590602001909291905050506138fc565b005b610ede60048036036060811015610eb457600080fd5b81019080803590602001909291908035906020019092919080359060200190929190505050613940565b005b610ee86139b1565b6040518082815260200191505060405180910390f35b610f2a60048036036020811015610f1457600080fd5b81019080803590602001909291905050506139b7565b6040518082815260200191505060405180910390f35b610f6c60048036036020811015610f5657600080fd5b81019080803590602001909291905050506139d4565b6040518082815260200191505060405180910390f35b610fb860048036036040811015610f9857600080fd5b8101908080359060200190929190803590602001909291905050506139f5565b60405180878152602001806020018681526020018060200185815260200180602001848103845289818151815260200191508051906020019080838360005b83811015611012578082015181840152602081019050610ff7565b50505050905090810190601f16801561103f5780820380516001836020036101000a031916815260200191505b50848103835287818151815260200191508051906020019080838360005b8381101561107857808201518184015260208101905061105d565b50505050905090810190601f1680156110a55780820380516001836020036101000a031916815260200191505b50848103825285818151815260200191508051906020019080838360005b838110156110de5780820151818401526020810190506110c3565b50505050905090810190601f16801561110b5780820380516001836020036101000a031916815260200191505b50995050505050505050505060405180910390f35b61114c6004803603602081101561113657600080fd5b8101908080359060200190929190505050613cd8565b6040518082815260200191505060405180910390f35b61118e6004803603602081101561117857600080fd5b8101908080359060200190929190505050613cfb565b6040518085815260200184815260200183815260200182815260200194505050505060405180910390f35b6111e5600480360360208110156111cf57600080fd5b8101908080359060200190929190505050613d6c565b6040518082815260200191505060405180910390f35b611203613d8d565b6040518082815260200191505060405180910390f35b611221613d93565b6040518082815260200191505060405180910390f35b6114df600480360360c081101561124d57600080fd5b810190808035906020019064010000000081111561126a57600080fd5b82018360208201111561127c57600080fd5b8035906020019184600183028401116401000000008311171561129e57600080fd5b91908080601f016020809104026020016040519081016040528093929190818152602001838380828437600081840152601f19601f8201169050808301925050505050505091929192908035906020019064010000000081111561130157600080fd5b82018360208201111561131357600080fd5b8035906020019184600183028401116401000000008311171561133557600080fd5b91908080601f016020809104026020016040519081016040528093929190818152602001838380828437600081840152601f19601f8201169050808301925050505050505091929192908035906020019064010000000081111561139857600080fd5b8201836020820111156113aa57600080fd5b803590602001918460018302840111640100000000831117156113cc57600080fd5b91908080601f016020809104026020016040519081016040528093929190818152602001838380828437600081840152601f19601f82011690508083019250505050505050919291929080359060200190929190803573ffffffffffffffffffffffffffffffffffffffff1690602001909291908035906020019064010000000081111561145957600080fd5b82018360208201111561146b57600080fd5b8035906020019184600183028401116401000000008311171561148d57600080fd5b91908080601f016020809104026020016040519081016040528093929190818152602001838380828437600081840152601f19601f820116905080830192505050505050509192919290505050613d99565b005b61150d600480360360208110156114f757600080fd5b8101908080359060200190929190505050613f28565b6040518082815260200191505060405180910390f35b61154f6004803603602081101561153957600080fd5b8101908080359060200190929190505050613f40565b604051808060200180602001806020018781526020018673ffffffffffffffffffffffffffffffffffffffff1673ffffffffffffffffffffffffffffffffffffffff1681526020018060200185810385528b818151815260200191508051906020019080838360005b838110156115d35780820151818401526020810190506115b8565b50505050905090810190601f1680156116005780820380516001836020036101000a031916815260200191505b5085810384528a818151815260200191508051906020019080838360005b8381101561163957808201518184015260208101905061161e565b50505050905090810190601f1680156116665780820380516001836020036101000a031916815260200191505b50858103835289818151815260200191508051906020019080838360005b8381101561169f578082015181840152602081019050611684565b50505050905090810190601f1680156116cc5780820380516001836020036101000a031916815260200191505b50858103825286818151815260200191508051906020019080838360005b838110156117055780820151818401526020810190506116ea565b50505050905090810190601f1680156117325780820380516001836020036101000a031916815260200191505b509a505050505050505050505060405180910390f35b611a92600480360361014081101561175f57600080fd5b81019080803590602001909291908035906020019064010000000081111561178657600080fd5b82018360208201111561179857600080fd5b803590602001918460018302840111640100000000831117156117ba57600080fd5b91908080601f016020809104026020016040519081016040528093929190818152602001838380828437600081840152601f19601f8201169050808301925050505050505091929192908035906020019064010000000081111561181d57600080fd5b82018360208201111561182f57600080fd5b8035906020019184600183028401116401000000008311171561185157600080fd5b91908080601f016020809104026020016040519081016040528093929190818152602001838380828437600081840152601f19601f820116905080830192505050505050509192919290803590602001906401000000008111156118b457600080fd5b8201836020820111156118c657600080fd5b803590602001918460018302840111640100000000831117156118e857600080fd5b91908080601f016020809104026020016040519081016040528093929190818152602001838380828437600081840152601f19601f82011690508083019250505050505050919291929080359060200190929190803590602001909291908035151590602001909291908035906020019064010000000081111561196b57600080fd5b82018360208201111561197d57600080fd5b8035906020019184600183028401116401000000008311171561199f57600080fd5b91908080601f016020809104026020016040519081016040528093929190818152602001838380828437600081840152601f19601f82011690508083019250505050505050919291929080359060200190640100000000811115611a0257600080fd5b820183602082011115611a1457600080fd5b80359060200191846001830284011164010000000083111715611a3657600080fd5b91908080601f016020809104026020016040519081016040528093929190818152602001838380828437600081840152601f19601f82011690508083019250505050505050919291929080359060200190929190505050614275565b005b611aca60048036036040811015611aaa57600080fd5b81019080803590602001909291908035906020019092919050505061459c565b60405180898152602001806020018881526020018060200187815260200180602001806020018060200186810386528d818151815260200191508051906020019080838360005b83811015611b2c578082015181840152602081019050611b11565b50505050905090810190601f168015611b595780820380516001836020036101000a031916815260200191505b5086810385528b818151815260200191508051906020019080838360005b83811015611b92578082015181840152602081019050611b77565b50505050905090810190601f168015611bbf5780820380516001836020036101000a031916815260200191505b50868103845289818151815260200191508051906020019080838360005b83811015611bf8578082015181840152602081019050611bdd565b50505050905090810190601f168015611c255780820380516001836020036101000a031916815260200191505b50868103835288818151815260200191508051906020019080838360005b83811015611c5e578082015181840152602081019050611c43565b50505050905090810190601f168015611c8b5780820380516001836020036101000a031916815260200191505b50868103825287818151815260200191508051906020019080838360005b83811015611cc4578082015181840152602081019050611ca9565b50505050905090810190601f168015611cf15780820380516001836020036101000a031916815260200191505b509d505050505050505050505050505060405180910390f35b611d126148e9565b6040518082815260200191505060405180910390f35b611d5460048036036020811015611d3e57600080fd5b81019080803590602001909291905050506148ef565b6040518089815260200180602001806020018881526020018060200180602001806020018773ffffffffffffffffffffffffffffffffffffffff1673ffffffffffffffffffffffffffffffffffffffff16815260200186810386528d818151815260200191508051906020019080838360005b83811015611de2578082015181840152602081019050611dc7565b50505050905090810190601f168015611e0f5780820380516001836020036101000a031916815260200191505b5086810385528c818151815260200191508051906020019080838360005b83811015611e48578082015181840152602081019050611e2d565b50505050905090810190601f168015611e755780820380516001836020036101000a031916815260200191505b5086810384528a818151815260200191508051906020019080838360005b83811015611eae578082015181840152602081019050611e93565b50505050905090810190601f168015611edb5780820380516001836020036101000a031916815260200191505b50868103835289818151815260200191508051906020019080838360005b83811015611f14578082015181840152602081019050611ef9565b50505050905090810190601f168015611f415780820380516001836020036101000a031916815260200191505b50868103825288818151815260200191508051906020019080838360005b83811015611f7a578082015181840152602081019050611f5f565b50505050905090810190601f168015611fa75780820380516001836020036101000a031916815260200191505b509d505050505050505050505050505060405180910390f35b611fec60048036036020811015611fd657600080fd5b8101908080359060200190929190505050614c4f565b6040518085815260200184815260200183815260200182815260200194505050505060405180910390f35b6120436004803603602081101561202d57600080fd5b8101908080359060200190929190505050614c7f565b6040518082815260200191505060405180910390f35b61208f6004803603604081101561206f57600080fd5b810190808035906020019092919080359060200190929190505050614ca0565b6040518084815260200183815260200182151515158152602001935050505060405180910390f35b6120e3600480360360208110156120cd57600080fd5b8101908080359060200190929190505050614d40565b6040518080602001806020018881526020018060200180602001806020018773ffffffffffffffffffffffffffffffffffffffff1673ffffffffffffffffffffffffffffffffffffffff16815260200186810386528d818151815260200191508051906020019080838360005b8381101561216b578082015181840152602081019050612150565b50505050905090810190601f1680156121985780820380516001836020036101000a031916815260200191505b5086810385528c818151815260200191508051906020019080838360005b838110156121d15780820151818401526020810190506121b6565b50505050905090810190601f1680156121fe5780820380516001836020036101000a031916815260200191505b5086810384528a818151815260200191508051906020019080838360005b8381101561223757808201518184015260208101905061221c565b50505050905090810190601f1680156122645780820380516001836020036101000a031916815260200191505b50868103835289818151815260200191508051906020019080838360005b8381101561229d578082015181840152602081019050612282565b50505050905090810190601f1680156122ca5780820380516001836020036101000a031916815260200191505b50868103825288818151815260200191508051906020019080838360005b838110156123035780820151818401526020810190506122e8565b50505050905090810190601f1680156123305780820380516001836020036101000a031916815260200191505b509c5050505050505050505050505060405180910390f35b6123746004803603602081101561235e57600080fd5b8101908080359060200190929190505050615126565b6040518082815260200191505060405180910390f35b6123b6600480360360208110156123a057600080fd5b810190808035906020019092919050505061513e565b6040518082815260200191505060405180910390f35b61270a60048036036101208110156123e357600080fd5b8101908080359060200190929190803590602001909291908035906020019064010000000081111561241457600080fd5b82018360208201111561242657600080fd5b8035906020019184600183028401116401000000008311171561244857600080fd5b91908080601f016020809104026020016040519081016040528093929190818152602001838380828437600081840152601f19601f82011690508083019250505050505050919291929080359060200190929190803590602001906401000000008111156124b557600080fd5b8201836020820111156124c757600080fd5b803590602001918460018302840111640100000000831117156124e957600080fd5b91908080601f016020809104026020016040519081016040528093929190818152602001838380828437600081840152601f19601f820116905080830192505050505050509192919290803590602001909291908035906020019064010000000081111561255657600080fd5b82018360208201111561256857600080fd5b8035906020019184600183028401116401000000008311171561258a57600080fd5b91908080601f016020809104026020016040519081016040528093929190818152602001838380828437600081840152601f19601f820116905080830192505050505050509192919290803590602001906401000000008111156125ed57600080fd5b8201836020820111156125ff57600080fd5b8035906020019184600183028401116401000000008311171561262157600080fd5b91908080601f016020809104026020016040519081016040528093929190818152602001838380828437600081840152601f19601f8201169050808301925050505050505091929192908035906020019064010000000081111561268457600080fd5b82018360208201111561269657600080fd5b803590602001918460018302840111640100000000831117156126b857600080fd5b91908080601f016020809104026020016040519081016040528093929190818152602001838380828437600081840152601f19601f82011690508083019250505050505050919291929050505061515b565b005b6127426004803603604081101561272257600080fd5b8101908080359060200190929190803590602001909291905050506156ce565b604051808381526020018281526020019250505060405180910390f35b6127956004803603604081101561277557600080fd5b810190808035906020019092919080359060200190929190505050615736565b60405180898152602001806020018881526020018060200187815260200180602001806020018060200186810386528d818151815260200191508051906020019080838360005b838110156127f75780820151818401526020810190506127dc565b50505050905090810190601f1680156128245780820380516001836020036101000a031916815260200191505b5086810385528b818151815260200191508051906020019080838360005b8381101561285d578082015181840152602081019050612842565b50505050905090810190601f16801561288a5780820380516001836020036101000a031916815260200191505b50868103845289818151815260200191508051906020019080838360005b838110156128c35780820151818401526020810190506128a8565b50505050905090810190601f1680156128f05780820380516001836020036101000a031916815260200191505b50868103835288818151815260200191508051906020019080838360005b8381101561292957808201518184015260208101905061290e565b50505050905090810190601f1680156129565780820380516001836020036101000a031916815260200191505b50868103825287818151815260200191508051906020019080838360005b8381101561298f578082015181840152602081019050612974565b50505050905090810190601f1680156129bc5780820380516001836020036101000a031916815260200191505b509d505050505050505050505050505060405180910390f35b612a01600480360360208110156129eb57600080fd5b8101908080359060200190929190505050615a83565b6040518082815260200191505060405180910390f35b6002602052806000526040600020600091509050806000015490806001018054600181600116156101000203166002900480601f016020809104026020016040519081016040528092919081815260200182805460018160011615610100020316600290048015612ac95780601f10612a9e57610100808354040283529160200191612ac9565b820191906000526020600020905b815481529060010190602001808311612aac57829003601f168201915b505050505090806002018054600181600116156101000203166002900480601f016020809104026020016040519081016040528092919081815260200182805460018160011615610100020316600290048015612b675780601f10612b3c57610100808354040283529160200191612b67565b820191906000526020600020905b815481529060010190602001808311612b4a57829003601f168201915b505050505090806003018054600181600116156101000203166002900480601f016020809104026020016040519081016040528092919081815260200182805460018160011615610100020316600290048015612c055780601f10612bda57610100808354040283529160200191612c05565b820191906000526020600020905b815481529060010190602001808311612be857829003601f168201915b505050505090806004015490806005018054600181600116156101000203166002900480601f016020809104026020016040519081016040528092919081815260200182805460018160011615610100020316600290048015612ca95780601f10612c7e57610100808354040283529160200191612ca9565b820191906000526020600020905b815481529060010190602001808311612c8c57829003601f168201915b5050505050908060060160009054906101000a900473ffffffffffffffffffffffffffffffffffffffff16905087565b60076020528060005260406000206000915090505481565b6000606080600080606060046000898152602001908152602001600020600088815260200190815260200160002060000154600460008a81526020019081526020016000206000898152602001908152602001600020600101600460008b815260200190815260200160002060008a8152602001908152602001600020600201600460008c815260200190815260200160002060008b815260200190815260200160002060040154600460008d815260200190815260200160002060008c815260200190815260200160002060060160009054906101000a900460ff16600460008e815260200190815260200160002060008d8152602001908152602001600020600701848054600181600116156101000203166002900480601f016020809104026020016040519081016040528092919081815260200182805460018160011615610100020316600290048015612e8a5780601f10612e5f57610100808354040283529160200191612e8a565b820191906000526020600020905b815481529060010190602001808311612e6d57829003601f168201915b50505050509450838054600181600116156101000203166002900480601f016020809104026020016040519081016040528092919081815260200182805460018160011615610100020316600290048015612f265780601f10612efb57610100808354040283529160200191612f26565b820191906000526020600020905b815481529060010190602001808311612f0957829003601f168201915b50505050509350808054600181600116156101000203166002900480601f016020809104026020016040519081016040528092919081815260200182805460018160011615610100020316600290048015612fc25780601f10612f9757610100808354040283529160200191612fc2565b820191906000526020600020905b815481529060010190602001808311612fa557829003601f168201915b505050505090509550955095509550955095509295509295509295565b600e5481565b600f54600080600f5481526020019081526020016000206000018190555086600080600f548152602001908152602001600020600101908051906020019061302e929190615aa0565b5085600080600f548152602001908152602001600020600201908051906020019061305a929190615aa0565b5084600080600f5481526020019081526020016000206003018190555083600080600f54815260200190815260200160002060040190805190602001906130a2929190615aa0565b5082600080600f54815260200190815260200160002060050190805190602001906130ce929190615aa0565b5081600080600f54815260200190815260200160002060060190805190602001906130fa929190615aa0565b5080600080600f54815260200190815260200160002060070160006101000a81548173ffffffffffffffffffffffffffffffffffffffff021916908373ffffffffffffffffffffffffffffffffffffffff1602179055506001600f549080600181540180825580915050906001820390600052602060002001600090919290919091505550600f6000815480929190600101919050555050505050505050565b60006060600060606000606060086000898152602001908152602001600020600088815260200190815260200160002060000154600860008a81526020019081526020016000206000898152602001908152602001600020600101600860008b815260200190815260200160002060008a815260200190815260200160002060020154600860008c815260200190815260200160002060008b8152602001908152602001600020600301600860008d815260200190815260200160002060008c815260200190815260200160002060040154600860008e815260200190815260200160002060008d8152602001908152602001600020600501848054600181600116156101000203166002900480601f0160208091040260200160405190810160405280929190818152602001828054600181600116156101000203166002900480156133285780601f106132fd57610100808354040283529160200191613328565b820191906000526020600020905b81548152906001019060200180831161330b57829003601f168201915b50505050509450828054600181600116156101000203166002900480601f0160208091040260200160405190810160405280929190818152602001828054600181600116156101000203166002900480156133c45780601f10613399576101008083540402835291602001916133c4565b820191906000526020600020905b8154815290600101906020018083116133a757829003601f168201915b50505050509250808054600181600116156101000203166002900480601f0160208091040260200160405190810160405280929190818152602001828054600181600116156101000203166002900480156134605780601f1061343557610100808354040283529160200191613460565b820191906000526020600020905b81548152906001019060200180831161344357829003601f168201915b505050505090509550955095509550955095509295509295509295565b600e54600a60008681526020019081526020016000206000018190555082600a60008681526020019081526020016000206001018190555081600a60008681526020019081526020016000206005018190555080600a600086815260200190815260200160002060060181905550600b600e549080600181540180825580915050906001820390600052602060002001600090919290919091505550600c6000815480929190600101919050555050505050565b6000806004600084815260200190815260200160002060008581526020019081526020016000206009015490506000600960008781526020019081526020016000205490508082116135885760019250505061358f565b6000925050505b9392505050565b600460205281600052604060002060205280600052604060002060009150915050806000015490806001018054600181600116156101000203166002900480601f0160208091040260200160405190810160405280929190818152602001828054600181600116156101000203166002900480156136555780601f1061362a57610100808354040283529160200191613655565b820191906000526020600020905b81548152906001019060200180831161363857829003601f168201915b505050505090806002018054600181600116156101000203166002900480601f0160208091040260200160405190810160405280929190818152602001828054600181600116156101000203166002900480156136f35780601f106136c8576101008083540402835291602001916136f3565b820191906000526020600020905b8154815290600101906020018083116136d657829003601f168201915b505050505090806003018054600181600116156101000203166002900480601f0160208091040260200160405190810160405280929190818152602001828054600181600116156101000203166002900480156137915780601f1061376657610100808354040283529160200191613791565b820191906000526020600020905b81548152906001019060200180831161377457829003601f168201915b5050505050908060040154908060050154908060060160009054906101000a900460ff1690806007018054600181600116156101000203166002900480601f01602080910402602001604051908101604052809291908181526020018280546001816001161561010002031660029004801561384e5780601f106138235761010080835404028352916020019161384e565b820191906000526020600020905b81548152906001019060200180831161383157829003601f168201915b505050505090806008018054600181600116156101000203166002900480601f0160208091040260200160405190810160405280929190818152602001828054600181600116156101000203166002900480156138ec5780601f106138c1576101008083540402835291602001916138ec565b820191906000526020600020905b8154815290600101906020018083116138cf57829003601f168201915b505050505090806009015490508a565b6001600a6000838152602001908152602001600020600301600084815260200190815260200160002060006101000a81548160ff0219169083151502179055505050565b80600a6000848152602001908152602001600020600201600085815260200190815260200160002081905550600a6000838152602001908152602001600020600401839080600181540180825580915050906001820390600052602060002001600090919290919091505550505050565b600d5481565b600060056000838152602001908152602001600020549050919050565b600b81815481106139e157fe5b906000526020600020016000915090505481565b60006060600060606000606060066000898152602001908152602001600020600088815260200190815260200160002060000154600660008a81526020019081526020016000206000898152602001908152602001600020600101600660008b815260200190815260200160002060008a815260200190815260200160002060020154600660008c815260200190815260200160002060008b8152602001908152602001600020600301600660008d815260200190815260200160002060008c815260200190815260200160002060040154600660008e815260200190815260200160002060008d8152602001908152602001600020600501848054600181600116156101000203166002900480601f016020809104026020016040519081016040528092919081815260200182805460018160011615610100020316600290048015613b835780601f10613b5857610100808354040283529160200191613b83565b820191906000526020600020905b815481529060010190602001808311613b6657829003601f168201915b50505050509450828054600181600116156101000203166002900480601f016020809104026020016040519081016040528092919081815260200182805460018160011615610100020316600290048015613c1f5780601f10613bf457610100808354040283529160200191613c1f565b820191906000526020600020905b815481529060010190602001808311613c0257829003601f168201915b50505050509250808054600181600116156101000203166002900480601f016020809104026020016040519081016040528092919081815260200182805460018160011615610100020316600290048015613cbb5780601f10613c9057610100808354040283529160200191613cbb565b820191906000526020600020905b815481529060010190602001808311613c9e57829003601f168201915b505050505090509550955095509550955095509295509295509295565b6000600a6000838152602001908152602001600020600401805490509050919050565b600080600080600a600086815260200190815260200160002060000154600a600087815260200190815260200160002060010154600a600088815260200190815260200160002060050154600a60008981526020019081526020016000206006015493509350935093509193509193565b60018181548110613d7957fe5b906000526020600020016000915090505481565b600f5481565b600c5481565b600c5460026000600c548152602001908152602001600020600001819055508560026000600c5481526020019081526020016000206001019080519060200190613de4929190615aa0565b508460026000600c5481526020019081526020016000206002019080519060200190613e11929190615aa0565b508360026000600c5481526020019081526020016000206003019080519060200190613e3e929190615aa0565b508260026000600c548152602001908152602001600020600401819055508160026000600c54815260200190815260200160002060060160006101000a81548173ffffffffffffffffffffffffffffffffffffffff021916908373ffffffffffffffffffffffffffffffffffffffff1602179055508060026000600c5481526020019081526020016000206005019080519060200190613edf929190615aa0565b506003600c549080600181540180825580915050906001820390600052602060002001600090919290919091505550600c60008154809291906001019190505550505050505050565b60096020528060005260406000206000915090505481565b606080606060008060606002600088815260200190815260200160002060010160026000898152602001908152602001600020600201600260008a8152602001908152602001600020600301600260008b815260200190815260200160002060040154600260008c815260200190815260200160002060060160009054906101000a900473ffffffffffffffffffffffffffffffffffffffff16600260008d8152602001908152602001600020600501858054600181600116156101000203166002900480601f0160208091040260200160405190810160405280929190818152602001828054600181600116156101000203166002900480156140855780601f1061405a57610100808354040283529160200191614085565b820191906000526020600020905b81548152906001019060200180831161406857829003601f168201915b50505050509550848054600181600116156101000203166002900480601f0160208091040260200160405190810160405280929190818152602001828054600181600116156101000203166002900480156141215780601f106140f657610100808354040283529160200191614121565b820191906000526020600020905b81548152906001019060200180831161410457829003601f168201915b50505050509450838054600181600116156101000203166002900480601f0160208091040260200160405190810160405280929190818152602001828054600181600116156101000203166002900480156141bd5780601f10614192576101008083540402835291602001916141bd565b820191906000526020600020905b8154815290600101906020018083116141a057829003601f168201915b50505050509350808054600181600116156101000203166002900480601f0160208091040260200160405190810160405280929190818152602001828054600181600116156101000203166002900480156142595780601f1061422e57610100808354040283529160200191614259565b820191906000526020600020905b81548152906001019060200180831161423c57829003601f168201915b5050505050905095509550955095509550955091939550919395565b600d54600460008c81526020019081526020016000206000600560008e81526020019081526020016000205481526020019081526020016000206000018190555088600460008c81526020019081526020016000206000600560008e81526020019081526020016000205481526020019081526020016000206001019080519060200190614304929190615aa0565b5087600460008c81526020019081526020016000206000600560008e81526020019081526020016000205481526020019081526020016000206002019080519060200190614353929190615aa0565b5086600460008c81526020019081526020016000206000600560008e815260200190815260200160002054815260200190815260200160002060030190805190602001906143a2929190615aa0565b5085600460008c81526020019081526020016000206000600560008e81526020019081526020016000205481526020019081526020016000206004018190555084600460008c81526020019081526020016000206000600560008e81526020019081526020016000205481526020019081526020016000206005018190555083600460008c81526020019081526020016000206000600560008e815260200190815260200160002054815260200190815260200160002060060160006101000a81548160ff02191690831515021790555082600460008c81526020019081526020016000206000600560008e815260200190815260200160002054815260200190815260200160002060070190805190602001906144c1929190615aa0565b5081600460008c81526020019081526020016000206000600560008e81526020019081526020016000205481526020019081526020016000206008019080519060200190614510929190615aa0565b5080600460008c81526020019081526020016000206000600560008e8152602001908152602001600020548152602001908152602001600020600901819055506001600560008c81526020019081526020016000205401600560008c815260200190815260200160002081905550600d6000815480929190600101919050555050505050505050505050565b600660205281600052604060002060205280600052604060002060009150915050806000015490806001018054600181600116156101000203166002900480601f01602080910402602001604051908101604052809291908181526020018280546001816001161561010002031660029004801561465b5780601f106146305761010080835404028352916020019161465b565b820191906000526020600020905b81548152906001019060200180831161463e57829003601f168201915b505050505090806002015490806003018054600181600116156101000203166002900480601f0160208091040260200160405190810160405280929190818152602001828054600181600116156101000203166002900480156146ff5780601f106146d4576101008083540402835291602001916146ff565b820191906000526020600020905b8154815290600101906020018083116146e257829003601f168201915b505050505090806004015490806005018054600181600116156101000203166002900480601f0160208091040260200160405190810160405280929190818152602001828054600181600116156101000203166002900480156147a35780601f10614778576101008083540402835291602001916147a3565b820191906000526020600020905b81548152906001019060200180831161478657829003601f168201915b505050505090806006018054600181600116156101000203166002900480601f0160208091040260200160405190810160405280929190818152602001828054600181600116156101000203166002900480156148415780601f1061481657610100808354040283529160200191614841565b820191906000526020600020905b81548152906001019060200180831161482457829003601f168201915b505050505090806007018054600181600116156101000203166002900480601f0160208091040260200160405190810160405280929190818152602001828054600181600116156101000203166002900480156148df5780601f106148b4576101008083540402835291602001916148df565b820191906000526020600020905b8154815290600101906020018083116148c257829003601f168201915b5050505050905088565b60105481565b6000602052806000526040600020600091509050806000015490806001018054600181600116156101000203166002900480601f0160208091040260200160405190810160405280929190818152602001828054600181600116156101000203166002900480156149a15780601f10614976576101008083540402835291602001916149a1565b820191906000526020600020905b81548152906001019060200180831161498457829003601f168201915b505050505090806002018054600181600116156101000203166002900480601f016020809104026020016040519081016040528092919081815260200182805460018160011615610100020316600290048015614a3f5780601f10614a1457610100808354040283529160200191614a3f565b820191906000526020600020905b815481529060010190602001808311614a2257829003601f168201915b505050505090806003015490806004018054600181600116156101000203166002900480601f016020809104026020016040519081016040528092919081815260200182805460018160011615610100020316600290048015614ae35780601f10614ab857610100808354040283529160200191614ae3565b820191906000526020600020905b815481529060010190602001808311614ac657829003601f168201915b505050505090806005018054600181600116156101000203166002900480601f016020809104026020016040519081016040528092919081815260200182805460018160011615610100020316600290048015614b815780601f10614b5657610100808354040283529160200191614b81565b820191906000526020600020905b815481529060010190602001808311614b6457829003601f168201915b505050505090806006018054600181600116156101000203166002900480601f016020809104026020016040519081016040528092919081815260200182805460018160011615610100020316600290048015614c1f5780601f10614bf457610100808354040283529160200191614c1f565b820191906000526020600020905b815481529060010190602001808311614c0257829003601f168201915b5050505050908060070160009054906101000a900473ffffffffffffffffffffffffffffffffffffffff16905088565b600a6020528060005260406000206000915090508060000154908060010154908060050154908060060154905084565b60038181548110614c8c57fe5b906000526020600020016000915090505481565b600080600080600a60008781526020019081526020016000206004018581548110614cc757fe5b9060005260206000200154905080600a6000888152602001908152602001600020600201600083815260200190815260200160002054600a6000898152602001908152602001600020600301600084815260200190815260200160002060009054906101000a900460ff16935093509350509250925092565b6060806000606080606060008060008981526020019081526020016000206001016000808a81526020019081526020016000206002016000808b8152602001908152602001600020600301546000808c81526020019081526020016000206004016000808d81526020019081526020016000206005016000808e81526020019081526020016000206006016000808f815260200190815260200160002060070160009054906101000a900473ffffffffffffffffffffffffffffffffffffffff16868054600181600116156101000203166002900480601f016020809104026020016040519081016040528092919081815260200182805460018160011615610100020316600290048015614e965780601f10614e6b57610100808354040283529160200191614e96565b820191906000526020600020905b815481529060010190602001808311614e7957829003601f168201915b50505050509650858054600181600116156101000203166002900480601f016020809104026020016040519081016040528092919081815260200182805460018160011615610100020316600290048015614f325780601f10614f0757610100808354040283529160200191614f32565b820191906000526020600020905b815481529060010190602001808311614f1557829003601f168201915b50505050509550838054600181600116156101000203166002900480601f016020809104026020016040519081016040528092919081815260200182805460018160011615610100020316600290048015614fce5780601f10614fa357610100808354040283529160200191614fce565b820191906000526020600020905b815481529060010190602001808311614fb157829003601f168201915b50505050509350828054600181600116156101000203166002900480601f01602080910402602001604051908101604052809291908181526020018280546001816001161561010002031660029004801561506a5780601f1061503f5761010080835404028352916020019161506a565b820191906000526020600020905b81548152906001019060200180831161504d57829003601f168201915b50505050509250818054600181600116156101000203166002900480601f0160208091040260200160405190810160405280929190818152602001828054600181600116156101000203166002900480156151065780601f106150db57610100808354040283529160200191615106565b820191906000526020600020905b8154815290600101906020018083116150e957829003601f168201915b505050505091509650965096509650965096509650919395979092949650565b60056020528060005260406000206000915090505481565b600060096000838152602001908152602001600020549050919050565b6000600460008b81526020019081526020016000206000600760008d81526020019081526020016000205481526020019081526020016000206009015490506000600960008b8152602001908152602001600020549050808210156151bf57600080fd5b601054600660008d81526020019081526020016000206000600760008f81526020019081526020016000205481526020019081526020016000206000018190555088600660008d81526020019081526020016000206000600760008f8152602001908152602001600020548152602001908152602001600020600101908051906020019061524e929190615aa0565b5087600660008d81526020019081526020016000206000600760008f81526020019081526020016000205481526020019081526020016000206002018190555086600660008d81526020019081526020016000206000600760008f815260200190815260200160002054815260200190815260200160002060030190805190602001906152dc929190615aa0565b5085600660008d81526020019081526020016000206000600760008f81526020019081526020016000205481526020019081526020016000206004018190555084600660008d81526020019081526020016000206000600760008f8152602001908152602001600020548152602001908152602001600020600501908051906020019061536a929190615aa0565b5083600660008d81526020019081526020016000206000600760008f815260200190815260200160002054815260200190815260200160002060060190805190602001906153b9929190615aa0565b5082600660008d81526020019081526020016000206000600760008f81526020019081526020016000205481526020019081526020016000206007019080519060200190615408929190615aa0565b506001600760008d81526020019081526020016000205401600760008d815260200190815260200160002081905550601054600860008c81526020019081526020016000206000600960008e81526020019081526020016000205481526020019081526020016000206000018190555088600860008c81526020019081526020016000206000600960008e815260200190815260200160002054815260200190815260200160002060010190805190602001906154c6929190615aa0565b5087600860008c81526020019081526020016000206000600960008e81526020019081526020016000205481526020019081526020016000206002018190555086600860008c81526020019081526020016000206000600960008e81526020019081526020016000205481526020019081526020016000206003019080519060200190615554929190615aa0565b5085600860008c81526020019081526020016000206000600960008e81526020019081526020016000205481526020019081526020016000206004018190555084600860008c81526020019081526020016000206000600960008e815260200190815260200160002054815260200190815260200160002060050190805190602001906155e2929190615aa0565b5083600860008c81526020019081526020016000206000600960008e81526020019081526020016000205481526020019081526020016000206006019080519060200190615631929190615aa0565b5082600860008c81526020019081526020016000206000600960008e81526020019081526020016000205481526020019081526020016000206007019080519060200190615680929190615aa0565b506001600960008c81526020019081526020016000205401600960008c8152602001908152602001600020819055506010600081548092919060010191905055505050505050505050505050565b6000806000600a600085815260200190815260200160002060040185815481106156f457fe5b9060005260206000200154905080600a600086815260200190815260200160002060020160008381526020019081526020016000205492509250509250929050565b600860205281600052604060002060205280600052604060002060009150915050806000015490806001018054600181600116156101000203166002900480601f0160208091040260200160405190810160405280929190818152602001828054600181600116156101000203166002900480156157f55780601f106157ca576101008083540402835291602001916157f5565b820191906000526020600020905b8154815290600101906020018083116157d857829003601f168201915b505050505090806002015490806003018054600181600116156101000203166002900480601f0160208091040260200160405190810160405280929190818152602001828054600181600116156101000203166002900480156158995780601f1061586e57610100808354040283529160200191615899565b820191906000526020600020905b81548152906001019060200180831161587c57829003601f168201915b505050505090806004015490806005018054600181600116156101000203166002900480601f01602080910402602001604051908101604052809291908181526020018280546001816001161561010002031660029004801561593d5780601f106159125761010080835404028352916020019161593d565b820191906000526020600020905b81548152906001019060200180831161592057829003601f168201915b505050505090806006018054600181600116156101000203166002900480601f0160208091040260200160405190810160405280929190818152602001828054600181600116156101000203166002900480156159db5780601f106159b0576101008083540402835291602001916159db565b820191906000526020600020905b8154815290600101906020018083116159be57829003601f168201915b505050505090806007018054600181600116156101000203166002900480601f016020809104026020016040519081016040528092919081815260200182805460018160011615610100020316600290048015615a795780601f10615a4e57610100808354040283529160200191615a79565b820191906000526020600020905b815481529060010190602001808311615a5c57829003601f168201915b5050505050905088565b600060076000838152602001908152602001600020549050919050565b828054600181600116156101000203166002900490600052602060002090601f016020900481019282601f10615ae157805160ff1916838001178555615b0f565b82800160010185558215615b0f579182015b82811115615b0e578251825591602001919060010190615af3565b5b509050615b1c9190615b20565b5090565b615b4291905b80821115615b3e576000816000905550600101615b26565b5090565b9056fea265627a7a7231582077b3c36bae14b43d65ba160b0a988e9b04a6154d4255b110c6ce6ad67193be6864736f6c634300050b0032",
  "source": "pragma solidity 0.5.11;\n\n contract devent {\n     \n         struct rules {\n         uint id_rules;\n         uint organizer;\n         mapping(uint => uint)  coorganisateur_Dist;\n         mapping(uint => bool)  signed_or;\n         uint[]  Listecoorganisateur;\n  \n         uint tickets_sale_rev;\n         uint256 total_tickets_sale_rev;\n       \n     }\n\n  \n     \n    struct ProUser {\n         uint ID_ProUser;\n        string Companyname;\n        string Companyemail;\n        uint256  Identification;\n        string CompanyAddress;\n        string  CompanyArea;\n        string CompanyBankAccount;\n    //    string password;\n        address ProWallet;\n     }\n    \n     struct project {\n         uint id_project; \n         string  project_name;\n         string  project_type;\n         string  localization;\n         uint256 start_date;\n         uint256 end_date;\n         bool ongoing_project;\n         string project_description;\n         string project_contact_information;\n         uint tickets_total_supply;\n     }\n    \n     struct User {\n        uint ID_User;\n        string Username;\n        string email;\n        string  country;\n        uint posta_Code;\n       // string preferences;\n        string privateKey;\n     //   string password;\n        address userWallet;\n       \n     }\n    \n     struct Ticket {\n        uint ID_Ticket;\n        string TicketName;\n        uint TicketPrice ;\n        string TicketDescription;\n        uint256 validity ;\n        string ticketCreator ;\n        string ticketOwner ;\n        string options ;\n        \n     }\n     \nmapping(uint => ProUser) public ListProUser;\n\n        uint[] public ListIDProUser;\n     \n    mapping (uint => User)  public ListeUser ;\n\n     uint[] public ListeIDUser ; \n     \n     \n    mapping (uint => mapping (uint => project)) public ListeProjectUser;\n\n     mapping (uint => uint) public NumberProjectUser ;\n     \n     \n     \n     mapping (uint => mapping (uint => Ticket)) public ListeUserTicket;\n\n     mapping (uint => uint)  public NumberTickettUser ;\n     \n     \n    mapping(uint=> mapping(uint => Ticket)) public ListTicketProject;\n     \n     mapping(uint => uint) public NumberTicketsProjects;\n     \n     \n     mapping (uint => rules) public ListeRules ;\n      \n    uint[] public ListIDRules;\n    \n \n         uint256 public ID_UserIndice = 1;\n\n    \n    function CreateUser (\n        string memory Username,\n        string memory email,\n        string  memory country,\n        uint posta_Code,\n       // string memory preferences,\n      //  string memory password,\n        address userWallet,\n        string memory privateKey) public {\n        ListeUser[ID_UserIndice].ID_User = ID_UserIndice;\n        ListeUser[ID_UserIndice].Username = Username;\n        ListeUser[ID_UserIndice].email = email;\n        ListeUser[ID_UserIndice].country = country;\n        ListeUser[ID_UserIndice].posta_Code = posta_Code;\n       // ListeUser[ID_UserIndice].preferences = preferences;\n        //ListeUser[ID_UserIndice].password = password;\n        ListeUser[ID_UserIndice].userWallet = userWallet;\n        ListeUser[ID_UserIndice].privateKey = privateKey;\n        ListeIDUser.push(ID_UserIndice) ;\n        ID_UserIndice++;\n        }\n        \n        function RevenuePerCoOr (uint id_project,uint indice, uint id_user) view public returns (bool){\n            uint total_tickets = ListeProjectUser[id_user][indice].tickets_total_supply;\n            uint nbr_tickets_encours = NumberTicketsProjects[id_project];\n            if(total_tickets <= nbr_tickets_encours) {\n                return true;\n            }\n            else {\n                return false;\n            }\n            \n        }\n        \n        \n      function  getUser (uint ID_User) view public returns ( string memory ,\n        string memory ,\n        string  memory ,\n        uint ,\n       // string memory,\n        //string memory ,\n        address,\n        string  memory\n        ) {\n          return(   \n              ListeUser[ID_User].Username ,\n        ListeUser[ID_User].email,\n        ListeUser[ID_User].country ,\n        ListeUser[ID_User].posta_Code ,\n       // ListeUser[ID_User].preferences,\n        //ListeUser[ID_User].password ,\n        ListeUser[ID_User].userWallet,\n              ListeUser[ID_User].privateKey\n  );\n      }\n      \n        \n      /*      function CreateProject (\n            \n         uint ID_User,\n         string memory project_name,\n         string memory project_type,\n         string memory localization,\n         uint start_date,\n         uint end_date,\n         bool ongoing_project,\n         string memory project_description,\n         string memory project_contact_information,\n         uint tickets_total_supply) public {\n             ListeProjectUser[ID_User][ProjectIndice].id_project = ProjectIndice;\n             ListeProjectUser[ID_User][ProjectIndice].project_name = project_name;\n             ListeProjectUser[ID_User][ProjectIndice].project_type = project_type;\n             ListeProjectUser[ID_User][ProjectIndice].localization = localization;\n             ListeProjectUser[ID_User][ProjectIndice].start_date = start_date;\n             ListeProjectUser[ID_User][ProjectIndice].end_date = end_date;\n             ListeProjectUser[ID_User][ProjectIndice].ongoing_project = ongoing_project;\n             ListeProjectUser[ID_User][ProjectIndice].project_description = project_description;\n             ListeProjectUser[ID_User][ProjectIndice].project_contact_information = project_contact_information;\n             ListeProjectUser[ID_User][ProjectIndice].tickets_total_supply = tickets_total_supply;\n             NumberProjectUser[ID_User]=ProjectIndice;\n             ProjectIndice++;\n             \n\n        }*/\n      uint256 public ProjectIndice = 1;\n             function CreateProject (\n            \n         uint ID_User,\n         string memory project_name,\n         string memory project_type,\n         string memory localization,\n         uint start_date,\n         uint end_date,\n         bool ongoing_project,\n         string memory project_description,\n         string memory project_contact_information,\n         uint tickets_total_supply) public {\n             ListeProjectUser[ID_User][ NumberProjectUser[ID_User]].id_project = ProjectIndice;\n             ListeProjectUser[ID_User][ NumberProjectUser[ID_User]].project_name = project_name;\n             ListeProjectUser[ID_User][ NumberProjectUser[ID_User]].project_type = project_type;\n             ListeProjectUser[ID_User][ NumberProjectUser[ID_User]].localization = localization;\n             ListeProjectUser[ID_User][ NumberProjectUser[ID_User]].start_date = start_date;\n             ListeProjectUser[ID_User][ NumberProjectUser[ID_User]].end_date = end_date;\n             ListeProjectUser[ID_User][ NumberProjectUser[ID_User]].ongoing_project = ongoing_project;\n             ListeProjectUser[ID_User][ NumberProjectUser[ID_User]].project_description = project_description;\n             ListeProjectUser[ID_User][ NumberProjectUser[ID_User]].project_contact_information = project_contact_information;\n             ListeProjectUser[ID_User][ NumberProjectUser[ID_User]].tickets_total_supply = tickets_total_supply;\n             NumberProjectUser[ID_User]= NumberProjectUser[ID_User]+1;\n             ProjectIndice++;\n             \n\n \n\n        }\n        \n        function  getproject (uint ID_User , uint indice) view public returns ( \n     uint,\n         string memory ,\n         string memory ,\n      //   string memory ,\n         uint ,\n        // uint ,\n         bool ,\n         string memory \n         ) {\n          return(  \n               ListeProjectUser[ID_User][indice].id_project,\n             ListeProjectUser[ID_User][indice].project_name ,\n             ListeProjectUser[ID_User][indice].project_type ,\n          //   ListeProjectUser[ID_User][ProjectIndice].localization ,\n             ListeProjectUser[ID_User][indice].start_date,\n           //  ListeProjectUser[ID_User][indice].end_date,\n             ListeProjectUser[ID_User][indice].ongoing_project ,\n             ListeProjectUser[ID_User][indice].project_description \n           );\n      }\n        \n                uint256 public rulesIndice = 1;\n\n           \n    function CreateRules ( uint id_project, uint organizer, uint tickets_sale_rev, uint256 total_tickets_sale_rev) public\n    {\n        ListeRules[id_project].id_rules = rulesIndice;\n        ListeRules[id_project].organizer = organizer;\n        ListeRules[id_project].tickets_sale_rev = tickets_sale_rev;\n        ListeRules[id_project].total_tickets_sale_rev = total_tickets_sale_rev;\n        \n\n        ListIDRules.push(rulesIndice) ;\n        ID_UserIndice++;\n        }\n        \n        \n            function  getRules (uint id_project) view public returns ( \n         uint ,\n         uint ,\n         uint ,\n         uint256  ) {\n          return(   \n             ListeRules[id_project].id_rules,\n        ListeRules[id_project].organizer,\n        ListeRules[id_project].tickets_sale_rev ,\n        ListeRules[id_project].total_tickets_sale_rev );\n      }\n      \n       uint public ID_ProUser = 1;\n\n     function addProUser(\n        string memory _Companyname,\n        string memory _Companyemail,\n        uint256  _Identification,\n        string memory _CompanyAddress,\n        string memory  _CompanyArea,\n        string memory _CompanyBankAccount,\n       // string memory _password,\n        address _ProWallet\n    ) public { \n        \n        ListProUser[ID_ProUser].ID_ProUser = ID_ProUser;\n        ListProUser[ID_ProUser].Companyname = _Companyname;\n        ListProUser[ID_ProUser].Companyemail = _Companyemail;\n        ListProUser[ID_ProUser].Identification = _Identification;\n        ListProUser[ID_ProUser].CompanyAddress = _CompanyAddress;\n        ListProUser[ID_ProUser].CompanyArea = _CompanyArea;\n        ListProUser[ID_ProUser].CompanyBankAccount = _CompanyBankAccount;\n       // ListProUser[ID_ProUser].password = _password;\n        ListProUser[ID_ProUser].ProWallet = _ProWallet;\n        \n        ListIDProUser.push(ID_ProUser);\n        \n             ID_ProUser ++;\n        \n    \n    }\n    \n    \n    \n    uint public ID_Ticket = 1;\n    \n      function addTicket(\n      uint _ID_User,\n      uint _ID_Project,\n        string memory _TicketName,\n        uint _TicketPrice ,\n        string memory _TicketDescription,\n        uint256 _validity ,\n        string memory _ticketCreator ,\n        string memory _ticketOwner ,\n        string memory _options \n    ) public { \n        \n         uint total_tickets = ListeProjectUser[_ID_User][NumberTickettUser[_ID_User]].tickets_total_supply;\n            uint nbr_tickets_encours = NumberTicketsProjects[_ID_Project];\n            \n        require(total_tickets >= nbr_tickets_encours);\n        \n        ListeUserTicket[_ID_User][NumberTickettUser[_ID_User]].ID_Ticket = ID_Ticket;\n        ListeUserTicket[_ID_User][NumberTickettUser[_ID_User]].TicketName = _TicketName;\n        ListeUserTicket[_ID_User][NumberTickettUser[_ID_User]].TicketPrice = _TicketPrice;\n        ListeUserTicket[_ID_User][NumberTickettUser[_ID_User]].TicketDescription = _TicketDescription;\n        ListeUserTicket[_ID_User][NumberTickettUser[_ID_User]].validity = _validity;\n        ListeUserTicket[_ID_User][NumberTickettUser[_ID_User]].ticketCreator = _ticketCreator;\n        ListeUserTicket[_ID_User][NumberTickettUser[_ID_User]].ticketOwner = _ticketOwner;\n        ListeUserTicket[_ID_User][NumberTickettUser[_ID_User]].options = _options;\n\n\n        NumberTickettUser[_ID_User] = NumberTickettUser[_ID_User] + 1;\n        \n        ListTicketProject[_ID_Project][NumberTicketsProjects[_ID_Project]].ID_Ticket = ID_Ticket;\n        ListTicketProject[_ID_Project][NumberTicketsProjects[_ID_Project]].TicketName = _TicketName;\n        ListTicketProject[_ID_Project][NumberTicketsProjects[_ID_Project]].TicketPrice = _TicketPrice;\n        ListTicketProject[_ID_Project][NumberTicketsProjects[_ID_Project]].TicketDescription = _TicketDescription;\n        ListTicketProject[_ID_Project][NumberTicketsProjects[_ID_Project]].validity = _validity;\n        ListTicketProject[_ID_Project][NumberTicketsProjects[_ID_Project]].ticketCreator = _ticketCreator;\n        ListTicketProject[_ID_Project][NumberTicketsProjects[_ID_Project]].ticketOwner = _ticketOwner;\n        ListTicketProject[_ID_Project][NumberTicketsProjects[_ID_Project]].options = _options;\n\n        NumberTicketsProjects[_ID_Project] = NumberTicketsProjects[_ID_Project] +1;\n\n        \n        ID_Ticket++;\n  \n    }\n    \n      function  getUserPro (uint ID_UserPro) view public returns ( string memory ,\n        string memory ,\n        uint256 ,\n        string memory ,\n        string memory ,\n        string memory ,\n        address ) {\n          return(   \n        ListProUser[ID_UserPro].Companyname ,\n        ListProUser[ID_UserPro].Companyemail,\n        ListProUser[ID_UserPro].Identification ,\n        ListProUser[ID_UserPro].CompanyAddress ,\n        ListProUser[ID_UserPro].CompanyArea ,\n        ListProUser[ID_UserPro].CompanyBankAccount,\n                ListProUser[ID_UserPro].ProWallet\n\n\n        );\n               \n      }\n\n         function  getTicketUser (uint ID_User, uint indice) view public returns (uint,\n        string memory ,\n        uint ,\n        string memory ,\n        uint256 ,\n        string memory\n      //  string memory \n        ) {\n          return(   \n               ListeUserTicket[ID_User][indice].ID_Ticket,\n         ListeUserTicket[ID_User][indice].TicketName,\n        ListeUserTicket[ID_User][indice].TicketPrice,\n        ListeUserTicket[ID_User][indice].TicketDescription,\n        ListeUserTicket[ID_User][indice].validity,\n        ListeUserTicket[ID_User][indice].ticketCreator\n      //  ListeUserTicket[ID_User][indice].options \n\n        );\n              \n      }\n         function  getTicketProject (uint ID_Project, uint indice) view public returns (uint,\n        string memory ,\n        uint ,\n        string memory ,\n        uint256 ,\n        string memory\n        //string memory \n        ) {\n          return(   \n                ListTicketProject[ID_Project][indice].ID_Ticket,\n         ListTicketProject[ID_Project][indice].TicketName,\n        ListTicketProject[ID_Project][indice].TicketPrice,\n        ListTicketProject[ID_Project][indice].TicketDescription,\n        ListTicketProject[ID_Project][indice].validity,\n        ListTicketProject[ID_Project][indice].ticketCreator\n      //  ListTicketProject[ID_Project][indice].options \n\n        );\n              \n      }\n     \n     \n      function participation (uint ID_User , uint id_project ,uint Por_distribution) public {\n                  ListeRules[id_project].coorganisateur_Dist[ID_User]= Por_distribution;\n                  ListeRules[id_project].Listecoorganisateur.push(ID_User);\n\n \n\n      }\n      \n       function ConfirmeParticipation (uint ID_User , uint id_project ) public {\n                  ListeRules[id_project].signed_or[ID_User]= true;\n\n\n      }\n      \n          function getParticipantByIndex (uint index , uint id_project) view public returns (uint  , uint ){\n          uint ID_User =  ListeRules[id_project].Listecoorganisateur[index] ;\n          return(ID_User,ListeRules[id_project].coorganisateur_Dist[ID_User]);\n          \n      }\n      \n      function getLengthPart ( uint id_project)  view public returns (uint ){\n         return (ListeRules[id_project].Listecoorganisateur.length) ;\n          \n      }\n      \n      \n      function nbrProjectUser(uint ID_User) view public returns(uint)\n      {\n        return  NumberProjectUser[ID_User] ;  \n      }\n      \n      function getCoOrganizateur(uint id_project,uint indice) view public returns(uint, uint, bool)\n      {\n          uint coOrg =ListeRules[id_project].Listecoorganisateur[indice];\n          return(coOrg, ListeRules[id_project].coorganisateur_Dist[coOrg], ListeRules[id_project].signed_or[coOrg]);\n      }\n      \n      \n       function nbrTicketUser(uint ID_User) view public returns(uint)\n      {\n        return   NumberTickettUser[ID_User] ;  \n      }\n      \n      \n       function nbrTicketProject(uint ID_Project) view public returns(uint)\n      {\n        return   NumberTicketsProjects[ID_Project] ;  \n      }\n     \n }\n \n\n\n",
  "sourcePath": "/home/ubuntu/contracts/Devent.sol",
  "compiler": {
    "name": "solc",
    "version": "0.5.11+commit.c082d0b4.Emscripten.clang"
  },
  "schemaVersion": "3.1.0",
  "updatedAt": "2020-05-19T14:36:01.145Z",
  "networkType": "ethereum",
  "devdoc": {
    "methods": {}
  },
  "userdoc": {
    "methods": {}
  }
}