{
  "contractName": "devent",
  "abi": [
    {
      "constant": true,
      "inputs": [
        {
          "internalType": "uint256",
          "name": "",
          "type": "uint256"
        }
      ],
      "name": "ListeUser",
      "outputs": [
        {
          "internalType": "uint256",
          "name": "ID_User",
          "type": "uint256"
        },
        {
          "internalType": "string",
          "name": "Username",
          "type": "string"
        },
        {
          "internalType": "string",
          "name": "email",
          "type": "string"
        },
        {
          "internalType": "string",
          "name": "country",
          "type": "string"
        },
        {
          "internalType": "uint256",
          "name": "posta_Code",
          "type": "uint256"
        },
        {
          "internalType": "string",
          "name": "privateKey",
          "type": "string"
        },
        {
          "internalType": "address",
          "name": "userWallet",
          "type": "address"
        }
      ],
      "payable": false,
      "stateMutability": "view",
      "type": "function"
    },
    {
      "constant": true,
      "inputs": [
        {
          "internalType": "uint256",
          "name": "",
          "type": "uint256"
        }
      ],
      "name": "NumberTickettUser",
      "outputs": [
        {
          "internalType": "uint256",
          "name": "",
          "type": "uint256"
        }
      ],
      "payable": false,
      "stateMutability": "view",
      "type": "function"
    },
    {
      "constant": true,
      "inputs": [],
      "name": "rulesIndice",
      "outputs": [
        {
          "internalType": "uint256",
          "name": "",
          "type": "uint256"
        }
      ],
      "payable": false,
      "stateMutability": "view",
      "type": "function"
    },
    {
      "constant": true,
      "inputs": [
        {
          "internalType": "uint256",
          "name": "",
          "type": "uint256"
        },
        {
          "internalType": "uint256",
          "name": "",
          "type": "uint256"
        }
      ],
      "name": "ListeProjectUser",
      "outputs": [
        {
          "internalType": "uint256",
          "name": "id_project",
          "type": "uint256"
        },
        {
          "internalType": "string",
          "name": "project_name",
          "type": "string"
        },
        {
          "internalType": "string",
          "name": "project_type",
          "type": "string"
        },
        {
          "internalType": "string",
          "name": "localization",
          "type": "string"
        },
        {
          "internalType": "uint256",
          "name": "start_date",
          "type": "uint256"
        },
        {
          "internalType": "uint256",
          "name": "end_date",
          "type": "uint256"
        },
        {
          "internalType": "bool",
          "name": "ongoing_project",
          "type": "bool"
        },
        {
          "internalType": "string",
          "name": "project_description",
          "type": "string"
        },
        {
          "internalType": "string",
          "name": "project_contact_information",
          "type": "string"
        },
        {
          "internalType": "uint256",
          "name": "tickets_total_supply",
          "type": "uint256"
        }
      ],
      "payable": false,
      "stateMutability": "view",
      "type": "function"
    },
    {
      "constant": true,
      "inputs": [],
      "name": "ProjectIndice",
      "outputs": [
        {
          "internalType": "uint256",
          "name": "",
          "type": "uint256"
        }
      ],
      "payable": false,
      "stateMutability": "view",
      "type": "function"
    },
    {
      "constant": true,
      "inputs": [
        {
          "internalType": "uint256",
          "name": "",
          "type": "uint256"
        }
      ],
      "name": "ListIDRules",
      "outputs": [
        {
          "internalType": "uint256",
          "name": "",
          "type": "uint256"
        }
      ],
      "payable": false,
      "stateMutability": "view",
      "type": "function"
    },
    {
      "constant": true,
      "inputs": [
        {
          "internalType": "uint256",
          "name": "",
          "type": "uint256"
        }
      ],
      "name": "ListIDProUser",
      "outputs": [
        {
          "internalType": "uint256",
          "name": "",
          "type": "uint256"
        }
      ],
      "payable": false,
      "stateMutability": "view",
      "type": "function"
    },
    {
      "constant": true,
      "inputs": [],
      "name": "ID_ProUser",
      "outputs": [
        {
          "internalType": "uint256",
          "name": "",
          "type": "uint256"
        }
      ],
      "payable": false,
      "stateMutability": "view",
      "type": "function"
    },
    {
      "constant": true,
      "inputs": [],
      "name": "ID_UserIndice",
      "outputs": [
        {
          "internalType": "uint256",
          "name": "",
          "type": "uint256"
        }
      ],
      "payable": false,
      "stateMutability": "view",
      "type": "function"
    },
    {
      "constant": true,
      "inputs": [
        {
          "internalType": "uint256",
          "name": "",
          "type": "uint256"
        }
      ],
      "name": "NumberTicketsProjects",
      "outputs": [
        {
          "internalType": "uint256",
          "name": "",
          "type": "uint256"
        }
      ],
      "payable": false,
      "stateMutability": "view",
      "type": "function"
    },
    {
      "constant": true,
      "inputs": [
        {
          "internalType": "uint256",
          "name": "",
          "type": "uint256"
        },
        {
          "internalType": "uint256",
          "name": "",
          "type": "uint256"
        }
      ],
      "name": "ListeUserTicket",
      "outputs": [
        {
          "internalType": "uint256",
          "name": "ID_Ticket",
          "type": "uint256"
        },
        {
          "internalType": "string",
          "name": "TicketName",
          "type": "string"
        },
        {
          "internalType": "uint256",
          "name": "TicketPrice",
          "type": "uint256"
        },
        {
          "internalType": "string",
          "name": "TicketDescription",
          "type": "string"
        },
        {
          "internalType": "uint256",
          "name": "validity",
          "type": "uint256"
        },
        {
          "internalType": "string",
          "name": "ticketCreator",
          "type": "string"
        },
        {
          "internalType": "string",
          "name": "ticketOwner",
          "type": "string"
        },
        {
          "internalType": "string",
          "name": "options",
          "type": "string"
        }
      ],
      "payable": false,
      "stateMutability": "view",
      "type": "function"
    },
    {
      "constant": true,
      "inputs": [],
      "name": "ID_Ticket",
      "outputs": [
        {
          "internalType": "uint256",
          "name": "",
          "type": "uint256"
        }
      ],
      "payable": false,
      "stateMutability": "view",
      "type": "function"
    },
    {
      "constant": true,
      "inputs": [
        {
          "internalType": "uint256",
          "name": "",
          "type": "uint256"
        }
      ],
      "name": "ListProUser",
      "outputs": [
        {
          "internalType": "uint256",
          "name": "ID_ProUser",
          "type": "uint256"
        },
        {
          "internalType": "string",
          "name": "Companyname",
          "type": "string"
        },
        {
          "internalType": "string",
          "name": "Companyemail",
          "type": "string"
        },
        {
          "internalType": "uint256",
          "name": "Identification",
          "type": "uint256"
        },
        {
          "internalType": "string",
          "name": "CompanyAddress",
          "type": "string"
        },
        {
          "internalType": "string",
          "name": "CompanyArea",
          "type": "string"
        },
        {
          "internalType": "string",
          "name": "CompanyBankAccount",
          "type": "string"
        },
        {
          "internalType": "address",
          "name": "ProWallet",
          "type": "address"
        }
      ],
      "payable": false,
      "stateMutability": "view",
      "type": "function"
    },
    {
      "constant": true,
      "inputs": [
        {
          "internalType": "uint256",
          "name": "",
          "type": "uint256"
        }
      ],
      "name": "ListeRules",
      "outputs": [
        {
          "internalType": "uint256",
          "name": "id_rules",
          "type": "uint256"
        },
        {
          "internalType": "uint256",
          "name": "organizer",
          "type": "uint256"
        },
        {
          "internalType": "uint256",
          "name": "tickets_sale_rev",
          "type": "uint256"
        },
        {
          "internalType": "uint256",
          "name": "total_tickets_sale_rev",
          "type": "uint256"
        },
        {
          "internalType": "string",
          "name": "signed_or",
          "type": "string"
        }
      ],
      "payable": false,
      "stateMutability": "view",
      "type": "function"
    },
    {
      "constant": true,
      "inputs": [
        {
          "internalType": "uint256",
          "name": "",
          "type": "uint256"
        }
      ],
      "name": "ListeIDUser",
      "outputs": [
        {
          "internalType": "uint256",
          "name": "",
          "type": "uint256"
        }
      ],
      "payable": false,
      "stateMutability": "view",
      "type": "function"
    },
    {
      "constant": true,
      "inputs": [
        {
          "internalType": "uint256",
          "name": "",
          "type": "uint256"
        }
      ],
      "name": "NumberProjectUser",
      "outputs": [
        {
          "internalType": "uint256",
          "name": "",
          "type": "uint256"
        }
      ],
      "payable": false,
      "stateMutability": "view",
      "type": "function"
    },
    {
      "constant": true,
      "inputs": [
        {
          "internalType": "uint256",
          "name": "",
          "type": "uint256"
        },
        {
          "internalType": "uint256",
          "name": "",
          "type": "uint256"
        }
      ],
      "name": "ListTicketProject",
      "outputs": [
        {
          "internalType": "uint256",
          "name": "ID_Ticket",
          "type": "uint256"
        },
        {
          "internalType": "string",
          "name": "TicketName",
          "type": "string"
        },
        {
          "internalType": "uint256",
          "name": "TicketPrice",
          "type": "uint256"
        },
        {
          "internalType": "string",
          "name": "TicketDescription",
          "type": "string"
        },
        {
          "internalType": "uint256",
          "name": "validity",
          "type": "uint256"
        },
        {
          "internalType": "string",
          "name": "ticketCreator",
          "type": "string"
        },
        {
          "internalType": "string",
          "name": "ticketOwner",
          "type": "string"
        },
        {
          "internalType": "string",
          "name": "options",
          "type": "string"
        }
      ],
      "payable": false,
      "stateMutability": "view",
      "type": "function"
    },
    {
      "constant": false,
      "inputs": [
        {
          "internalType": "string",
          "name": "Username",
          "type": "string"
        },
        {
          "internalType": "string",
          "name": "email",
          "type": "string"
        },
        {
          "internalType": "string",
          "name": "country",
          "type": "string"
        },
        {
          "internalType": "uint256",
          "name": "posta_Code",
          "type": "uint256"
        },
        {
          "internalType": "string",
          "name": "privateKey",
          "type": "string"
        },
        {
          "internalType": "address",
          "name": "userWallet",
          "type": "address"
        }
      ],
      "name": "CreateUser",
      "outputs": [],
      "payable": false,
      "stateMutability": "nonpayable",
      "type": "function"
    },
    {
      "constant": true,
      "inputs": [
        {
          "internalType": "uint256",
          "name": "id_project",
          "type": "uint256"
        },
        {
          "internalType": "uint256",
          "name": "indice",
          "type": "uint256"
        },
        {
          "internalType": "uint256",
          "name": "id_user",
          "type": "uint256"
        }
      ],
      "name": "RevenuePerCoOr",
      "outputs": [
        {
          "internalType": "bool",
          "name": "",
          "type": "bool"
        }
      ],
      "payable": false,
      "stateMutability": "view",
      "type": "function"
    },
    {
      "constant": true,
      "inputs": [
        {
          "internalType": "uint256",
          "name": "ID_User",
          "type": "uint256"
        }
      ],
      "name": "getUser",
      "outputs": [
        {
          "internalType": "string",
          "name": "",
          "type": "string"
        },
        {
          "internalType": "string",
          "name": "",
          "type": "string"
        },
        {
          "internalType": "string",
          "name": "",
          "type": "string"
        },
        {
          "internalType": "uint256",
          "name": "",
          "type": "uint256"
        },
        {
          "internalType": "address",
          "name": "",
          "type": "address"
        },
        {
          "internalType": "string",
          "name": "",
          "type": "string"
        }
      ],
      "payable": false,
      "stateMutability": "view",
      "type": "function"
    },
    {
      "constant": false,
      "inputs": [
        {
          "internalType": "uint256",
          "name": "ID_User",
          "type": "uint256"
        },
        {
          "internalType": "string",
          "name": "project_name",
          "type": "string"
        },
        {
          "internalType": "string",
          "name": "project_type",
          "type": "string"
        },
        {
          "internalType": "string",
          "name": "localization",
          "type": "string"
        },
        {
          "internalType": "uint256",
          "name": "start_date",
          "type": "uint256"
        },
        {
          "internalType": "uint256",
          "name": "end_date",
          "type": "uint256"
        },
        {
          "internalType": "bool",
          "name": "ongoing_project",
          "type": "bool"
        },
        {
          "internalType": "string",
          "name": "project_description",
          "type": "string"
        },
        {
          "internalType": "string",
          "name": "project_contact_information",
          "type": "string"
        },
        {
          "internalType": "uint256",
          "name": "tickets_total_supply",
          "type": "uint256"
        }
      ],
      "name": "CreateProject",
      "outputs": [],
      "payable": false,
      "stateMutability": "nonpayable",
      "type": "function"
    },
    {
      "constant": true,
      "inputs": [
        {
          "internalType": "uint256",
          "name": "ID_User",
          "type": "uint256"
        },
        {
          "internalType": "uint256",
          "name": "indice",
          "type": "uint256"
        }
      ],
      "name": "getproject",
      "outputs": [
        {
          "internalType": "string",
          "name": "",
          "type": "string"
        },
        {
          "internalType": "string",
          "name": "",
          "type": "string"
        },
        {
          "internalType": "uint256",
          "name": "",
          "type": "uint256"
        },
        {
          "internalType": "uint256",
          "name": "",
          "type": "uint256"
        },
        {
          "internalType": "bool",
          "name": "",
          "type": "bool"
        },
        {
          "internalType": "string",
          "name": "",
          "type": "string"
        }
      ],
      "payable": false,
      "stateMutability": "view",
      "type": "function"
    },
    {
      "constant": false,
      "inputs": [
        {
          "internalType": "uint256",
          "name": "id_project",
          "type": "uint256"
        },
        {
          "internalType": "uint256",
          "name": "organizer",
          "type": "uint256"
        },
        {
          "internalType": "uint256",
          "name": "tickets_sale_rev",
          "type": "uint256"
        },
        {
          "internalType": "uint256",
          "name": "total_tickets_sale_rev",
          "type": "uint256"
        },
        {
          "internalType": "string",
          "name": "signed_or",
          "type": "string"
        }
      ],
      "name": "CreateRules",
      "outputs": [],
      "payable": false,
      "stateMutability": "nonpayable",
      "type": "function"
    },
    {
      "constant": true,
      "inputs": [
        {
          "internalType": "uint256",
          "name": "id_project",
          "type": "uint256"
        }
      ],
      "name": "getRules",
      "outputs": [
        {
          "internalType": "uint256",
          "name": "",
          "type": "uint256"
        },
        {
          "internalType": "uint256",
          "name": "",
          "type": "uint256"
        },
        {
          "internalType": "uint256",
          "name": "",
          "type": "uint256"
        },
        {
          "internalType": "uint256",
          "name": "",
          "type": "uint256"
        },
        {
          "internalType": "string",
          "name": "",
          "type": "string"
        }
      ],
      "payable": false,
      "stateMutability": "view",
      "type": "function"
    },
    {
      "constant": false,
      "inputs": [
        {
          "internalType": "string",
          "name": "_Companyname",
          "type": "string"
        },
        {
          "internalType": "string",
          "name": "_Companyemail",
          "type": "string"
        },
        {
          "internalType": "uint256",
          "name": "_Identification",
          "type": "uint256"
        },
        {
          "internalType": "string",
          "name": "_CompanyAddress",
          "type": "string"
        },
        {
          "internalType": "string",
          "name": "_CompanyArea",
          "type": "string"
        },
        {
          "internalType": "string",
          "name": "_CompanyBankAccount",
          "type": "string"
        },
        {
          "internalType": "address",
          "name": "_ProWallet",
          "type": "address"
        }
      ],
      "name": "addProUser",
      "outputs": [],
      "payable": false,
      "stateMutability": "nonpayable",
      "type": "function"
    },
    {
      "constant": false,
      "inputs": [
        {
          "internalType": "uint256",
          "name": "_ID_User",
          "type": "uint256"
        },
        {
          "internalType": "uint256",
          "name": "_ID_Project",
          "type": "uint256"
        },
        {
          "internalType": "string",
          "name": "_TicketName",
          "type": "string"
        },
        {
          "internalType": "uint256",
          "name": "_TicketPrice",
          "type": "uint256"
        },
        {
          "internalType": "string",
          "name": "_TicketDescription",
          "type": "string"
        },
        {
          "internalType": "uint256",
          "name": "_validity",
          "type": "uint256"
        },
        {
          "internalType": "string",
          "name": "_ticketCreator",
          "type": "string"
        },
        {
          "internalType": "string",
          "name": "_ticketOwner",
          "type": "string"
        },
        {
          "internalType": "string",
          "name": "_options",
          "type": "string"
        }
      ],
      "name": "addTicket",
      "outputs": [],
      "payable": false,
      "stateMutability": "nonpayable",
      "type": "function"
    },
    {
      "constant": true,
      "inputs": [
        {
          "internalType": "uint256",
          "name": "ID_UserPro",
          "type": "uint256"
        }
      ],
      "name": "getUserPro",
      "outputs": [
        {
          "internalType": "string",
          "name": "",
          "type": "string"
        },
        {
          "internalType": "string",
          "name": "",
          "type": "string"
        },
        {
          "internalType": "uint256",
          "name": "",
          "type": "uint256"
        },
        {
          "internalType": "string",
          "name": "",
          "type": "string"
        },
        {
          "internalType": "string",
          "name": "",
          "type": "string"
        },
        {
          "internalType": "string",
          "name": "",
          "type": "string"
        },
        {
          "internalType": "address",
          "name": "",
          "type": "address"
        }
      ],
      "payable": false,
      "stateMutability": "view",
      "type": "function"
    },
    {
      "constant": true,
      "inputs": [
        {
          "internalType": "uint256",
          "name": "ID_User",
          "type": "uint256"
        },
        {
          "internalType": "uint256",
          "name": "indice",
          "type": "uint256"
        }
      ],
      "name": "getTicketUser",
      "outputs": [
        {
          "internalType": "string",
          "name": "",
          "type": "string"
        },
        {
          "internalType": "uint256",
          "name": "",
          "type": "uint256"
        },
        {
          "internalType": "string",
          "name": "",
          "type": "string"
        },
        {
          "internalType": "uint256",
          "name": "",
          "type": "uint256"
        },
        {
          "internalType": "string",
          "name": "",
          "type": "string"
        },
        {
          "internalType": "string",
          "name": "",
          "type": "string"
        }
      ],
      "payable": false,
      "stateMutability": "view",
      "type": "function"
    },
    {
      "constant": true,
      "inputs": [
        {
          "internalType": "uint256",
          "name": "ID_Project",
          "type": "uint256"
        },
        {
          "internalType": "uint256",
          "name": "indice",
          "type": "uint256"
        }
      ],
      "name": "getTicketProject",
      "outputs": [
        {
          "internalType": "string",
          "name": "",
          "type": "string"
        },
        {
          "internalType": "uint256",
          "name": "",
          "type": "uint256"
        },
        {
          "internalType": "string",
          "name": "",
          "type": "string"
        },
        {
          "internalType": "uint256",
          "name": "",
          "type": "uint256"
        },
        {
          "internalType": "string",
          "name": "",
          "type": "string"
        },
        {
          "internalType": "string",
          "name": "",
          "type": "string"
        }
      ],
      "payable": false,
      "stateMutability": "view",
      "type": "function"
    },
    {
      "constant": false,
      "inputs": [
        {
          "internalType": "uint256",
          "name": "ID_User",
          "type": "uint256"
        },
        {
          "internalType": "uint256",
          "name": "id_project",
          "type": "uint256"
        },
        {
          "internalType": "uint256",
          "name": "Por_distribution",
          "type": "uint256"
        }
      ],
      "name": "participation",
      "outputs": [],
      "payable": false,
      "stateMutability": "nonpayable",
      "type": "function"
    },
    {
      "constant": true,
      "inputs": [
        {
          "internalType": "uint256",
          "name": "index",
          "type": "uint256"
        },
        {
          "internalType": "uint256",
          "name": "id_project",
          "type": "uint256"
        }
      ],
      "name": "getParticipantByIndex",
      "outputs": [
        {
          "internalType": "uint256",
          "name": "",
          "type": "uint256"
        },
        {
          "internalType": "uint256",
          "name": "",
          "type": "uint256"
        }
      ],
      "payable": false,
      "stateMutability": "view",
      "type": "function"
    },
    {
      "constant": true,
      "inputs": [
        {
          "internalType": "uint256",
          "name": "id_project",
          "type": "uint256"
        }
      ],
      "name": "getLengthPart",
      "outputs": [
        {
          "internalType": "uint256",
          "name": "",
          "type": "uint256"
        }
      ],
      "payable": false,
      "stateMutability": "view",
      "type": "function"
    },
    {
      "constant": true,
      "inputs": [
        {
          "internalType": "uint256",
          "name": "ID_User",
          "type": "uint256"
        }
      ],
      "name": "nbrProjectUser",
      "outputs": [
        {
          "internalType": "uint256",
          "name": "",
          "type": "uint256"
        }
      ],
      "payable": false,
      "stateMutability": "view",
      "type": "function"
    },
    {
      "constant": true,
      "inputs": [
        {
          "internalType": "uint256",
          "name": "ID_User",
          "type": "uint256"
        }
      ],
      "name": "nbrTicketUser",
      "outputs": [
        {
          "internalType": "uint256",
          "name": "",
          "type": "uint256"
        }
      ],
      "payable": false,
      "stateMutability": "view",
      "type": "function"
    },
    {
      "constant": true,
      "inputs": [
        {
          "internalType": "uint256",
          "name": "ID_Project",
          "type": "uint256"
        }
      ],
      "name": "nbrTicketProject",
      "outputs": [
        {
          "internalType": "uint256",
          "name": "",
          "type": "uint256"
        }
      ],
      "payable": false,
      "stateMutability": "view",
      "type": "function"
    }
  ],
  "bytecode": "0x60806040526001600c556001600d556001600e556001600f55600160105534801561002957600080fd5b50615ed9806200003a6000396000f3fe608060405234801561001057600080fd5b50600436106102105760003560e01c8063a3a0758f11610125578063c845922b116100ad578063ea21a0391161007c578063ea21a03914612517578063f266f08c14612559578063f46bc56d14612899578063fb6b5d03146128ec578063fbb1862014612b6257610210565b8063c845922b1461213f578063ceb8645114612202578063e43637ac14612244578063e498ef73146124d557610210565b8063b3ab2177116100f4578063b3ab21771461161d578063b5b7069414611969578063bbb6bfae14611bdf578063c0a6da3d14611bfd578063c5908abd14611e9557610210565b8063a3a0758f1461137a578063a6d9566614611398578063aefabae7146113b6578063b0467deb146113f857610210565b806338de6975116101a85780638282ad2e116101775780638282ad2e14610f4d5780638816df1b146111505780638e7cdad0146112335780638f7daf0f146112755780639e0f0d191461133857610210565b806338de697514610e695780634ce466a514610eab5780635db47fc314610ec95780637e9bb07814610f0b57610210565b80631a47763d116101e45780631a47763d146106435780632046532f1461098457806323ad9c0e14610b875780632a06f7a514610be157610210565b806267dea3146102155780630874ecaa146104415780630ac28fa414610483578063185e0fad14610625575b600080fd5b6102416004803603602081101561022b57600080fd5b8101908080359060200190929190505050612ba4565b60405180888152602001806020018060200180602001878152602001806020018673ffffffffffffffffffffffffffffffffffffffff1673ffffffffffffffffffffffffffffffffffffffff16815260200185810385528b818151815260200191508051906020019080838360005b838110156102cb5780820151818401526020810190506102b0565b50505050905090810190601f1680156102f85780820380516001836020036101000a031916815260200191505b5085810384528a818151815260200191508051906020019080838360005b83811015610331578082015181840152602081019050610316565b50505050905090810190601f16801561035e5780820380516001836020036101000a031916815260200191505b50858103835289818151815260200191508051906020019080838360005b8381101561039757808201518184015260208101905061037c565b50505050905090810190601f1680156103c45780820380516001836020036101000a031916815260200191505b50858103825287818151815260200191508051906020019080838360005b838110156103fd5780820151818401526020810190506103e2565b50505050905090810190601f16801561042a5780820380516001836020036101000a031916815260200191505b509b50505050505050505050505060405180910390f35b61046d6004803603602081101561045757600080fd5b8101908080359060200190929190505050612e66565b6040518082815260200191505060405180910390f35b6104b96004803603604081101561049957600080fd5b810190808035906020019092919080359060200190929190505050612e7e565b604051808060200180602001878152602001868152602001851515151581526020018060200184810384528a818151815260200191508051906020019080838360005b838110156105175780820151818401526020810190506104fc565b50505050905090810190601f1680156105445780820380516001836020036101000a031916815260200191505b50848103835289818151815260200191508051906020019080838360005b8381101561057d578082015181840152602081019050610562565b50505050905090810190601f1680156105aa5780820380516001836020036101000a031916815260200191505b50848103825285818151815260200191508051906020019080838360005b838110156105e35780820151818401526020810190506105c8565b50505050905090810190601f1680156106105780820380516001836020036101000a031916815260200191505b50995050505050505050505060405180910390f35b61062d61316c565b6040518082815260200191505060405180910390f35b610982600480360360e081101561065957600080fd5b810190808035906020019064010000000081111561067657600080fd5b82018360208201111561068857600080fd5b803590602001918460018302840111640100000000831117156106aa57600080fd5b91908080601f016020809104026020016040519081016040528093929190818152602001838380828437600081840152601f19601f8201169050808301925050505050505091929192908035906020019064010000000081111561070d57600080fd5b82018360208201111561071f57600080fd5b8035906020019184600183028401116401000000008311171561074157600080fd5b91908080601f016020809104026020016040519081016040528093929190818152602001838380828437600081840152601f19601f82011690508083019250505050505050919291929080359060200190929190803590602001906401000000008111156107ae57600080fd5b8201836020820111156107c057600080fd5b803590602001918460018302840111640100000000831117156107e257600080fd5b91908080601f016020809104026020016040519081016040528093929190818152602001838380828437600081840152601f19601f8201169050808301925050505050505091929192908035906020019064010000000081111561084557600080fd5b82018360208201111561085757600080fd5b8035906020019184600183028401116401000000008311171561087957600080fd5b91908080601f016020809104026020016040519081016040528093929190818152602001838380828437600081840152601f19601f820116905080830192505050505050509192919290803590602001906401000000008111156108dc57600080fd5b8201836020820111156108ee57600080fd5b8035906020019184600183028401116401000000008311171561091057600080fd5b91908080601f016020809104026020016040519081016040528093929190818152602001838380828437600081840152601f19601f820116905080830192505050505050509192919290803573ffffffffffffffffffffffffffffffffffffffff169060200190929190505050613172565b005b6109ba6004803603604081101561099a57600080fd5b810190808035906020019092919080359060200190929190505050613327565b604051808060200187815260200180602001868152602001806020018060200185810385528b818151815260200191508051906020019080838360005b83811015610a125780820151818401526020810190506109f7565b50505050905090810190601f168015610a3f5780820380516001836020036101000a031916815260200191505b50858103845289818151815260200191508051906020019080838360005b83811015610a78578082015181840152602081019050610a5d565b50505050905090810190601f168015610aa55780820380516001836020036101000a031916815260200191505b50858103835287818151815260200191508051906020019080838360005b83811015610ade578082015181840152602081019050610ac3565b50505050905090810190601f168015610b0b5780820380516001836020036101000a031916815260200191505b50858103825286818151815260200191508051906020019080838360005b83811015610b44578082015181840152602081019050610b29565b50505050905090810190601f168015610b715780820380516001836020036101000a031916815260200191505b509a505050505050505050505060405180910390f35b610bc760048036036060811015610b9d57600080fd5b810190808035906020019092919080359060200190929190803590602001909291905050506136a4565b604051808215151515815260200191505060405180910390f35b610c1760048036036040811015610bf757600080fd5b810190808035906020019092919080359060200190929190505050613709565b604051808b81526020018060200180602001806020018a815260200189815260200188151515158152602001806020018060200187815260200186810386528f818151815260200191508051906020019080838360005b83811015610c89578082015181840152602081019050610c6e565b50505050905090810190601f168015610cb65780820380516001836020036101000a031916815260200191505b5086810385528e818151815260200191508051906020019080838360005b83811015610cef578082015181840152602081019050610cd4565b50505050905090810190601f168015610d1c5780820380516001836020036101000a031916815260200191505b5086810384528d818151815260200191508051906020019080838360005b83811015610d55578082015181840152602081019050610d3a565b50505050905090810190601f168015610d825780820380516001836020036101000a031916815260200191505b50868103835289818151815260200191508051906020019080838360005b83811015610dbb578082015181840152602081019050610da0565b50505050905090810190601f168015610de85780820380516001836020036101000a031916815260200191505b50868103825288818151815260200191508051906020019080838360005b83811015610e21578082015181840152602081019050610e06565b50505050905090810190601f168015610e4e5780820380516001836020036101000a031916815260200191505b509f5050505050505050505050505050505060405180910390f35b610ea960048036036060811015610e7f57600080fd5b81019080803590602001909291908035906020019092919080359060200190929190505050613a6f565b005b610eb3613ae0565b6040518082815260200191505060405180910390f35b610ef560048036036020811015610edf57600080fd5b8101908080359060200190929190505050613ae6565b6040518082815260200191505060405180910390f35b610f3760048036036020811015610f2157600080fd5b8101908080359060200190929190505050613b03565b6040518082815260200191505060405180910390f35b610f8360048036036040811015610f6357600080fd5b810190808035906020019092919080359060200190929190505050613b24565b604051808060200187815260200180602001868152602001806020018060200185810385528b818151815260200191508051906020019080838360005b83811015610fdb578082015181840152602081019050610fc0565b50505050905090810190601f1680156110085780820380516001836020036101000a031916815260200191505b50858103845289818151815260200191508051906020019080838360005b83811015611041578082015181840152602081019050611026565b50505050905090810190601f16801561106e5780820380516001836020036101000a031916815260200191505b50858103835287818151815260200191508051906020019080838360005b838110156110a757808201518184015260208101905061108c565b50505050905090810190601f1680156110d45780820380516001836020036101000a031916815260200191505b50858103825286818151815260200191508051906020019080838360005b8381101561110d5780820151818401526020810190506110f2565b50505050905090810190601f16801561113a5780820380516001836020036101000a031916815260200191505b509a505050505050505050505060405180910390f35b611231600480360360a081101561116657600080fd5b8101908080359060200190929190803590602001909291908035906020019092919080359060200190929190803590602001906401000000008111156111ab57600080fd5b8201836020820111156111bd57600080fd5b803590602001918460018302840111640100000000831117156111df57600080fd5b91908080601f016020809104026020016040519081016040528093929190818152602001838380828437600081840152601f19601f820116905080830192505050505050509192919290505050613ea1565b005b61125f6004803603602081101561124957600080fd5b8101908080359060200190929190505050613f81565b6040518082815260200191505060405180910390f35b6112a16004803603602081101561128b57600080fd5b8101908080359060200190929190505050613fa4565b6040518086815260200185815260200184815260200183815260200180602001828103825283818151815260200191508051906020019080838360005b838110156112f95780820151818401526020810190506112de565b50505050905090810190601f1680156113265780820380516001836020036101000a031916815260200191505b50965050505050505060405180910390f35b6113646004803603602081101561134e57600080fd5b81019080803590602001909291905050506140cd565b6040518082815260200191505060405180910390f35b6113826140ee565b6040518082815260200191505060405180910390f35b6113a06140f4565b6040518082815260200191505060405180910390f35b6113e2600480360360208110156113cc57600080fd5b81019080803590602001909291905050506140fa565b6040518082815260200191505060405180910390f35b6114246004803603602081101561140e57600080fd5b8101908080359060200190929190505050614112565b604051808060200180602001806020018781526020018673ffffffffffffffffffffffffffffffffffffffff1673ffffffffffffffffffffffffffffffffffffffff1681526020018060200185810385528b818151815260200191508051906020019080838360005b838110156114a857808201518184015260208101905061148d565b50505050905090810190601f1680156114d55780820380516001836020036101000a031916815260200191505b5085810384528a818151815260200191508051906020019080838360005b8381101561150e5780820151818401526020810190506114f3565b50505050905090810190601f16801561153b5780820380516001836020036101000a031916815260200191505b50858103835289818151815260200191508051906020019080838360005b83811015611574578082015181840152602081019050611559565b50505050905090810190601f1680156115a15780820380516001836020036101000a031916815260200191505b50858103825286818151815260200191508051906020019080838360005b838110156115da5780820151818401526020810190506115bf565b50505050905090810190601f1680156116075780820380516001836020036101000a031916815260200191505b509a505050505050505050505060405180910390f35b611967600480360361014081101561163457600080fd5b81019080803590602001909291908035906020019064010000000081111561165b57600080fd5b82018360208201111561166d57600080fd5b8035906020019184600183028401116401000000008311171561168f57600080fd5b91908080601f016020809104026020016040519081016040528093929190818152602001838380828437600081840152601f19601f820116905080830192505050505050509192919290803590602001906401000000008111156116f257600080fd5b82018360208201111561170457600080fd5b8035906020019184600183028401116401000000008311171561172657600080fd5b91908080601f016020809104026020016040519081016040528093929190818152602001838380828437600081840152601f19601f8201169050808301925050505050505091929192908035906020019064010000000081111561178957600080fd5b82018360208201111561179b57600080fd5b803590602001918460018302840111640100000000831117156117bd57600080fd5b91908080601f016020809104026020016040519081016040528093929190818152602001838380828437600081840152601f19601f82011690508083019250505050505050919291929080359060200190929190803590602001909291908035151590602001909291908035906020019064010000000081111561184057600080fd5b82018360208201111561185257600080fd5b8035906020019184600183028401116401000000008311171561187457600080fd5b91908080601f016020809104026020016040519081016040528093929190818152602001838380828437600081840152601f19601f820116905080830192505050505050509192919290803590602001906401000000008111156118d757600080fd5b8201836020820111156118e957600080fd5b8035906020019184600183028401116401000000008311171561190b57600080fd5b91908080601f016020809104026020016040519081016040528093929190818152602001838380828437600081840152601f19601f82011690508083019250505050505050919291929080359060200190929190505050614447565b005b61199f6004803603604081101561197f57600080fd5b81019080803590602001909291908035906020019092919050505061476e565b60405180898152602001806020018881526020018060200187815260200180602001806020018060200186810386528d818151815260200191508051906020019080838360005b83811015611a015780820151818401526020810190506119e6565b50505050905090810190601f168015611a2e5780820380516001836020036101000a031916815260200191505b5086810385528b818151815260200191508051906020019080838360005b83811015611a67578082015181840152602081019050611a4c565b50505050905090810190601f168015611a945780820380516001836020036101000a031916815260200191505b50868103845289818151815260200191508051906020019080838360005b83811015611acd578082015181840152602081019050611ab2565b50505050905090810190601f168015611afa5780820380516001836020036101000a031916815260200191505b50868103835288818151815260200191508051906020019080838360005b83811015611b33578082015181840152602081019050611b18565b50505050905090810190601f168015611b605780820380516001836020036101000a031916815260200191505b50868103825287818151815260200191508051906020019080838360005b83811015611b99578082015181840152602081019050611b7e565b50505050905090810190601f168015611bc65780820380516001836020036101000a031916815260200191505b509d505050505050505050505050505060405180910390f35b611be7614abb565b6040518082815260200191505060405180910390f35b611c2960048036036020811015611c1357600080fd5b8101908080359060200190929190505050614ac1565b6040518089815260200180602001806020018881526020018060200180602001806020018773ffffffffffffffffffffffffffffffffffffffff1673ffffffffffffffffffffffffffffffffffffffff16815260200186810386528d818151815260200191508051906020019080838360005b83811015611cb7578082015181840152602081019050611c9c565b50505050905090810190601f168015611ce45780820380516001836020036101000a031916815260200191505b5086810385528c818151815260200191508051906020019080838360005b83811015611d1d578082015181840152602081019050611d02565b50505050905090810190601f168015611d4a5780820380516001836020036101000a031916815260200191505b5086810384528a818151815260200191508051906020019080838360005b83811015611d83578082015181840152602081019050611d68565b50505050905090810190601f168015611db05780820380516001836020036101000a031916815260200191505b50868103835289818151815260200191508051906020019080838360005b83811015611de9578082015181840152602081019050611dce565b50505050905090810190601f168015611e165780820380516001836020036101000a031916815260200191505b50868103825288818151815260200191508051906020019080838360005b83811015611e4f578082015181840152602081019050611e34565b50505050905090810190601f168015611e7c5780820380516001836020036101000a031916815260200191505b509d505050505050505050505050505060405180910390f35b61213d600480360360c0811015611eab57600080fd5b8101908080359060200190640100000000811115611ec857600080fd5b820183602082011115611eda57600080fd5b80359060200191846001830284011164010000000083111715611efc57600080fd5b91908080601f016020809104026020016040519081016040528093929190818152602001838380828437600081840152601f19601f82011690508083019250505050505050919291929080359060200190640100000000811115611f5f57600080fd5b820183602082011115611f7157600080fd5b80359060200191846001830284011164010000000083111715611f9357600080fd5b91908080601f016020809104026020016040519081016040528093929190818152602001838380828437600081840152601f19601f82011690508083019250505050505050919291929080359060200190640100000000811115611ff657600080fd5b82018360208201111561200857600080fd5b8035906020019184600183028401116401000000008311171561202a57600080fd5b91908080601f016020809104026020016040519081016040528093929190818152602001838380828437600081840152601f19601f820116905080830192505050505050509192919290803590602001909291908035906020019064010000000081111561209757600080fd5b8201836020820111156120a957600080fd5b803590602001918460018302840111640100000000831117156120cb57600080fd5b91908080601f016020809104026020016040519081016040528093929190818152602001838380828437600081840152601f19601f820116905080830192505050505050509192919290803573ffffffffffffffffffffffffffffffffffffffff169060200190929190505050614e21565b005b61216b6004803603602081101561215557600080fd5b8101908080359060200190929190505050614fb0565b6040518086815260200185815260200184815260200183815260200180602001828103825283818151815260200191508051906020019080838360005b838110156121c35780820151818401526020810190506121a8565b50505050905090810190601f1680156121f05780820380516001836020036101000a031916815260200191505b50965050505050505060405180910390f35b61222e6004803603602081101561221857600080fd5b810190808035906020019092919050505061507e565b6040518082815260200191505060405180910390f35b6122706004803603602081101561225a57600080fd5b810190808035906020019092919050505061509f565b6040518080602001806020018881526020018060200180602001806020018773ffffffffffffffffffffffffffffffffffffffff1673ffffffffffffffffffffffffffffffffffffffff16815260200186810386528d818151815260200191508051906020019080838360005b838110156122f85780820151818401526020810190506122dd565b50505050905090810190601f1680156123255780820380516001836020036101000a031916815260200191505b5086810385528c818151815260200191508051906020019080838360005b8381101561235e578082015181840152602081019050612343565b50505050905090810190601f16801561238b5780820380516001836020036101000a031916815260200191505b5086810384528a818151815260200191508051906020019080838360005b838110156123c45780820151818401526020810190506123a9565b50505050905090810190601f1680156123f15780820380516001836020036101000a031916815260200191505b50868103835289818151815260200191508051906020019080838360005b8381101561242a57808201518184015260208101905061240f565b50505050905090810190601f1680156124575780820380516001836020036101000a031916815260200191505b50868103825288818151815260200191508051906020019080838360005b83811015612490578082015181840152602081019050612475565b50505050905090810190601f1680156124bd5780820380516001836020036101000a031916815260200191505b509c5050505050505050505050505060405180910390f35b612501600480360360208110156124eb57600080fd5b8101908080359060200190929190505050615485565b6040518082815260200191505060405180910390f35b6125436004803603602081101561252d57600080fd5b810190808035906020019092919050505061549d565b6040518082815260200191505060405180910390f35b612897600480360361012081101561257057600080fd5b810190808035906020019092919080359060200190929190803590602001906401000000008111156125a157600080fd5b8201836020820111156125b357600080fd5b803590602001918460018302840111640100000000831117156125d557600080fd5b91908080601f016020809104026020016040519081016040528093929190818152602001838380828437600081840152601f19601f820116905080830192505050505050509192919290803590602001909291908035906020019064010000000081111561264257600080fd5b82018360208201111561265457600080fd5b8035906020019184600183028401116401000000008311171561267657600080fd5b91908080601f016020809104026020016040519081016040528093929190818152602001838380828437600081840152601f19601f82011690508083019250505050505050919291929080359060200190929190803590602001906401000000008111156126e357600080fd5b8201836020820111156126f557600080fd5b8035906020019184600183028401116401000000008311171561271757600080fd5b91908080601f016020809104026020016040519081016040528093929190818152602001838380828437600081840152601f19601f8201169050808301925050505050505091929192908035906020019064010000000081111561277a57600080fd5b82018360208201111561278c57600080fd5b803590602001918460018302840111640100000000831117156127ae57600080fd5b91908080601f016020809104026020016040519081016040528093929190818152602001838380828437600081840152601f19601f8201169050808301925050505050505091929192908035906020019064010000000081111561281157600080fd5b82018360208201111561282357600080fd5b8035906020019184600183028401116401000000008311171561284557600080fd5b91908080601f016020809104026020016040519081016040528093929190818152602001838380828437600081840152601f19601f8201169050808301925050505050505091929192905050506154ba565b005b6128cf600480360360408110156128af57600080fd5b810190808035906020019092919080359060200190929190505050615a2d565b604051808381526020018281526020019250505060405180910390f35b6129226004803603604081101561290257600080fd5b810190808035906020019092919080359060200190929190505050615a95565b60405180898152602001806020018881526020018060200187815260200180602001806020018060200186810386528d818151815260200191508051906020019080838360005b83811015612984578082015181840152602081019050612969565b50505050905090810190601f1680156129b15780820380516001836020036101000a031916815260200191505b5086810385528b818151815260200191508051906020019080838360005b838110156129ea5780820151818401526020810190506129cf565b50505050905090810190601f168015612a175780820380516001836020036101000a031916815260200191505b50868103845289818151815260200191508051906020019080838360005b83811015612a50578082015181840152602081019050612a35565b50505050905090810190601f168015612a7d5780820380516001836020036101000a031916815260200191505b50868103835288818151815260200191508051906020019080838360005b83811015612ab6578082015181840152602081019050612a9b565b50505050905090810190601f168015612ae35780820380516001836020036101000a031916815260200191505b50868103825287818151815260200191508051906020019080838360005b83811015612b1c578082015181840152602081019050612b01565b50505050905090810190601f168015612b495780820380516001836020036101000a031916815260200191505b509d505050505050505050505050505060405180910390f35b612b8e60048036036020811015612b7857600080fd5b8101908080359060200190929190505050615de2565b6040518082815260200191505060405180910390f35b6002602052806000526040600020600091509050806000015490806001018054600181600116156101000203166002900480601f016020809104026020016040519081016040528092919081815260200182805460018160011615610100020316600290048015612c565780601f10612c2b57610100808354040283529160200191612c56565b820191906000526020600020905b815481529060010190602001808311612c3957829003601f168201915b505050505090806002018054600181600116156101000203166002900480601f016020809104026020016040519081016040528092919081815260200182805460018160011615610100020316600290048015612cf45780601f10612cc957610100808354040283529160200191612cf4565b820191906000526020600020905b815481529060010190602001808311612cd757829003601f168201915b505050505090806003018054600181600116156101000203166002900480601f016020809104026020016040519081016040528092919081815260200182805460018160011615610100020316600290048015612d925780601f10612d6757610100808354040283529160200191612d92565b820191906000526020600020905b815481529060010190602001808311612d7557829003601f168201915b505050505090806004015490806005018054600181600116156101000203166002900480601f016020809104026020016040519081016040528092919081815260200182805460018160011615610100020316600290048015612e365780601f10612e0b57610100808354040283529160200191612e36565b820191906000526020600020905b815481529060010190602001808311612e1957829003601f168201915b5050505050908060060160009054906101000a900473ffffffffffffffffffffffffffffffffffffffff16905087565b60076020528060005260406000206000915090505481565b60608060008060006060600460008981526020019081526020016000206000888152602001908152602001600020600101600460008a81526020019081526020016000206000898152602001908152602001600020600201600460008b815260200190815260200160002060008a815260200190815260200160002060040154600460008c815260200190815260200160002060008b815260200190815260200160002060050154600460008d815260200190815260200160002060008c815260200190815260200160002060060160009054906101000a900460ff16600460008e815260200190815260200160002060008d8152602001908152602001600020600701858054600181600116156101000203166002900480601f0160208091040260200160405190810160405280929190818152602001828054600181600116156101000203166002900480156130175780601f10612fec57610100808354040283529160200191613017565b820191906000526020600020905b815481529060010190602001808311612ffa57829003601f168201915b50505050509550848054600181600116156101000203166002900480601f0160208091040260200160405190810160405280929190818152602001828054600181600116156101000203166002900480156130b35780601f10613088576101008083540402835291602001916130b3565b820191906000526020600020905b81548152906001019060200180831161309657829003601f168201915b50505050509450808054600181600116156101000203166002900480601f01602080910402602001604051908101604052809291908181526020018280546001816001161561010002031660029004801561314f5780601f106131245761010080835404028352916020019161314f565b820191906000526020600020905b81548152906001019060200180831161313257829003601f168201915b505050505090509550955095509550955095509295509295509295565b600e5481565b600f54600080600f5481526020019081526020016000206000018190555086600080600f54815260200190815260200160002060010190805190602001906131bb929190615dff565b5085600080600f54815260200190815260200160002060020190805190602001906131e7929190615dff565b5084600080600f5481526020019081526020016000206003018190555083600080600f548152602001908152602001600020600401908051906020019061322f929190615dff565b5082600080600f548152602001908152602001600020600501908051906020019061325b929190615dff565b5081600080600f5481526020019081526020016000206006019080519060200190613287929190615dff565b5080600080600f54815260200190815260200160002060070160006101000a81548173ffffffffffffffffffffffffffffffffffffffff021916908373ffffffffffffffffffffffffffffffffffffffff1602179055506001600f549080600181540180825580915050906001820390600052602060002001600090919290919091505550600f6000815480929190600101919050555050505050505050565b6060600060606000606080600860008981526020019081526020016000206000888152602001908152602001600020600101600860008a8152602001908152602001600020600089815260200190815260200160002060020154600860008b815260200190815260200160002060008a8152602001908152602001600020600301600860008c815260200190815260200160002060008b815260200190815260200160002060040154600860008d815260200190815260200160002060008c8152602001908152602001600020600501600860008e815260200190815260200160002060008d8152602001908152602001600020600701858054600181600116156101000203166002900480601f0160208091040260200160405190810160405280929190818152602001828054600181600116156101000203166002900480156134b35780601f10613488576101008083540402835291602001916134b3565b820191906000526020600020905b81548152906001019060200180831161349657829003601f168201915b50505050509550838054600181600116156101000203166002900480601f01602080910402602001604051908101604052809291908181526020018280546001816001161561010002031660029004801561354f5780601f106135245761010080835404028352916020019161354f565b820191906000526020600020905b81548152906001019060200180831161353257829003601f168201915b50505050509350818054600181600116156101000203166002900480601f0160208091040260200160405190810160405280929190818152602001828054600181600116156101000203166002900480156135eb5780601f106135c0576101008083540402835291602001916135eb565b820191906000526020600020905b8154815290600101906020018083116135ce57829003601f168201915b50505050509150808054600181600116156101000203166002900480601f0160208091040260200160405190810160405280929190818152602001828054600181600116156101000203166002900480156136875780601f1061365c57610100808354040283529160200191613687565b820191906000526020600020905b81548152906001019060200180831161366a57829003601f168201915b505050505090509550955095509550955095509295509295509295565b6000806004600084815260200190815260200160002060008581526020019081526020016000206009015490506000600960008781526020019081526020016000205490508082116136fb57600192505050613702565b6000925050505b9392505050565b600460205281600052604060002060205280600052604060002060009150915050806000015490806001018054600181600116156101000203166002900480601f0160208091040260200160405190810160405280929190818152602001828054600181600116156101000203166002900480156137c85780601f1061379d576101008083540402835291602001916137c8565b820191906000526020600020905b8154815290600101906020018083116137ab57829003601f168201915b505050505090806002018054600181600116156101000203166002900480601f0160208091040260200160405190810160405280929190818152602001828054600181600116156101000203166002900480156138665780601f1061383b57610100808354040283529160200191613866565b820191906000526020600020905b81548152906001019060200180831161384957829003601f168201915b505050505090806003018054600181600116156101000203166002900480601f0160208091040260200160405190810160405280929190818152602001828054600181600116156101000203166002900480156139045780601f106138d957610100808354040283529160200191613904565b820191906000526020600020905b8154815290600101906020018083116138e757829003601f168201915b5050505050908060040154908060050154908060060160009054906101000a900460ff1690806007018054600181600116156101000203166002900480601f0160208091040260200160405190810160405280929190818152602001828054600181600116156101000203166002900480156139c15780601f10613996576101008083540402835291602001916139c1565b820191906000526020600020905b8154815290600101906020018083116139a457829003601f168201915b505050505090806008018054600181600116156101000203166002900480601f016020809104026020016040519081016040528092919081815260200182805460018160011615610100020316600290048015613a5f5780601f10613a3457610100808354040283529160200191613a5f565b820191906000526020600020905b815481529060010190602001808311613a4257829003601f168201915b505050505090806009015490508a565b80600a6000848152602001908152602001600020600201600085815260200190815260200160002081905550600a6000838152602001908152602001600020600301839080600181540180825580915050906001820390600052602060002001600090919290919091505550505050565b600d5481565b600060056000838152602001908152602001600020549050919050565b600b8181548110613b1057fe5b906000526020600020016000915090505481565b6060600060606000606080600660008981526020019081526020016000206000888152602001908152602001600020600101600660008a8152602001908152602001600020600089815260200190815260200160002060020154600660008b815260200190815260200160002060008a8152602001908152602001600020600301600660008c815260200190815260200160002060008b815260200190815260200160002060040154600660008d815260200190815260200160002060008c8152602001908152602001600020600501600660008e815260200190815260200160002060008d8152602001908152602001600020600701858054600181600116156101000203166002900480601f016020809104026020016040519081016040528092919081815260200182805460018160011615610100020316600290048015613cb05780601f10613c8557610100808354040283529160200191613cb0565b820191906000526020600020905b815481529060010190602001808311613c9357829003601f168201915b50505050509550838054600181600116156101000203166002900480601f016020809104026020016040519081016040528092919081815260200182805460018160011615610100020316600290048015613d4c5780601f10613d2157610100808354040283529160200191613d4c565b820191906000526020600020905b815481529060010190602001808311613d2f57829003601f168201915b50505050509350818054600181600116156101000203166002900480601f016020809104026020016040519081016040528092919081815260200182805460018160011615610100020316600290048015613de85780601f10613dbd57610100808354040283529160200191613de8565b820191906000526020600020905b815481529060010190602001808311613dcb57829003601f168201915b50505050509150808054600181600116156101000203166002900480601f016020809104026020016040519081016040528092919081815260200182805460018160011615610100020316600290048015613e845780601f10613e5957610100808354040283529160200191613e84565b820191906000526020600020905b815481529060010190602001808311613e6757829003601f168201915b505050505090509550955095509550955095509295509295509295565b600e54600a60008781526020019081526020016000206000018190555083600a60008781526020019081526020016000206001018190555082600a60008781526020019081526020016000206004018190555081600a60008781526020019081526020016000206005018190555080600a60008781526020019081526020016000206006019080519060200190613f39929190615dff565b50600b600e549080600181540180825580915050906001820390600052602060002001600090919290919091505550600c600081548092919060010191905055505050505050565b6000600a6000838152602001908152602001600020600301805490509050919050565b6000806000806060600a600087815260200190815260200160002060000154600a600088815260200190815260200160002060010154600a600089815260200190815260200160002060040154600a60008a815260200190815260200160002060050154600a60008b8152602001908152602001600020600601808054600181600116156101000203166002900480601f0160208091040260200160405190810160405280929190818152602001828054600181600116156101000203166002900480156140b35780601f10614088576101008083540402835291602001916140b3565b820191906000526020600020905b81548152906001019060200180831161409657829003601f168201915b505050505090509450945094509450945091939590929450565b600181815481106140da57fe5b906000526020600020016000915090505481565b600f5481565b600c5481565b60096020528060005260406000206000915090505481565b606080606060008060606002600088815260200190815260200160002060010160026000898152602001908152602001600020600201600260008a8152602001908152602001600020600301600260008b815260200190815260200160002060040154600260008c815260200190815260200160002060060160009054906101000a900473ffffffffffffffffffffffffffffffffffffffff16600260008d8152602001908152602001600020600501858054600181600116156101000203166002900480601f0160208091040260200160405190810160405280929190818152602001828054600181600116156101000203166002900480156142575780601f1061422c57610100808354040283529160200191614257565b820191906000526020600020905b81548152906001019060200180831161423a57829003601f168201915b50505050509550848054600181600116156101000203166002900480601f0160208091040260200160405190810160405280929190818152602001828054600181600116156101000203166002900480156142f35780601f106142c8576101008083540402835291602001916142f3565b820191906000526020600020905b8154815290600101906020018083116142d657829003601f168201915b50505050509450838054600181600116156101000203166002900480601f01602080910402602001604051908101604052809291908181526020018280546001816001161561010002031660029004801561438f5780601f106143645761010080835404028352916020019161438f565b820191906000526020600020905b81548152906001019060200180831161437257829003601f168201915b50505050509350808054600181600116156101000203166002900480601f01602080910402602001604051908101604052809291908181526020018280546001816001161561010002031660029004801561442b5780601f106144005761010080835404028352916020019161442b565b820191906000526020600020905b81548152906001019060200180831161440e57829003601f168201915b5050505050905095509550955095509550955091939550919395565b600d54600460008c81526020019081526020016000206000600560008e81526020019081526020016000205481526020019081526020016000206000018190555088600460008c81526020019081526020016000206000600560008e815260200190815260200160002054815260200190815260200160002060010190805190602001906144d6929190615dff565b5087600460008c81526020019081526020016000206000600560008e81526020019081526020016000205481526020019081526020016000206002019080519060200190614525929190615dff565b5086600460008c81526020019081526020016000206000600560008e81526020019081526020016000205481526020019081526020016000206003019080519060200190614574929190615dff565b5085600460008c81526020019081526020016000206000600560008e81526020019081526020016000205481526020019081526020016000206004018190555084600460008c81526020019081526020016000206000600560008e81526020019081526020016000205481526020019081526020016000206005018190555083600460008c81526020019081526020016000206000600560008e815260200190815260200160002054815260200190815260200160002060060160006101000a81548160ff02191690831515021790555082600460008c81526020019081526020016000206000600560008e81526020019081526020016000205481526020019081526020016000206007019080519060200190614693929190615dff565b5081600460008c81526020019081526020016000206000600560008e815260200190815260200160002054815260200190815260200160002060080190805190602001906146e2929190615dff565b5080600460008c81526020019081526020016000206000600560008e8152602001908152602001600020548152602001908152602001600020600901819055506001600560008c81526020019081526020016000205401600560008c815260200190815260200160002081905550600d6000815480929190600101919050555050505050505050505050565b600660205281600052604060002060205280600052604060002060009150915050806000015490806001018054600181600116156101000203166002900480601f01602080910402602001604051908101604052809291908181526020018280546001816001161561010002031660029004801561482d5780601f106148025761010080835404028352916020019161482d565b820191906000526020600020905b81548152906001019060200180831161481057829003601f168201915b505050505090806002015490806003018054600181600116156101000203166002900480601f0160208091040260200160405190810160405280929190818152602001828054600181600116156101000203166002900480156148d15780601f106148a6576101008083540402835291602001916148d1565b820191906000526020600020905b8154815290600101906020018083116148b457829003601f168201915b505050505090806004015490806005018054600181600116156101000203166002900480601f0160208091040260200160405190810160405280929190818152602001828054600181600116156101000203166002900480156149755780601f1061494a57610100808354040283529160200191614975565b820191906000526020600020905b81548152906001019060200180831161495857829003601f168201915b505050505090806006018054600181600116156101000203166002900480601f016020809104026020016040519081016040528092919081815260200182805460018160011615610100020316600290048015614a135780601f106149e857610100808354040283529160200191614a13565b820191906000526020600020905b8154815290600101906020018083116149f657829003601f168201915b505050505090806007018054600181600116156101000203166002900480601f016020809104026020016040519081016040528092919081815260200182805460018160011615610100020316600290048015614ab15780601f10614a8657610100808354040283529160200191614ab1565b820191906000526020600020905b815481529060010190602001808311614a9457829003601f168201915b5050505050905088565b60105481565b6000602052806000526040600020600091509050806000015490806001018054600181600116156101000203166002900480601f016020809104026020016040519081016040528092919081815260200182805460018160011615610100020316600290048015614b735780601f10614b4857610100808354040283529160200191614b73565b820191906000526020600020905b815481529060010190602001808311614b5657829003601f168201915b505050505090806002018054600181600116156101000203166002900480601f016020809104026020016040519081016040528092919081815260200182805460018160011615610100020316600290048015614c115780601f10614be657610100808354040283529160200191614c11565b820191906000526020600020905b815481529060010190602001808311614bf457829003601f168201915b505050505090806003015490806004018054600181600116156101000203166002900480601f016020809104026020016040519081016040528092919081815260200182805460018160011615610100020316600290048015614cb55780601f10614c8a57610100808354040283529160200191614cb5565b820191906000526020600020905b815481529060010190602001808311614c9857829003601f168201915b505050505090806005018054600181600116156101000203166002900480601f016020809104026020016040519081016040528092919081815260200182805460018160011615610100020316600290048015614d535780601f10614d2857610100808354040283529160200191614d53565b820191906000526020600020905b815481529060010190602001808311614d3657829003601f168201915b505050505090806006018054600181600116156101000203166002900480601f016020809104026020016040519081016040528092919081815260200182805460018160011615610100020316600290048015614df15780601f10614dc657610100808354040283529160200191614df1565b820191906000526020600020905b815481529060010190602001808311614dd457829003601f168201915b5050505050908060070160009054906101000a900473ffffffffffffffffffffffffffffffffffffffff16905088565b600c5460026000600c548152602001908152602001600020600001819055508560026000600c5481526020019081526020016000206001019080519060200190614e6c929190615dff565b508460026000600c5481526020019081526020016000206002019080519060200190614e99929190615dff565b508360026000600c5481526020019081526020016000206003019080519060200190614ec6929190615dff565b508260026000600c548152602001908152602001600020600401819055508160026000600c5481526020019081526020016000206005019080519060200190614f10929190615dff565b508060026000600c54815260200190815260200160002060060160006101000a81548173ffffffffffffffffffffffffffffffffffffffff021916908373ffffffffffffffffffffffffffffffffffffffff1602179055506003600c549080600181540180825580915050906001820390600052602060002001600090919290919091505550600c60008154809291906001019190505550505050505050565b600a602052806000526040600020600091509050806000015490806001015490806004015490806005015490806006018054600181600116156101000203166002900480601f0160208091040260200160405190810160405280929190818152602001828054600181600116156101000203166002900480156150745780601f1061504957610100808354040283529160200191615074565b820191906000526020600020905b81548152906001019060200180831161505757829003601f168201915b5050505050905085565b6003818154811061508b57fe5b906000526020600020016000915090505481565b6060806000606080606060008060008981526020019081526020016000206001016000808a81526020019081526020016000206002016000808b8152602001908152602001600020600301546000808c81526020019081526020016000206004016000808d81526020019081526020016000206005016000808e81526020019081526020016000206006016000808f815260200190815260200160002060070160009054906101000a900473ffffffffffffffffffffffffffffffffffffffff16868054600181600116156101000203166002900480601f0160208091040260200160405190810160405280929190818152602001828054600181600116156101000203166002900480156151f55780601f106151ca576101008083540402835291602001916151f5565b820191906000526020600020905b8154815290600101906020018083116151d857829003601f168201915b50505050509650858054600181600116156101000203166002900480601f0160208091040260200160405190810160405280929190818152602001828054600181600116156101000203166002900480156152915780601f1061526657610100808354040283529160200191615291565b820191906000526020600020905b81548152906001019060200180831161527457829003601f168201915b50505050509550838054600181600116156101000203166002900480601f01602080910402602001604051908101604052809291908181526020018280546001816001161561010002031660029004801561532d5780601f106153025761010080835404028352916020019161532d565b820191906000526020600020905b81548152906001019060200180831161531057829003601f168201915b50505050509350828054600181600116156101000203166002900480601f0160208091040260200160405190810160405280929190818152602001828054600181600116156101000203166002900480156153c95780601f1061539e576101008083540402835291602001916153c9565b820191906000526020600020905b8154815290600101906020018083116153ac57829003601f168201915b50505050509250818054600181600116156101000203166002900480601f0160208091040260200160405190810160405280929190818152602001828054600181600116156101000203166002900480156154655780601f1061543a57610100808354040283529160200191615465565b820191906000526020600020905b81548152906001019060200180831161544857829003601f168201915b505050505091509650965096509650965096509650919395979092949650565b60056020528060005260406000206000915090505481565b600060096000838152602001908152602001600020549050919050565b6000600460008b81526020019081526020016000206000600760008d81526020019081526020016000205481526020019081526020016000206009015490506000600960008b81526020019081526020016000205490508082101561551e57600080fd5b601054600660008d81526020019081526020016000206000600760008f81526020019081526020016000205481526020019081526020016000206000018190555088600660008d81526020019081526020016000206000600760008f815260200190815260200160002054815260200190815260200160002060010190805190602001906155ad929190615dff565b5087600660008d81526020019081526020016000206000600760008f81526020019081526020016000205481526020019081526020016000206002018190555086600660008d81526020019081526020016000206000600760008f8152602001908152602001600020548152602001908152602001600020600301908051906020019061563b929190615dff565b5085600660008d81526020019081526020016000206000600760008f81526020019081526020016000205481526020019081526020016000206004018190555084600660008d81526020019081526020016000206000600760008f815260200190815260200160002054815260200190815260200160002060050190805190602001906156c9929190615dff565b5083600660008d81526020019081526020016000206000600760008f81526020019081526020016000205481526020019081526020016000206006019080519060200190615718929190615dff565b5082600660008d81526020019081526020016000206000600760008f81526020019081526020016000205481526020019081526020016000206007019080519060200190615767929190615dff565b506001600760008d81526020019081526020016000205401600760008d815260200190815260200160002081905550601054600860008c81526020019081526020016000206000600960008e81526020019081526020016000205481526020019081526020016000206000018190555088600860008c81526020019081526020016000206000600960008e81526020019081526020016000205481526020019081526020016000206001019080519060200190615825929190615dff565b5087600860008c81526020019081526020016000206000600960008e81526020019081526020016000205481526020019081526020016000206002018190555086600860008c81526020019081526020016000206000600960008e815260200190815260200160002054815260200190815260200160002060030190805190602001906158b3929190615dff565b5085600860008c81526020019081526020016000206000600960008e81526020019081526020016000205481526020019081526020016000206004018190555084600860008c81526020019081526020016000206000600960008e81526020019081526020016000205481526020019081526020016000206005019080519060200190615941929190615dff565b5083600860008c81526020019081526020016000206000600960008e81526020019081526020016000205481526020019081526020016000206006019080519060200190615990929190615dff565b5082600860008c81526020019081526020016000206000600960008e815260200190815260200160002054815260200190815260200160002060070190805190602001906159df929190615dff565b506001600960008c81526020019081526020016000205401600960008c8152602001908152602001600020819055506010600081548092919060010191905055505050505050505050505050565b6000806000600a60008581526020019081526020016000206003018581548110615a5357fe5b9060005260206000200154905080600a600086815260200190815260200160002060020160008381526020019081526020016000205492509250509250929050565b600860205281600052604060002060205280600052604060002060009150915050806000015490806001018054600181600116156101000203166002900480601f016020809104026020016040519081016040528092919081815260200182805460018160011615610100020316600290048015615b545780601f10615b2957610100808354040283529160200191615b54565b820191906000526020600020905b815481529060010190602001808311615b3757829003601f168201915b505050505090806002015490806003018054600181600116156101000203166002900480601f016020809104026020016040519081016040528092919081815260200182805460018160011615610100020316600290048015615bf85780601f10615bcd57610100808354040283529160200191615bf8565b820191906000526020600020905b815481529060010190602001808311615bdb57829003601f168201915b505050505090806004015490806005018054600181600116156101000203166002900480601f016020809104026020016040519081016040528092919081815260200182805460018160011615610100020316600290048015615c9c5780601f10615c7157610100808354040283529160200191615c9c565b820191906000526020600020905b815481529060010190602001808311615c7f57829003601f168201915b505050505090806006018054600181600116156101000203166002900480601f016020809104026020016040519081016040528092919081815260200182805460018160011615610100020316600290048015615d3a5780601f10615d0f57610100808354040283529160200191615d3a565b820191906000526020600020905b815481529060010190602001808311615d1d57829003601f168201915b505050505090806007018054600181600116156101000203166002900480601f016020809104026020016040519081016040528092919081815260200182805460018160011615610100020316600290048015615dd85780601f10615dad57610100808354040283529160200191615dd8565b820191906000526020600020905b815481529060010190602001808311615dbb57829003601f168201915b5050505050905088565b600060076000838152602001908152602001600020549050919050565b828054600181600116156101000203166002900490600052602060002090601f016020900481019282601f10615e4057805160ff1916838001178555615e6e565b82800160010185558215615e6e579182015b82811115615e6d578251825591602001919060010190615e52565b5b509050615e7b9190615e7f565b5090565b615ea191905b80821115615e9d576000816000905550600101615e85565b5090565b9056fea265627a7a72315820952daa9feae826008e9a0a49bb277ad27a640dc651b66fc2a3f7e080bab7035864736f6c634300050b0032",
  "source": "pragma solidity 0.5.11;\n\n contract devent {\n     \n         struct rules {\n         uint id_rules;\n         uint organizer;\n         mapping(uint => uint)  coorganisateur_Dist;\n         uint[]  Listecoorganisateur;\n  \n         uint tickets_sale_rev;\n         uint256 total_tickets_sale_rev;\n         string signed_or;\n     }\n\n  \n     \n    struct ProUser {\n         uint ID_ProUser;\n        string Companyname;\n        string Companyemail;\n        uint256  Identification;\n        string CompanyAddress;\n        string  CompanyArea;\n        string CompanyBankAccount;\n    //    string password;\n        address ProWallet;\n     }\n    \n     struct project {\n         uint id_project; \n         string  project_name;\n         string  project_type;\n         string  localization;\n         uint256 start_date;\n         uint256 end_date;\n         bool ongoing_project;\n         string project_description;\n         string project_contact_information;\n         uint tickets_total_supply;\n     }\n    \n     struct User {\n        uint ID_User;\n        string Username;\n        string email;\n        string  country;\n        uint posta_Code;\n      //  string preferences;\n       string privateKey;\n        address userWallet;\n       \n     }\n    \n     struct Ticket {\n        uint ID_Ticket;\n        string TicketName;\n        uint TicketPrice ;\n        string TicketDescription;\n        uint256 validity ;\n        string ticketCreator ;\n        string ticketOwner ;\n        string options ;\n        \n     }\n     \nmapping(uint => ProUser) public ListProUser;\n\n        uint[] public ListIDProUser;\n     \n    mapping (uint => User)  public ListeUser ;\n\n     uint[] public ListeIDUser ; \n     \n     \n    mapping (uint => mapping (uint => project)) public ListeProjectUser;\n\n     mapping (uint => uint) public NumberProjectUser ;\n     \n     \n     \n     mapping (uint => mapping (uint => Ticket)) public ListeUserTicket;\n\n     mapping (uint => uint)  public NumberTickettUser ;\n     \n     \n    mapping(uint=> mapping(uint => Ticket)) public ListTicketProject;\n     \n     mapping(uint => uint) public NumberTicketsProjects;\n     \n     \n     mapping (uint => rules) public ListeRules ;\n      \n    uint[] public ListIDRules;\n    \n \n         uint256 public ID_UserIndice = 1;\n\n    \n    function CreateUser (\n        string memory Username,\n        string memory email,\n        string  memory country,\n        uint posta_Code,\n     //   string memory preferences,\n        string memory privateKey,\n        address userWallet) public {\n        ListeUser[ID_UserIndice].ID_User = ID_UserIndice;\n        ListeUser[ID_UserIndice].Username = Username;\n        ListeUser[ID_UserIndice].email = email;\n        ListeUser[ID_UserIndice].country = country;\n        ListeUser[ID_UserIndice].posta_Code = posta_Code;\n      //  ListeUser[ID_UserIndice].preferences = preferences;\n        ListeUser[ID_UserIndice].privateKey = privateKey;\n        ListeUser[ID_UserIndice].userWallet = userWallet;\n        ListeIDUser.push(ID_UserIndice) ;\n        ID_UserIndice++;\n        }\n        \n        function RevenuePerCoOr (uint id_project,uint indice, uint id_user) view public returns (bool){\n            uint total_tickets = ListeProjectUser[id_user][indice].tickets_total_supply;\n            uint nbr_tickets_encours = NumberTicketsProjects[id_project];\n            if(total_tickets <= nbr_tickets_encours) {\n                return true;\n            }\n            else {\n                return false;\n            }\n            \n        }\n        \n        \n      function  getUser (uint ID_User) view public returns ( string memory ,\n        string memory ,\n        string  memory ,\n        uint ,\n        // string memory,\n        address,\n        string memory \n         ) {\n          return(   \n        ListeUser[ID_User].Username ,\n        ListeUser[ID_User].email,\n        ListeUser[ID_User].country ,\n        ListeUser[ID_User].posta_Code ,\n      //  ListeUser[ID_User].preferences,\n        ListeUser[ID_User].userWallet,\n        ListeUser[ID_User].privateKey \n        );\n      }\n      \n        \n      /*      function CreateProject (\n            \n         uint ID_User,\n         string memory project_name,\n         string memory project_type,\n         string memory localization,\n         uint start_date,\n         uint end_date,\n         bool ongoing_project,\n         string memory project_description,\n         string memory project_contact_information,\n         uint tickets_total_supply) public {\n             ListeProjectUser[ID_User][ProjectIndice].id_project = ProjectIndice;\n             ListeProjectUser[ID_User][ProjectIndice].project_name = project_name;\n             ListeProjectUser[ID_User][ProjectIndice].project_type = project_type;\n             ListeProjectUser[ID_User][ProjectIndice].localization = localization;\n             ListeProjectUser[ID_User][ProjectIndice].start_date = start_date;\n             ListeProjectUser[ID_User][ProjectIndice].end_date = end_date;\n             ListeProjectUser[ID_User][ProjectIndice].ongoing_project = ongoing_project;\n             ListeProjectUser[ID_User][ProjectIndice].project_description = project_description;\n             ListeProjectUser[ID_User][ProjectIndice].project_contact_information = project_contact_information;\n             ListeProjectUser[ID_User][ProjectIndice].tickets_total_supply = tickets_total_supply;\n             NumberProjectUser[ID_User]=ProjectIndice;\n             ProjectIndice++;\n             \n\n        }*/\n      uint256 public ProjectIndice = 1;\n             function CreateProject (\n            \n         uint ID_User,\n         string memory project_name,\n         string memory project_type,\n         string memory localization,\n         uint start_date,\n         uint end_date,\n         bool ongoing_project,\n         string memory project_description,\n         string memory project_contact_information,\n         uint tickets_total_supply) public {\n             ListeProjectUser[ID_User][ NumberProjectUser[ID_User]].id_project = ProjectIndice;\n             ListeProjectUser[ID_User][ NumberProjectUser[ID_User]].project_name = project_name;\n             ListeProjectUser[ID_User][ NumberProjectUser[ID_User]].project_type = project_type;\n             ListeProjectUser[ID_User][ NumberProjectUser[ID_User]].localization = localization;\n             ListeProjectUser[ID_User][ NumberProjectUser[ID_User]].start_date = start_date;\n             ListeProjectUser[ID_User][ NumberProjectUser[ID_User]].end_date = end_date;\n             ListeProjectUser[ID_User][ NumberProjectUser[ID_User]].ongoing_project = ongoing_project;\n             ListeProjectUser[ID_User][ NumberProjectUser[ID_User]].project_description = project_description;\n             ListeProjectUser[ID_User][ NumberProjectUser[ID_User]].project_contact_information = project_contact_information;\n             ListeProjectUser[ID_User][ NumberProjectUser[ID_User]].tickets_total_supply = tickets_total_supply;\n             NumberProjectUser[ID_User]= NumberProjectUser[ID_User]+1;\n             ProjectIndice++;\n             \n\n \n\n        }\n        \n        function  getproject (uint ID_User , uint indice) view public returns ( \n     \n         string memory ,\n         string memory ,\n      //   string memory ,\n         uint ,\n         uint ,\n         bool ,\n         string memory \n         ) {\n          return(   \n             ListeProjectUser[ID_User][indice].project_name ,\n             ListeProjectUser[ID_User][indice].project_type ,\n          //   ListeProjectUser[ID_User][ProjectIndice].localization ,\n             ListeProjectUser[ID_User][indice].start_date,\n             ListeProjectUser[ID_User][indice].end_date,\n             ListeProjectUser[ID_User][indice].ongoing_project ,\n             ListeProjectUser[ID_User][indice].project_description \n           );\n      }\n        \n                uint256 public rulesIndice = 1;\n\n           \n    function CreateRules ( uint id_project, uint organizer, uint tickets_sale_rev, uint256 total_tickets_sale_rev, string memory signed_or) public\n    {\n        ListeRules[id_project].id_rules = rulesIndice;\n        ListeRules[id_project].organizer = organizer;\n        ListeRules[id_project].tickets_sale_rev = tickets_sale_rev;\n        ListeRules[id_project].total_tickets_sale_rev = total_tickets_sale_rev;\n        ListeRules[id_project].signed_or = signed_or;\n\n        ListIDRules.push(rulesIndice) ;\n        ID_UserIndice++;\n        }\n        \n        \n            function  getRules (uint id_project) view public returns ( \n         uint ,\n         uint ,\n         uint ,\n         uint256 ,\n         string memory ) {\n          return(   \n             ListeRules[id_project].id_rules,\n        ListeRules[id_project].organizer,\n        ListeRules[id_project].tickets_sale_rev ,\n        ListeRules[id_project].total_tickets_sale_rev ,\n        ListeRules[id_project].signed_or);\n      }\n      \n       uint public ID_ProUser = 1;\n\n     function addProUser(\n        string memory _Companyname,\n        string memory _Companyemail,\n        uint256  _Identification,\n        string memory _CompanyAddress,\n        string memory  _CompanyArea,\n        string memory _CompanyBankAccount,\n       // string memory _password,\n        address _ProWallet\n    ) public { \n        \n        ListProUser[ID_ProUser].ID_ProUser = ID_ProUser;\n        ListProUser[ID_ProUser].Companyname = _Companyname;\n        ListProUser[ID_ProUser].Companyemail = _Companyemail;\n        ListProUser[ID_ProUser].Identification = _Identification;\n        ListProUser[ID_ProUser].CompanyAddress = _CompanyAddress;\n        ListProUser[ID_ProUser].CompanyArea = _CompanyArea;\n        ListProUser[ID_ProUser].CompanyBankAccount = _CompanyBankAccount;\n       // ListProUser[ID_ProUser].password = _password;\n        ListProUser[ID_ProUser].ProWallet = _ProWallet;\n        \n        ListIDProUser.push(ID_ProUser);\n        \n             ID_ProUser ++;\n        \n    \n    }\n    \n    \n    \n    uint public ID_Ticket = 1;\n    \n      function addTicket(\n      uint _ID_User,\n      uint _ID_Project,\n        string memory _TicketName,\n        uint _TicketPrice ,\n        string memory _TicketDescription,\n        uint256 _validity ,\n        string memory _ticketCreator ,\n        string memory _ticketOwner ,\n        string memory _options \n    ) public { \n        \n         uint total_tickets = ListeProjectUser[_ID_User][NumberTickettUser[_ID_User]].tickets_total_supply;\n            uint nbr_tickets_encours = NumberTicketsProjects[_ID_Project];\n            \n        require(total_tickets >= nbr_tickets_encours);\n        \n        ListeUserTicket[_ID_User][NumberTickettUser[_ID_User]].ID_Ticket = ID_Ticket;\n        ListeUserTicket[_ID_User][NumberTickettUser[_ID_User]].TicketName = _TicketName;\n        ListeUserTicket[_ID_User][NumberTickettUser[_ID_User]].TicketPrice = _TicketPrice;\n        ListeUserTicket[_ID_User][NumberTickettUser[_ID_User]].TicketDescription = _TicketDescription;\n        ListeUserTicket[_ID_User][NumberTickettUser[_ID_User]].validity = _validity;\n        ListeUserTicket[_ID_User][NumberTickettUser[_ID_User]].ticketCreator = _ticketCreator;\n        ListeUserTicket[_ID_User][NumberTickettUser[_ID_User]].ticketOwner = _ticketOwner;\n        ListeUserTicket[_ID_User][NumberTickettUser[_ID_User]].options = _options;\n\n\n        NumberTickettUser[_ID_User] = NumberTickettUser[_ID_User] + 1;\n        \n        ListTicketProject[_ID_Project][NumberTicketsProjects[_ID_Project]].ID_Ticket = ID_Ticket;\n        ListTicketProject[_ID_Project][NumberTicketsProjects[_ID_Project]].TicketName = _TicketName;\n        ListTicketProject[_ID_Project][NumberTicketsProjects[_ID_Project]].TicketPrice = _TicketPrice;\n        ListTicketProject[_ID_Project][NumberTicketsProjects[_ID_Project]].TicketDescription = _TicketDescription;\n        ListTicketProject[_ID_Project][NumberTicketsProjects[_ID_Project]].validity = _validity;\n        ListTicketProject[_ID_Project][NumberTicketsProjects[_ID_Project]].ticketCreator = _ticketCreator;\n        ListTicketProject[_ID_Project][NumberTicketsProjects[_ID_Project]].ticketOwner = _ticketOwner;\n        ListTicketProject[_ID_Project][NumberTicketsProjects[_ID_Project]].options = _options;\n\n        NumberTicketsProjects[_ID_Project] = NumberTicketsProjects[_ID_Project] +1;\n\n        \n        ID_Ticket++;\n  \n    }\n    \n      function  getUserPro (uint ID_UserPro) view public returns ( string memory ,\n        string memory ,\n        uint256 ,\n        string memory ,\n        string memory ,\n        string memory ,\n        address ) {\n          return(   \n        ListProUser[ID_UserPro].Companyname ,\n        ListProUser[ID_UserPro].Companyemail,\n        ListProUser[ID_UserPro].Identification ,\n        ListProUser[ID_UserPro].CompanyAddress ,\n        ListProUser[ID_UserPro].CompanyArea ,\n        ListProUser[ID_UserPro].CompanyBankAccount,\n                ListProUser[ID_UserPro].ProWallet\n\n\n        );\n               \n      }\n\n         function  getTicketUser (uint ID_User, uint indice) view public returns (\n        string memory ,\n        uint ,\n        string memory ,\n        uint256 ,\n        string memory,\n        string memory \n        ) {\n          return(   \n         ListeUserTicket[ID_User][indice].TicketName,\n        ListeUserTicket[ID_User][indice].TicketPrice,\n        ListeUserTicket[ID_User][indice].TicketDescription,\n        ListeUserTicket[ID_User][indice].validity,\n        ListeUserTicket[ID_User][indice].ticketCreator,\n        ListeUserTicket[ID_User][indice].options \n\n        );\n              \n      }\n         function  getTicketProject (uint ID_Project, uint indice) view public returns (\n        string memory ,\n        uint ,\n        string memory ,\n        uint256 ,\n        string memory,\n        string memory \n        ) {\n          return(   \n         ListTicketProject[ID_Project][indice].TicketName,\n        ListTicketProject[ID_Project][indice].TicketPrice,\n        ListTicketProject[ID_Project][indice].TicketDescription,\n        ListTicketProject[ID_Project][indice].validity,\n        ListTicketProject[ID_Project][indice].ticketCreator,\n        ListTicketProject[ID_Project][indice].options \n\n        );\n              \n      }\n     \n     \n      function participation (uint ID_User , uint id_project ,uint Por_distribution) public {\n                  ListeRules[id_project].coorganisateur_Dist[ID_User]= Por_distribution;\n                  ListeRules[id_project].Listecoorganisateur.push(ID_User);\n\n \n\n      }\n      \n      function getParticipantByIndex (uint index , uint id_project) view public returns (uint  , uint ){\n          uint ID_User =  ListeRules[id_project].Listecoorganisateur[index] ;\n          return(ID_User,ListeRules[id_project].coorganisateur_Dist[ID_User]);\n          \n      }\n      \n      function getLengthPart ( uint id_project)  view public returns (uint ){\n         return (ListeRules[id_project].Listecoorganisateur.length) ;\n          \n      }\n      \n      \n      function nbrProjectUser(uint ID_User) view public returns(uint)\n      {\n        return  NumberProjectUser[ID_User] ;  \n      }\n      \n      \n       function nbrTicketUser(uint ID_User) view public returns(uint)\n      {\n        return   NumberTickettUser[ID_User] ;  \n      }\n      \n      \n       function nbrTicketProject(uint ID_Project) view public returns(uint)\n      {\n        return   NumberTicketsProjects[ID_Project] ;  \n      }\n     \n }\n",
  "sourcePath": "/home/ubuntu/contracts/Devent.sol",
  "compiler": {
    "name": "solc",
    "version": "0.5.11+commit.c082d0b4.Emscripten.clang"
  },
  "schemaVersion": "3.1.0",
  "updatedAt": "2020-05-14T10:51:40.484Z",
  "networkType": "ethereum",
  "devdoc": {
    "methods": {}
  },
  "userdoc": {
    "methods": {}
  }
}